:1000000013C1000042C1000040C100003EC1000019
:100010003CC100003AC1000038C1000036C10000F8
:1000200034C1000032C1000030C100002EC1000008
:100030002CC100002AC1000028C1000026C1000018
:1000400024C1000022C1000020C100001EC1000028
:100050001CC100001AC1000018C100000C94E11579
:1000600014C100000C94C9180C94FF180EC10000B4
:100070000CC100000AC1000008C1000006C1000058
:1000800004C1000002C1000000C10000FEC0000069
:10009000FCC00000FAC00000F8C00000F6C000007C
:1000A000F4C00000F2C00000F0C00000EEC000008C
:1000B000ECC00000EAC00000E8C00000E6C000009C
:1000C000E4C00000E2C00000E0C00000DEC00000AC
:1000D000DCC00000DAC00000D8C00000D6C00000BC
:1000E000D4C00000B116B416A316A716AD16EB16B1
:1000F000B816BC16C216C616CA16D016D416D8160E
:10010000EB16DE16E216E6167C3C3E5E2B3D3F2FDC
:100110005B5D3B2C2A225C0000000A0B02090C0DDF
:100120000E080703040100000000000000000000AA
:1001300000000000000000000000000000000000BF
:10014000000000001211100000000000000000007C
:10015000000000000000000000000000000001029C
:1001600010202008081020401020408002010201C9
:100170000804020101020408102040808040201081
:1001800008040201800402018040201008040201DA
:100190000804020101020408102040800102040842
:1001A000102040800505050507050808080802021B
:1001B00002020A0A08080404040401010101010101
:1001C00001010303030303030303040707070C0CE4
:1001D0000C0C0C0C0C0C02020202060606060606AB
:1001E00006060B0B0B0B0B0B0B0B00002200250064
:1001F00028002B002E003100340002010000050110
:1002000008010B0100002100240027002A002D0016
:100210003000330001010000040107010A0130022F
:10022000B406C6093119610211241FBECFEFD1E215
:10023000DEBFCDBF00E00CBF13E0A0E0B2E0EAE516
:10024000FBE300E00BBF02C007900D92A239B1079B
:10025000D9F727E0A2E9B3E001C01D92A430B207AC
:10026000E1F712E0C6E2D2E000E006C02297010901
:10027000FE010BBF0E942D1BCE31D10780E0080785
:10028000A9F70E94EF1A0C949C1DBACECF93DF936E
:10029000CDB7DEB7A1970FB6F894DEBF0FBECDBFC6
:1002A00026E040E855E260E070E083E696E00E94D8
:1002B00069186AE072E083E696E00E94D4196AE366
:1002C00072E083E696E00E94C01960E381E094E06A
:1002D000A9D3811109C066E572E083E696E00E9429
:1002E000C01981E08093B90340E361E085EF93E0BA
:1002F0006BD6811109C060E772E083E696E00E9448
:10030000C01981E08093B90341E065EF73E087EDA8
:1003100093E00E949E1481110EC040E065EF73E0EF
:1003200087ED93E00E949E14811105C08091B9036E
:10033000882309F466C06AE872E083E696E00E94CA
:10034000D41963EA72E0CE014C960E944B1A6C8D70
:100350007D8D81E094E0FED44C8D5D8D23E161E0E4
:1003600074E0CE01019671D48B819C819093A1039E
:100370008093A0038D819E81AF81B8858093A20375
:100380009093A303A093A403B093A50389859A85B2
:10039000AB85BC858093A6039093A703A093A80385
:1003A000B093A9038DE0FE013D96AAEAB3E0019067
:1003B0000D928A95E1F78A8D9B8D9093B803809377
:1003C000B7036EEA72E083E696E00E94C019BE01B0
:1003D000645E7F4F83E696E00E94B21962EC72E0A1
:1003E00083E696E00E94D419CE014C960E94E4194F
:1003F000A1960FB6F894DEBF0FBECDBFDF91CF91AF
:10040000089568EC72E083E696E00E94D41981E0DA
:100410008093B90390CF08950F931F93CF93DF93E9
:100420001F921F92CDB7DEB78C0169837A831AD2EF
:1004300069817A81882341F0C8010E94C419C801EA
:10044000FFD162E373E002C065E373E083E696E008
:100450000F900F90DF91CF911F910F910C94D419B1
:100460001092FA031092FB031092FE031092000404
:1004700082E090E0A0E0B0E08093D7039093D803AF
:10048000A093D903B093DA031092EE031092BD0348
:100490001092BC038EE693E09093BB038093BA0363
:1004A0001092BF038EE993E06BD164E873E088E9B2
:1004B00093E00E944B1A64E873E082E993E00C94A5
:1004C0004B1A82E993E00E94E41988E993E00C94C6
:1004D000E419DF92EF92FF920F931F93CF93DF9374
:1004E000CDB7DEB7A1970FB6F894DEBF0FBECDBF74
:1004F0000CE513E08DE0D82E83E696E00E945A17B3
:10050000892B09F474C083E696E00E947317F82ED5
:10051000682F88E993E00E94BD1A8AE0F812ECCFB8
:1005200064E573E0CE0101960E944B1ABE016F5F35
:100530007F4F88E993E00E94EB1A7C01CE0101967F
:100540000E94E419F7FC4CC062E973E0CE014C96BE
:100550000E94751A8091A0039091A1039C838B83C4
:100560008091A2039091A303A091A403B091A5034D
:100570008D839E83AF83B8878091A6039091A70354
:10058000A091A803B091A90389879A87AB87BC87FC
:100590001A830983EAEAF3E0DE011D968D2D0190AE
:1005A0000D928A95E1F78091B7039091B8039B8FE4
:1005B0008A8FBE01645E7F4FCE0101962DDFCE0192
:1005C0004C960E94E41964E873E088E993E00E9485
:1005D0007D1A64E873E082E993E00E947D1A8CCF73
:1005E00068E973E082E993E00E94601A85CFA196E2
:1005F0000FB6F894DEBF0FBECDBFDF91CF911F9134
:100600000F91FF90EF90DF900895CF93DF931F92AB
:10061000CDB7DEB76983DC01ED91FC910280F381F7
:10062000E02D41E050E0BE016F5F7F4F19950F90C4
:10063000DF91CF910895CF93DF93EC01898D9A8D4F
:10064000009759F0FC01138212820E946C0FE98D11
:10065000FA8D22813381232B31F081E090E09B835E
:100660008A8380E090E0DF91CF910895FC01818D35
:10067000928D009711F00C94DE0C0895CF93DF93C8
:100680001F92CDB7DEB741E050E0BE016F5F7F4FF4
:10069000ABD7019719F4898190E002C08FEF9FEFEB
:1006A0000F90DF91CF910895FC01818D928D00977D
:1006B00009F0E4CF8FEF9FEF08950F931F93CF932F
:1006C000DF938C01FC01818D928D0097B1F0D6DF14
:1006D000EC018F3FFFEF9F0799F0F801818D928D1C
:1006E000FC01428553856485758541505109610936
:1006F00071090E94430CCE0105C080E090E002C069
:100700008FEF9FEFDF91CF911F910F910895CF92BF
:10071000DF92EF92FF920F931F93CF93DF93EC0141
:100720007B016A011B821A8208EE13E020E030E0B0
:100730000C831D832E833F838CE593E0998388830C
:100740008DE190E00E94401B9A8F898F009779F08D
:100750002DE1F701DC0101900D922A95E1F74CE0C3
:1007600050E0B601CE010C960E94731D188EDF91E9
:10077000CF911F910F91FF90EF90DF90CF90089550
:10078000FC011382128248EE53E060E070E0448383
:100790005583668377838CE593E091838083128E03
:1007A000118E14860895DC015996ED91FC915A97AB
:1007B000309729F0628573858485958508956FEF5C
:1007C0007FEFCB010895DC015996ED91FC915A978A
:1007D000309729F06389748985899689089560E046
:1007E00070E0CB010895CF92DF92EF92FF92CF930A
:1007F000DF93EC01898D9A8D892BC9F0CE01E3DF5F
:100800006B017C01CE01CFDFA7019601261B370BC0
:10081000480B590BDA01C901811530E89307A1058E
:10082000B10538F08FEF9FE7A0E0B0E002C080E0B4
:1008300090E0DF91CF91FF90EF90DF90CF900895FF
:10084000CF93DF93EC01898D9A8D009741F00E9440
:10085000230D898D9A8D0E94D81B1A8E198EDF91D7
:10086000CF910895DC015996ED91FC915A973097FC
:1008700021F081E09581911101C080E00895442329
:1008800039F00E94450F91E0811103C090E001C052
:1008900091E0892F0895CF93DF93FB01208131816F
:1008A000FC01E20FF31FE081EF3211F42F5F3F4FA5
:1008B000DA01E0E0F0E0EC01C20FD31FC881CF32D3
:1008C00049F0CC2339F031962F5F3F4FCD93EC3078
:1008D000F10589F7E40FF51F1082FC01E20FF31F09
:1008E00040814F3211F42F5F3F4FFB013183208352
:1008F000FC01E20FF31F81E09081911101C080E0C3
:10090000DF91CF9108954F925F926F927F928F9275
:100910009F92AF92BF92CF92DF92EF92FF920F938E
:100920001F93CF93DF93CDB7DEB7C954D1090FB66C
:10093000F894DEBF0FBECDBF5C016B013A014901E7
:1009400019A218A28EE693E09F8F8E8F1BA21C82A5
:100950001B829A8389831E822A961FAE1EAE2A9717
:100960008B017E018EE1E80EF11C44244394AE011C
:10097000455C5F4FBE01685B7F4FC5018CDF582E21
:10098000482F44259401BE01655C7F4FC801F301E7
:100990001995811108C00C151D0519F0C8010E9498
:1009A000230D80E027C05520B9F021E0AE01455C61
:1009B0005F4FB801C7010E944D0E582E0C151D0542
:1009C00099F0C8010E94230D552059F3902F812FD3
:1009D0008701E92EF82ECBCF0C151D0519F0C801A3
:1009E0000E94230D81E006C08823D9F28E010F5F9B
:1009F0001F4FECCFC75BDF4F0FB6F894DEBF0FBEC3
:100A0000CDBFDF91CF911F910F91FF90EF90DF90BD
:100A1000CF90BF90AF909F908F907F906F905F909E
:100A20004F9008950F931F93CF93DF93EC01462FC0
:100A300061E0CAD2811102C080E01CC08E01045F57
:100A40001F4F41E0BE01C8010E949E14882351F04F
:100A5000B801CE018A9679D591E0811101C090E06C
:100A6000892F08C040E0BE01C8010E949E1488235F
:100A700019F3EECFDF91CF911F910F910895FC01F3
:100A8000DB0112968D919C911397938382838EE65E
:100A900093E09183808314968C91149784831596A8
:100AA0008C911597858316964D915D916D917C91F2
:100AB000199746835783608771871A964D915D9188
:100AC0006D917C911D9742875387648775871E9629
:100AD0004D915D916D917C91519746875787608BC1
:100AE000718B52968C915297828B53964D915D915A
:100AF0006D917C915697438B548B658B768B579673
:100B00004D915D916D917C915A97478B508F618F7C
:100B1000728F5B968D919C915C97948F838F0895D3
:100B20004F925F926F927F928F929F92AF92BF92FD
:100B3000CF92DF92EF92FF920F931F93CF93DF93A9
:100B4000CDB7DEB7C754D1090FB6F894DEBF0FBEDC
:100B5000CDBF6C014A013901665D7F4F5E018EE1B8
:100B6000A80EB11CC5018BDF1C821B828EE693E0B0
:100B70009A8389831E828401FE0131967F015A2C5B
:100B80004B2C6FE270E0C8010E94611D0097D9F103
:100B9000F80120812F3219F40F5F1F4FF2CF801B15
:100BA0008D3008F08CE0A82EB12CA501B801CE0143
:100BB000CB960E94731DEBE3F0E0EC0FFD1FEA0DF6
:100BC000FB1D1082C7013FD721E0AE01455C5F4F9E
:100BD000652D742DC7010E944D0E811109C0F601CB
:100BE000138212828EE693E091838083158214C073
:100BF0000A0D1B1D852D942D26D7C2015E2C4F2C6E
:100C0000E92EF82EBECF08191909F30111830083CC
:100C1000652D742DC60133DFC601C95BDF4F0FB6EA
:100C2000F894DEBF0FBECDBFDF91CF911F910F9122
:100C3000FF90EF90DF90CF90BF90AF909F908F90FC
:100C40007F906F905F904F9008959F92AF92BF9268
:100C5000CF92DF92EF92FF920F931F93CF93DF9388
:100C6000CDB7DEB7C955D1090FB6F894DEBF0FBEB8
:100C7000CDBF7C016B015A01922E9E01285A3F4F35
:100C8000CE01CB964DDF6A960EAD1FAD6A970A0D69
:100C90001B1DF8018081811109C0BE01655C7F4F79
:100CA000CE010196ECDE48E653E03BC019A218A243
:100CB0008EE693E09F8F8E8F1BA221968FAD21979A
:100CC000811103C0C7015CDD31C08250823058F40D
:100CD000B601665D7F4F292DA801CE014E96DDD766
:100CE00081110EC0EFCF292DA801BE01655C7F4F99
:100CF000CE014E96D2D7882329F3CE01CB96A3D628
:100D0000892D867039F049A95AA96BA97CA9CE0111
:100D10004E96B9D5BE01625E7F4FCE010196AFDE21
:100D2000A801BE016F5F7F4FC701F1DCC701C75A41
:100D3000DF4F0FB6F894DEBF0FBECDBFDF91CF916E
:100D40001F910F91FF90EF90DF90CF90BF90AF90E9
:100D50009F900895FB01BC01665D7F4F20E030E06D
:100D60004FE354E0CF01CFCD109206041092070458
:100D700010920A0410920C0482E090E0A0E0B0E02F
:100D800080930D0490930E04A0930F04B09310046D
:100D90001092240410922E0410922D048EE693E0FB
:100DA00090932C0480932B041092300408959FB7E5
:100DB000F8942091580680915606213019F48DBB85
:100DC0009FBF08958FBF089520915806222399F060
:100DD0003FB7F89420915806213059F42DB3209351
:100DE00056064DB320915706209524232DBB3FBFB7
:100DF00002C0309356068CBD9DBD08958EBD000087
:100E00000DB407FEFDCF8EB508958FEFF7CF61E0EB
:100E1000FC0184810E94251780914A04882331F0C7
:100E200010924A04809158068111C1CF0895CF9342
:100E3000DF93EC0180914A04811108C081E0809326
:100E40004A0480914B0490914C04BEDF60E08C8199
:100E5000DF91CF910C942517CF93DF93EC018E8116
:100E6000882379F08F8198859C012F5F3F4F3887C9
:100E70002F838230924010F4C8DFF4CFCE01C7DF59
:100E80001E82DF91CF910895673028F026E1FC01A2
:100E9000258380E00895623081F030F4662359F0B4
:100EA0006130B1F480E515C0643059F040F0653030
:100EB00079F482E50EC080E505C081E503C081E5D7
:100EC00008C082E580934B0481E080934C04089530
:100ED00083E580934B0410924C0481E008950F93B6
:100EE0001F93CF93DF93EB010E942B168B018DDFB5
:100EF0008F3F49F00E942B16601B710B6C177D070A
:100F0000B0F380E001C081E0DF91CF911F910F919C
:100F10000895CF92DF92FF920F931F93CF93DF93A9
:100F200000D01F92CDB7DEB76C01F62E29833A832D
:100F30004B835C8391DFC6017ADF6CE271E0C6010E
:100F4000CEDF8F2D80645ADF08E110E05C814B8199
:100F50003A812981DA01C901002E04C0B695A7950E
:100F6000979587950A94D2F729833A834B835C83BC
:100F700045DF0850110929813A814B815C81083F86
:100F80008FEF180739F7FF2029F0E8E0FE1621F06F
:100F90008FEF03C085E901C087E830DF10E035DF5F
:100FA000F601828787FF04C01F3F11F01F5FF7CF54
:100FB0000F900F900F900F90DF91CF911F910F9195
:100FC000FF90DF90CF900895BF92CF92DF92EF9283
:100FD000FF920F931F93CF93DF93EC01B62E1B86E6
:100FE00019861E821D824C830E942B168B0161E0A4
:100FF0008C810E94EC1661E08C810E9425170E9472
:10100000AF1582E580934B0410924C0480914B0401
:1010100090914C04D9DE2AE0F22E8FEFEFDEFA94A5
:10102000E1F7809158068111C2DECE0100DF20E099
:1010300030E0A90160E0CE016CDFF82E8A8781E004
:10104000F81649F00E942B16601B710B613D77402A
:1010500070F381E046C02AEA31E040E050E068E009
:10106000CE0157DF82FF02C0FB860CC094E0F92E50
:10107000CCDE8A87FA94E1F78A3A11F082E031C037
:1010800082E08B878B85823031F4C12CD12CE12C0E
:1010900080E4F82E03C0C12CD12C760120E030E092
:1010A000A90167E3CE0135DFA701960169E2CE0110
:1010B00030DF8A87882349F00E942B16601B710B52
:1010C000613D774058F388E00CC08B85823001F594
:1010D00020E030E0A9016AE3CE011BDF882379F02C
:1010E00086E08D83CE0193DE80E0DF91CF911F916A
:1010F0000F91FF90EF90DF90CF90BF90089585DE25
:10110000807C803C11F483E08B877FDE7EDE7DDE99
:10111000CE017DDE6B2DCE01DF91CF911F910F911E
:10112000FF90EF90DF90CF90BF90AECE0F931F93C4
:10113000CF93DF93EC010E942B168B0166DE8A872A
:101140008F3F49F40E942B16601B710B6D3271406A
:10115000A8F38FE003C08E3F31F08DE08D83CE0188
:1011600056DE80E001C081E0DF91CF911F910F91A9
:101170000895CF92DF92EF92FF920F931F93CF9338
:10118000DF93EC0169010115110509F45DC0C80187
:10119000820F931F8130924008F058C08E818823BF
:1011A00071F088819981AA81BB81481759076A0724
:1011B0007B0729F48F819885C816D90600F54883E6
:1011C00059836A837B838B85833039F039E0440F00
:1011D000551F661F771F3A95D1F79A01AB0161E160
:1011E000CE0197DE882319F083E08D832FC0CE01D6
:1011F0009DDF882359F118861F8281E08E838F81BD
:1012000098858C159D0538F400DE8F8198850196B0
:1012100098878F83F4CF6701E00EF11ECE14DF04B0
:1012200029F0F3DDF60181936F01F8CF8F81988566
:10123000800F911F98878F832985222319F08115AC
:10124000924010F0CE0108DE81E003C0CE01DFDD68
:1012500080E0DF91CF911F910F91FF90EF90DF9091
:10126000CF900895EF92FF920F931F93790100E0C2
:1012700012E020E030E07DDF1F910F91FF90EF90B2
:101280000895CF92DF92EF92FF920F931F93CF9327
:10129000DF931F921F92CDB7DEB78C01862F498353
:1012A0005A83ACDD4981C42E5A81D52EE12CF12C14
:1012B000F60181916F01A2DDFFEFEF1AFF0AE11441
:1012C00082E0F806A9F78FEF99DD8FEF97DD9DDDBE
:1012D000F80182878F71853031F081E18583C80103
:1012E00096DD80E001C081E00F900F90DF91CF91FB
:1012F0001F910F91FF90EF90DF90CF9008950F9383
:101300001F93CF93DF93EC018901411551056105CE
:10131000710511F482E12DC08B85833039F089E0AD
:10132000440F551F661F771F8A95D1F79A01AB01AD
:1013300068E1CE01EEDD882311F084E01AC0A80137
:101340006EEFCE019EDF8823A9F068E572E0CE0142
:10135000C6DD811102C085E10CC020E030E0A901AA
:101360006DE0CE01D6DD811103C04FDD882331F061
:1013700084E18D83CE014BDD80E003C0CE0147DDEB
:1013800081E0DF91CF911F910F91089580E58093C7
:101390004B0410924C040895CF93DF93EC019C0111
:1013A0002A5F3F4F41E050E060E070E08B8D9C8D04
:1013B0000E9439138823A1F04F89588D698D7A8D49
:1013C000452B462B472B71F44E815F8168857985CB
:1013D0004F8B588F698F7A8F8C8180688C8302C085
:1013E00080E001C081E0DF91CF910895CF92DF923C
:1013F000EF92FF921F93CF93DF93EC01CDDF81112A
:1014000002C080E04AC0EB8DFC8DCE80DF80E88496
:10141000F98482E0C81AD108E108F108058404C003
:10142000CC0CDD1CEE1CFF1C0A94D2F746855785B8
:1014300060897189C40ED51EE61EF71E148181E0F5
:10144000C81AD108E108F108112359F0C701B60103
:10145000610F711D811D911D5AD7882391F2115082
:10146000F3CFEB8DFC8DC12C82E0D82EE12CF12C3A
:10147000058404C0CC0CDD1CEE1CFF1C0A94D2F7C2
:101480004B895C896D897E894C0D5D1D6E1D7F1DAC
:101490004B8B5C8B6D8B7E8B81E0DF91CF911F91AD
:1014A000FF90EF90DF90CF900895CF93DF93EC0102
:1014B000462F6E857F8588899989EFD6882341F0EC
:1014C0008A8920E2829FC00111248A5A9B4F02C060
:1014D00080E090E0DF91CF910895282FFB018BE011
:1014E00030E231938150E9F7A22FB92F20E037E0A5
:1014F0009D91992319F19E3219F0E8E0F1E008C0BE
:101500003A3011F128E03AE0F3CF31964917E1F093
:1015100044914111FACF3217B8F04FED490F4E35D3
:1015200098F441E0420FFB01E20FF11D2FE9290F72
:101530002A3108F490529083242FDACF81E0FB0106
:101540009081903209F480E008950F931F93CF9318
:10155000DF93EC018B018D81882311F080E03FC087
:10156000FB0187898031B1F482E08D831F8A188E58
:10157000198E1A8E408D518D60E070E095E0440F19
:10158000551F661F771F9A95D1F74B8B5C8B6D8B20
:101590007E8B14C0803211F783E08D83FB01428D76
:1015A000538D648D758D4F8B588F698F7A8F9E0107
:1015B0002D5E3F4FC80153D7882381F21C8F0B8FBC
:1015C00081E08C831E821F82188619861A861B86EC
:1015D0001C861D861E861F86188A198A1A8ADF9124
:1015E000CF911F910F9108952F923F924F925F924A
:1015F0006F927F928F929F92AF92BF92CF92DF9223
:10160000EF92FF920F931F93CF93DF93EC016B0147
:101610005A018D81811103C08FEF9FEFD7C08C815C
:1016200080FFFACF4B895C896D897E898A859B858D
:10163000AC85BD852501612C712C8A019B01081B9D
:10164000190B2A0B3B0B041515052605370518F455
:101650005A01A81AB90A25011E0126E0220E311CE2
:101660004114510409F47AC04A855B856C857D85F7
:101670004A0181E09822ED818A019B01F9E03695CB
:10168000279517950795FA95D1F78B8D9C8DE230AC
:1016900051F4FC01628D738D848D958D600F711FE7
:1016A000821F931F3DC0FC0174807A9470228114C4
:1016B0009104C1F4711016C0452B462B472B49F4F9
:1016C0008F89988DA98DBA8D8E839F83A887B987BE
:1016D00009C04E815F816885798591013DD6882357
:1016E00009F49ACFEB8DFC8D6E817F818885998579
:1016F0006250710981099109058404C0660F771F42
:10170000881F991F0A94D2F7068517852089318989
:10171000600F711F821F931F670D711D811D911D29
:1017200020E032E02819390932012415350508F482
:1017300039012C8126FD04C06114F2E07F0699F581
:1017400000910602109107022091080230910902CF
:10175000601771078207930719F425C0C50136C0C9
:10176000760183019401AB01BC01809154049091F6
:101770005504FFDC882309F44FCFC60CD71C04C0E6
:10178000E81BF90BCE0EDF1E8A859B85AC85BD85D7
:10179000860D971DA11DB11D8A879B87AC87BD87CC
:1017A000461857085DCF40E078D5882309F434CF38
:1017B000C4018A5A9B4FD6019C01260D371DFC019E
:1017C000E217F307E9F241914D93FACFDF91CF9100
:1017D0001F910F91FF90EF90DF90CF90BF90AF904F
:1017E0009F908F907F906F905F904F903F902F9041
:1017F0000895FF920F931F93CF93DF931F92CDB75E
:10180000DEB78C01FC018581823018F480E090E025
:1018100033C0F8014285538564857585A5E07695CA
:10182000679557954795AA95D1F7F42FFF70FF2E2E
:1018300041E050E0BE016F5F7F4FC801D5DE0197E8
:1018400019F4298130E002C02FEF3FEF2F3F3F4FC7
:10185000E9F2F8014285538564857585415E5F4FE5
:101860006F4F7F4F4287538764877587F0E2FF9EF3
:10187000C00111248A5A9B4F0F90DF91CF911F9185
:101880000F91FF9008954F925F926F927F92AF9267
:10189000BF92CF92DF92EF92FF920F931F93CF935D
:1018A000DF93EC016A017B012D81222309F456C0EC
:1018B0008B899C89AD89BE8984179507A607B707D0
:1018C00008F44CC04DC08A859B85AC85BD85EB8DE9
:1018D000FC8DE585F0E03996AC01BD014150510920
:1018E000610971090E2E04C0769567955795479545
:1018F0000A94D2F797018601015011092109310993
:1019000004C03695279517950795EA95D2F70417E1
:10191000150726073707A8F58F89988DA98DBA8DE9
:101920008E839F83A887B987280139015E0186E0ED
:10193000A80EB11C411451046104710459F14E8187
:101940005F816885798595018B8D9C8D05D591E0AA
:10195000491A5108610871088111ECCF80E01FC05D
:101960002230C1F0C114D104E104F10409F0ABCF7D
:101970001E821F82188619861A861B861C861D8663
:101980000DC0892B8A2B8B2B39F2041B150B260BD0
:10199000370BCACFCA86DB86EC86FD8681E0DF91F5
:1019A000CF911F910F91FF90EF90DF90CF90BF905C
:1019B000AF907F906F905F904F9008950F931F931B
:1019C000CF93DF93EC018D818823B9F18C8187FF60
:1019D0002FC061E0CE0169DD8C01009771F18D812E
:1019E000823048F44B895C896D897E89F801448F87
:1019F000558F668F778F4F89588D698D7A8DF80155
:101A0000538F428F758B648BE0914D04F0914E049F
:101A1000309759F0B8016A5E7F4FC8014896199512
:101A2000F801808D918D938B828B8C818F778C8345
:101A3000DF91CF911F910F91F7C380E0DF91CF919C
:101A40001F910F910895CF93DF93EC01B7DF8823A7
:101A500019F01D8281E001C080E0DF91CF910895EF
:101A60004F925F926F927F92AF92BF92CF92DF922E
:101A7000EF92FF920F931F93CF93DF9300D01F92AB
:101A8000CDB7DEB75C016A017B01FC018581813045
:101A9000E9F4848181FF1AC0F50183899489A589BD
:101AA000B68984179507A607B70780F0892B8A2B7C
:101AB0008B2B09F472C0F5014284538464847584CD
:101AC000B701A601C501DFDE811102C080E066C05A
:101AD000F501838D948DC114D104E104F10469F4FE
:101AE0004789508D618D728DD5D6882379F3F501A4
:101AF000178A108E118E128E37C0F50146815781DC
:101B0000608571859E012F5F3F4F26D48823F1F2B7
:101B100049815A816B817C81F501838D948DFC0113
:101B20002789203129F408EF1FEF20E030E004C0BE
:101B300008EF1FEF2FEF3FE04017510762077307D1
:101B400098F4A8D6882309F4C1CFF50146815781BE
:101B5000608571850FEF1FEF2FEF3FE0838D948D30
:101B6000E8D4882309F4B2CFF501C38AD48AE58A80
:101B7000F68A848180688483C50120DF882309F484
:101B8000A5CFB701A6014C145D046E047F0410F4C8
:101B9000B301A201C50177DE01C081E00F900F9073
:101BA0000F900F90DF91CF911F910F91FF90EF90C9
:101BB000DF90CF90BF90AF907F906F905F904F90ED
:101BC0000895FF920F931F93CF93DF93EC01F42EB0
:101BD00080E2689FF0011124EA5AFB4F83858171EE
:101BE00029F0842F827411F080E051C06A8B8091BB
:101BF000060290910702A0910802B09109028E8717
:101C00009F87A88BB98B4489558960E070E0BA0141
:101C100055274427028D138D20E030E0402B512BB7
:101C2000622B732B4F8B588F698F7A8F83858871C6
:101C300051F4048D158D268D378D0B8B1C8B2D8BC0
:101C40003E8B81E00BC0803179F69E012D5E3F4FC7
:101C50008B8D9C8D04D4882339F284E08D838F2D65
:101C60008F708C831E821F82188619861A861B86A7
:101C70001C861D86F6FE0AC040E050E0BA01CE0187
:101C8000DF91CF911F910F91FF90EACE81E0DF911C
:101C9000CF911F910F91FF900895AF92BF92CF9275
:101CA000DF92EF92FF920F931F93CF93DF93CDB705
:101CB000DEB72B970FB6F894DEBF0FBECDBF7C0109
:101CC0006B01CA01B22EF70125812111B3C0BE01FB
:101CD0006F5F7F4F02DC882309F4ACC0F601838D6F
:101CE000948DF701948F838FF601168217821086E8
:101CF00011861286138614861586A12CF60102859C
:101D000013852485358583899489A589B689081723
:101D100019072A073B07E0F545E036952795179503
:101D200007954A95D1F70F70C60163DD009709F456
:101D300081C0FC012081222311F0253EB9F4A110BD
:101D40000EC0F701028B409106025091070260918C
:101D500008027091090246875787608B718BFC01DE
:101D60008081AA24A3948111C9CF12C04BE050E016
:101D7000BC01CE0101960E944B1D892B09F0BECFFC
:101D80008B2D8073803309F455C04B2D602F4FC0CD
:101D90008B2D8271823109F04DC0AA2039F061E0AB
:101DA000C70183DB8C01009771F444C0F601858183
:101DB000823009F43FC0C60119DB8823D9F1F7014D
:101DC000128A06E514E080E2F80111928A95E9F79B
:101DD0008BE0FE013196D80101900D928A95E1F7D2
:101DE000E0914D04F0914E04309739F0B801625FF4
:101DF0007F4FC8014096199509C081E298E2F80129
:101E0000918B808B80E098E097878687F8018089A6
:101E10009189938B828B918F808F86859785978B05
:101E2000868B02D2882331F04B2DF7016289C701DE
:101E3000C8DE01C080E02B960FB6F894DEBF0FBE5F
:101E4000CDBFDF91CF911F910F91FF90EF90DF9069
:101E5000CF90BF90AF900895CF93DF93EC0140E017
:101E600050E0BA01FDDD882361F061E0CE011DDBA9
:101E7000009739F025EEFC0120831D82DF91CF9180
:101E8000D3C180E0DF91CF910895CF93DF93CDB799
:101E9000DEB76D970FB6F894DEBF0FBECDBFAB01B6
:101EA0001C821B822EE633E03A8329831E8222E0C5
:101EB000BC01CE010196F1DE882321F0CE0101960E
:101EC000CBDF01C080E06D960FB6F894DEBF0FBE89
:101ED000CDBFDF91CF9108952F923F924F925F92A5
:101EE0006F927F928F929F92AF92BF92CF92DF922A
:101EF000EF92FF920F931F93CF93DF9300D01F9227
:101F00001F92CDB7DEB78C017B013A01DC0115963B
:101F10008C9115978130C1F414968C9181FF14C077
:101F200082FF1AC0F80143895489658976898285C0
:101F30009385A485B58584179507A607B70761F033
:101F4000C801A1DC811108C081E090E0F801938311
:101F5000828380E090E040C163017FC0D8015B963E
:101F60008D919C915C97FC01F481F150B501A40125
:101F700029E076956795579547952A95D1F7F423EB
:101F8000FD8321E09222FF2309F473C080E092E0F8
:101F90008819990956018C159D0508F45C01D80132
:101FA0005B96ED91FC915C9716962D903D904D902F
:101FB0005C901997B2E02B1A31084108510805844A
:101FC00004C0220C331C441C551C0A94D2F786858D
:101FD0009785A089B189280E391E4A1E5B1EED81A6
:101FE0002E0E311C411C511CA114F2E0BF0609F059
:101FF00085C08091060290910702A0910802B091DD
:10200000090282159305A405B50559F48FEF9FEFDA
:10201000DC018093060290930702A0930802B0931C
:1020200009029701B201A1018091540490915504D5
:1020300066D9882309F488CF9EEFF91ACA18DB08FD
:10204000F80182859385A485B5858A0D9B1DA11D08
:10205000B11D82879387A487B587D8011A968D9082
:102060009D90AD90BC901D97C114D10409F076CF1E
:1020700086C08114910409F089CF16964D915D9127
:102080006D917C911997411551056105710559F4C0
:1020900057968D919D910D90BC91A02D0097A10513
:1020A000B10531F520C09E012F5F3F4F55D18823E8
:1020B00009F450CF89819A81AB81BC81F801238DCD
:1020C000348DF9012789203129F448EF5FEF60E072
:1020D00070E004C048EF5FEF6FEF7FE08417950773
:1020E000A607B70728F0C80157D981114FCF2CCFC9
:1020F000F80186839783A087B18748CF8114910424
:1021000021F5D8011A964D915D916D917C911D97A5
:1021100053968D919D910D90BC91A02D4817590714
:102120006A077B0790F080D0882309F40DCF2092B6
:1021300006023092070240920802509209028091F2
:10214000530481608093530407C041E0C201B10190
:10215000A4D0882309F4F8CEC4018A5A9B4FD70132
:102160009C012A0D3B1DFC01E217F30719F04D916C
:102170004193FACFE81BF90BEE0EFF1E5FCF53968B
:102180008D919D910D90BC91A02DF8012481881511
:102190009905AA05BB0538F4838A948AA58AB68A6C
:1021A000206824830CC080914D0490914E04892BAB
:1021B00031F06114710419F02068F8012483D8010A
:1021C00014968C9183FD02C0C30106C0C801F6DBE2
:1021D000882309F4B9CEF8CF0F900F900F900F908D
:1021E0000F90DF91CF911F910F91FF90EF90DF90B3
:1021F000CF90BF90AF909F908F907F906F905F90A7
:102200004F903F902F900895CF93DF931F92CDB7BB
:10221000DEB7698341E050E0BE016F5F7F4F5CDE57
:102220000F90DF91CF91089580915304882389F115
:1022300040910602509107026091080270910902D4
:1022400026E534E0809154049091550458D88823B1
:1022500011F140914F0450915004609151047091DC
:102260005204411551056105710589F026E534E0F8
:10227000809154049091550442D8882361F01092C3
:102280004F04109250041092510410925204109274
:10229000530481E0089580E00895CF92DF92EF9299
:1022A000FF92CF936B017C01C42F80910602909125
:1022B0000702A0910802B09109028C159D05AE0598
:1022C000BF05C9F0B1DF811102C080E01AC026E568
:1022D00034E0B701A60180915404909155040E9406
:1022E0003209882391F3C0920602D0920702E0924D
:1022F0000802F0920902809153048C2B80935304BE
:1023000081E0CF91FF90EF90DF90CF900895CF9232
:10231000DF92EF92FF926B017C0186DF8823B1F0A0
:10232000E6E5F4E0119286E0E635F807D9F7C092C9
:102330000602D0920702E0920802F0920902809110
:10234000530481608093530481E001C080E0FF90DA
:10235000EF90DF90CF9008958F929F92AF92BF92AF
:10236000CF92DF92EF92FF920F931F93CF93DF9361
:102370008C016A017B01E901FC0181859285A385BD
:10238000B4850196A11DB11D84179507A607B7074F
:1023900010F480E057C0F801438954896589768933
:1023A0008789803129F4BB27AF2D9E2D8D2D09C043
:1023B000D701C60127E0B695A795979587952A95E9
:1023C000D1F74C015D01840E951EA61EB71EC501F6
:1023D000B4018090060290900702A0900802B0908D
:1023E0000902681579058A059B0589F4F801878932
:1023F000803191F4DD24EE24FF24F601EE0FFF1F5F
:10240000EA5AFB4F80819181A0E0B0E016C040E025
:1024100044DF8111EBCFBDCFE894C7F8DD24EE2473
:10242000FF24F601EE0FFF1FEE0FFF1FEA5AFB4FCE
:1024300080819181A281B381BF7088839983AA83AF
:10244000BB8381E0DF91CF911F910F91FF90EF90BF
:10245000DF90CF90BF90AF909F908F9008954F9254
:102460005F926F927F92AF92BF92CF92DF92EF9284
:10247000FF920F931F93CF93DF9300D01F92CDB79E
:10248000DEB78C0149835A836B837C835901C12C4D
:10249000D12C7601412C42E0542E612C712C4981C3
:1024A0005A816B817C819E012F5F3F4FC80154DFB1
:1024B000882359F1D301C201F801058404C0880FB3
:1024C000991FAA1FBB1F0A94D2F7C80ED91EEA1E75
:1024D000FB1E49815A816B817C818789803129F477
:1024E00088EF9FEFA0E0B0E004C088EF9FEFAFEF70
:1024F000BFE0481759076A077B0788F2F501C082D9
:10250000D182E282F38281E001C080E00F900F90DF
:102510000F900F90DF91CF911F910F91FF90EF904F
:10252000DF90CF90BF90AF907F906F905F904F9073
:1025300008954F925F926F927F928F929F92AF9287
:10254000BF92CF92DF92EF92FF920F931F93CF93A0
:10255000DF93EC016A017B0128013901423051050A
:102560006105710508F473C049855A856B857C85C2
:102570004F5F5F4F6F4F7F4F4C155D056E057F05B9
:1025800008F465C08B889C88AD88BE888F898031AF
:1025900029F477276F2D5E2D4D2D09C0B701A601B7
:1025A000E7E07695679557954795EA95D1F7840EBC
:1025B000951EA61EB71E409106025091070260911B
:1025C00008027091090284169506A606B70671F4F2
:1025D0008F89803191F4DD24EE24FF24F601EE0F83
:1025E000FF1FEA5AFB4F5182408217C040E0C501ED
:1025F000B40153DE8111ECCF2AC0E894C7F8DD2482
:10260000EE24FF24F601EE0FFF1FEE0FFF1FEA5A24
:10261000FB4F4082518262827382809153048160B9
:10262000809353048A89823080F08D819E81AF81AE
:10263000B885880D991DAA1DBB1D80934F049093EA
:102640005004A0935104B093520481E001C080E093
:10265000DF91CF911F910F91FF90EF90DF90CF907E
:10266000BF90AF909F908F907F906F905F904F90B2
:1026700008952F923F924F925F926F927F929F9216
:10268000AF92BF92CF92DF92EF92FF920F931F9380
:10269000CF93DF93CDB7DEB760970FB6F894DEBF68
:1026A0000FBECDBF5C014D875E876F87788B1901A8
:1026B000D9014D905D906D907C904114510461045E
:1026C000710431F0BFEF4B1A5B0A6B0A7B0A10C032
:1026D000FC014080518062807380992493940D8521
:1026E0001E852F853889013011052105310509F036
:1026F000912CD50119962D913D914D915C911C978E
:102700002F5F3F4F4F4F5F4F29873A874B875C873B
:10271000730162011D821E821F821886F501818568
:102720009285A385B4850D811E812F813885081778
:1027300019072A073B0708F054C029853A854B85BD
:102740005C852C153D054E055F0550F4A2E0CA2EB0
:10275000D12CE12CF12CB2E04B2E512C612C712CA0
:102760009E012F5F3F4FB701A601C501F5DD88230C
:10277000C1F149815A816B817C81D701C6010196E3
:10278000A11DB11D452B462B472B19F02C013D01F6
:102790000FC0AC01BD0144195509660977090D85C3
:1027A0001E852F853889401751076207730779F016
:1027B0002D813E814F8158852F5F3F4F4F4F5F4F97
:1027C0002D833E834F8358876C017D01A7CF0FEF88
:1027D0001FEF2FEF3FE0B701A601C501AADE81116F
:1027E00017C080E03FC0D701C6010197A109B10918
:1027F0008D839E83AF83B88797018601AC01BD01AD
:10280000C50197DE882369F3CD80DE80EF80F884F0
:102810004C145D046E047F0430F3D1014D915D9141
:102820006D917C91411551056105710599F4F10196
:102830004082518262827382992099F0FFEF4F1A91
:102840005F0A6F0A7F0AD5014D925D926D927C926C
:10285000139707C093018201C5016BDE8111E7CF99
:10286000C0CF81E060960FB6F894DEBF0FBECDBF3B
:10287000DF91CF911F910F91FF90EF90DF90CF905C
:10288000BF90AF909F907F906F905F904F903F90E0
:102890002F900895AF92BF92CF92DF92EF92FF9266
:1028A0000F931F93CF93DF9300D01F92CDB7DEB766
:1028B0005C016A017B0182E090E0A0E0B0E0F501FC
:1028C00080839183A283B3839E012F5F3F4FB70123
:1028D000A601C50141DD882309F100E010E098015F
:1028E000B701A601C50125DE8823C1F0C980DA80C1
:1028F000EB80FC80F5018789803129F488EF9FEF18
:10290000A0E0B0E004C088EF9FEFAFEFBFE0C816D3
:10291000D906EA06FB06C0F281E001C080E00F9014
:102920000F900F900F90DF91CF911F910F91FF901B
:10293000EF90DF90CF90BF90AF9008958F929F92CD
:10294000AF92BF92CF92DF92EF92FF920F931F93BD
:10295000CF93DF93EC01142F7093550460935404CC
:10296000442339F1453010F080E0ECC040E060E0F5
:1029700070E0CB0192DC8823B9F320E1129FF001D3
:102980001124EC5FF94F80818F7771F784859585ED
:10299000A685B78584369105A105B10528F3C084C5
:1029A000D184E284F384C114D104E104F10421F45C
:1029B000DBCFC12CD12C760140E0C701B6016DDC24
:1029C000882391F280916104909162048115924074
:1029D00059F630916604332339F280916404909162
:1029E0006504892B09F4C0CF20916304222309F4E4
:1029F000BBCF3A8B2C831D8630E041E050E06D85E3
:102A0000062FCA01062E02C0880F991F0A94E2F70A
:102A10002817390731F081E0860F8D87683078F309
:102A2000A3CF20916C0430916D042115310519F06C
:102A300040E050E008C020917A0430917B0440913E
:102A40007C0450917D042D833E834F835887809171
:102A500064049091650446015701880E991EA11CDB
:102A6000B11C8B8A9C8AAD8ABE8AE0916704F09182
:102A70006804F98FE88FA0916604B0E0E4D5680D92
:102A8000791D8A1D9B1D6A8F7B8F8C8F9D8F15E012
:102A9000EE0FFF1F1A95E1F7E150FE4FEF2FFF27D2
:102AA000E695DC01CB018E0F9F1FA11DB11D8E8706
:102AB0009F87A88BB98B8090690490906A048114D9
:102AC000910419F0A12CB12C08C08090760490904C
:102AD0007704A0907804B0907904A7019601281B90
:102AE000390B4A0B5B0BDA01C901880D991DAA1D30
:102AF000BB1D04C0B695A795979587950A95D2F703
:102B000089879A87AB87BC87853F3FE09307A105FC
:102B1000B10510F48CE014C0853F9F4FA105B105AD
:102B200010F480E10DC08091820490918304A09103
:102B30008404B09185048A8F9B8FAC8FBD8F80E217
:102B40008F8B81E0DF91CF911F910F91FF90EF90DC
:102B5000DF90CF90BF90AF909F908F900895CF93CC
:102B6000CFB7F89480915906811123C0E9EDF1E0C7
:102B70008491E3E9F1E09491E82FF0E0EE0FFF1F7C
:102B8000EC5FFD4FA591B4918C91892319F461E01C
:102B900085E35BD161E085E31FD18CB580618CBD9D
:102BA0008CB580648CBD61E084E316D161E083E381
:102BB00013D1809159068F5F80935906CFBFCF9173
:102BC00008951F920F920FB60F9211242F933F93E7
:102BD0008F939F93AF93BF9380915B0690915C0618
:102BE000A0915D06B0915E0630915A0623E0230F56
:102BF0002D3720F40196A11DB11D05C026E8230F35
:102C00000296A11DB11D20935A0680935B069093F6
:102C10005C06A0935D06B0935E0680915F0690917E
:102C20006006A0916106B09162060196A11DB11DDA
:102C300080935F0690936006A0936106B09362064E
:102C4000BF91AF919F918F913F912F910F900FBEA8
:102C50000F901F9018952FB7F89460915B067091B4
:102C60005C0680915D0690915E062FBF0895789472
:102C700084B5826084BD84B5816084BD85B5826081
:102C800085BD85B5816085BDEEE6F0E0808181601F
:102C90008083E1E8F0E0108280818260808380811F
:102CA00081608083E0E8F0E0808181608083E1EBF7
:102CB000F0E0808184608083E0EBF0E080818160DF
:102CC0008083E1E9F0E0808182608083808181609F
:102CD0008083E0E9F0E0808181608083E1EAF0E0D8
:102CE000808182608083808181608083E0EAF0E07F
:102CF000808181608083E1E2F1E080818260808375
:102D0000808181608083E0E2F1E080818160808366
:102D1000EAE7F0E080818460808380818260808344
:102D20008081816080838081806880831092C1006F
:102D3000089590E0FC013197E231F10508F04BC0B5
:102D4000EE58FF4F7AC4809180008F7703C0809146
:102D500080008F7D80938000089580918000877F20
:102D6000F9CF84B58F7702C084B58F7D84BD089577
:102D70008091B0008F7703C08091B0008F7D8093E9
:102D8000B0000895809190008F7707C080919000E7
:102D90008F7D03C080919000877F8093900008957D
:102DA0008091A0008F7707C08091A0008F7D03C025
:102DB0008091A000877F8093A000089580912001DA
:102DC0008F7707C0809120018F7D03C08091200103
:102DD000877F809320010895CF93DF9390E0FC01DB
:102DE000E25AFE4F2491FC01EC55FE4F849188235A
:102DF00049F190E0880F991FFC01EC5FFD4FA59110
:102E0000B49186519E4FFC01C591D4919FB7611139
:102E100008C0F8948C91209582238C93888182231A
:102E20000AC0623051F4F8948C91322F309583238C
:102E30008C938881822B888304C0F8948C91822B98
:102E40008C939FBFDF91CF9108950F931F93CF93E2
:102E5000DF931F92CDB7DEB7282F30E0F901E85E8F
:102E6000FE4F8491F901E25AFE4F1491F901EC559D
:102E7000FE4F04910023C1F0882319F0698359DFC4
:102E80006981E02FF0E0EE0FFF1FE651FE4FA591A4
:102E9000B4919FB7F8948C91611103C01095812370
:102EA00001C0812B8C939FBF0F90DF91CF911F9119
:102EB0000F910895FC01818D228D90E0805C9F4FE1
:102EC000821B91098F7399270895FC01918D828D42
:102ED000981731F0828DE80FF11D858D90E00895EF
:102EE0008FEF9FEF0895FC01918D828D981761F00F
:102EF000828DDF01A80FB11D5D968C91928D9F5F31
:102F00009F73928F90E008958FEF9FEF089588E26E
:102F100099E1892B39F089E692E0892B19F098D153
:102F2000811125C080E090E0892B41F080E090E0A5
:102F3000892B21F00E94000081111CC080E090E0EC
:102F4000892B41F080E090E0892B21F00E94000065
:102F5000811113C080E090E0892BA1F080E090E027
:102F6000892B81F00E94000081110AC008950E94FF
:102F70006902D8CF0E940000E1CF0E940000EACF92
:102F80000C9400000895FC01848DDF01A80FB11D91
:102F9000A35ABF4F2C91848D90E001968F7399278F
:102FA000848FA689B7892C93A089B1898C9180647C
:102FB0008C93938D848D981306C00288F389E02D3D
:102FC00080818F7D80830895CF93DF93EC01888D7E
:102FD0008823C1F0EA89FB89808185FD05C0A88925
:102FE000B9898C9186FD0EC00FB607FCF5CF8081A4
:102FF00085FFF2CFA889B9898C9185FFEDCFCE01ED
:10300000C2DFE8CFDF91CF910895CF92DF92FF9298
:103010000F931F93CF93DF931F92CDB7DEB76C0151
:1030200081E0D60158968C9358975B969C915B975C
:103030005C968C915C97981307C05096ED91FC912B
:103040005197808185FD2DC0F601038D10E00F5F43
:103050001F4F0F731127F02EF601848DF81210C048
:103060000FB607FCF9CFD6015096ED91FC91519720
:10307000808185FFF1CFC601698385DF6981ECCF4F
:10308000838DE80FF11DE35AFF4F6083D6015B96F5
:103090000C935B975296ED91FC91539780818062DF
:1030A0000CC0D6015696ED91FC91579760835096CF
:1030B000ED91FC91519780818064808381E090E064
:1030C0000F90DF91CF911F910F91FF90DF90CF90E4
:1030D0000895BF92CF92DF92EF92FF92CF93DF934A
:1030E000EC016A017B01B22EE889F98982E08083D4
:1030F000411581EE58076105710599F060E079E0AE
:103100008DE390E0A701960176D221503109410963
:1031100051095695479537952795211580E1380730
:1031200090F0E889F989108260E874E88EE190E017
:10313000A701960160D221503109410951095695E4
:10314000479537952795EC85FD853083EE85FF857E
:103150002083188EEC89FD89B082EA89FB89808101
:1031600080618083EA89FB89808188608083EA8925
:10317000FB89808180688083EA89FB8980818F7DDB
:103180008083DF91CF91FF90EF90DF90CF90BF9041
:1031900008951F920F920FB60F9211240BB60F9243
:1031A0002F938F939F93EF93FF93E0917306F0918A
:1031B00074068081E0917906F0917A0682FD12C052
:1031C000908180917C068F5F8F7320917D0682179E
:1031D00051F0E0917C06F0E0ED59F94F958F809326
:1031E0007C0601C08081FF91EF919F918F912F917B
:1031F0000F900BBE0F900FBE0F901F9018951F924F
:103200000F920FB60F9211240BB60F922F933F938C
:103210004F935F936F937F938F939F93AF93BF93DE
:10322000EF93FF9383E696E0AEDEFF91EF91BF91BF
:10323000AF919F918F917F916F915F914F913F914E
:103240002F910F900BBE0F900FBE0F901F901895EF
:1032500083E696E02FDE21E0892B09F420E0822F1F
:103260000895109266061092650688EE93E0A0E03D
:10327000B0E08093670690936806A0936906B093C8
:103280006A0686E793E0909364068093630685EC74
:1032900090E09093700680936F0684EC90E090939A
:1032A00072068093710680EC90E090937406809390
:1032B000730681EC90E0909376068093750682EC1D
:1032C00090E0909378068093770686EC90E0909358
:1032D0007A068093790610927C0610927D061092F1
:1032E0007E0610927F060895CF92DF92EF92FF92B2
:1032F0000F931F93CF93DF937C016A01EB0100E0F2
:1033000010E00C151D0571F06991D701ED91FC914C
:103310000190F081E02DC7011995892B19F00F5FFD
:103320001F4FEFCFC801DF91CF911F910F91FF90F9
:10333000EF90DF90CF9008956115710581F0DB016A
:103340000D900020E9F7AD0141505109461B570B84
:10335000DC01ED91FC910280F381E02D199480E075
:1033600090E00895DC01ED91FC91DB0114964D9104
:103370005C9115976D917C910280F381E02D1994F9
:10338000DBCF62E873E0D8CF0F931F93CF93DF9327
:10339000EC01E8DF8C01CE01F4DF800F911FDF919B
:1033A000CF911F910F9108950F931F93CF93DF93A8
:1033B000EC01C2DF8C01CE01E4DF800F911FDF91B1
:1033C000CF911F910F910895FC0180819181F0C1EF
:1033D000CF93DF93EC0188819981009709F0E8D1C0
:1033E000198218821D821C821B821A82DF91CF9162
:1033F00008950F931F93CF93DF93EC018B016F5FC1
:103400007F4F8881998163D2009731F099838883B7
:103410001B830A8381E001C080E0DF91CF911F917F
:103420000F910895CF93DF93EC0188819981892BC7
:1034300029F08A819B818617970758F4CE01D9DF3E
:10344000882341F08C819D81892B19F4E881F981D1
:10345000108281E0DF91CF910895EF92FF920F9358
:103460001F93CF93DF93EC017B018A01BA01DADF6E
:10347000811103C0CE01ACDF06C01D830C83B701F0
:103480008881998129D3CE01DF91CF911F910F912E
:10349000FF90EF900895FC01118210821382128236
:1034A000158214826115710551F0FB010190002015
:1034B000E9F7AF0141505109461B570BCECF089594
:1034C000CF93DF93EC01FB018617970751F06081E2
:1034D00071816115710521F044815581BEDF01C004
:1034E00077DFCE01DF91CF910895FC011182108228
:1034F0001382128215821482E3CFCF93DF93EC0103
:103500006115710559F0FB0101900020E9F7AF0149
:1035100041505109461B570BA0DF01C059DFCE01B6
:10352000DF91CF910895EF92FF920F931F93CF9366
:10353000DF93EC017B010C811D816115710511F494
:1035400080E014C04115510581F0040F151FB8012A
:1035500069DF8823A9F3288139818C819D81B70196
:10356000820F931FB9D21D830C8381E0DF91CF912D
:103570001F910F91FF90EF900895CF93DF931F92CB
:103580001F92CDB7DEB769831A8241E050E0BE01D9
:103590006F5F7F4FC8DF0F900F90DF91CF9108953D
:1035A000CF93DF93FC01848195814817590770F40C
:1035B000C081D181FB0160817181CE01840F951F93
:1035C000A1D2009719F08C1B9D0B02C08FEF9FEFCB
:1035D000DF91CF91089540E050E0E2CF089547DBBE
:1035E000FDDF0E944601C7E8D7E10E940B02209749
:1035F000E1F38DDCFACFA1E21A2EAA1BBB1BFD0161
:103600000DC0AA1FBB1FEE1FFF1FA217B307E407C1
:10361000F50720F0A21BB30BE40BF50B661F771F19
:10362000881F991F1A9469F76095709580959095F9
:103630009B01AC01BD01CF010895EE0FFF1F059066
:10364000F491E02D19940DD0A59F900DB49F900D8D
:10365000A49F800D911D112408950790F691E02DEF
:103660001994A29FB001B39FC001A39F700D811D4B
:103670001124911DB29F700D811D1124911D08957B
:10368000CF93DF938230910510F482E090E0E091D7
:103690000207F091030720E030E0A0E0B0E03097AF
:1036A00039F14081518148175907B8F04817590737
:1036B00071F482819381109729F013969C938E93D5
:1036C00012972CC0909303078093020727C02115FF
:1036D000310531F04217530718F0A901DB0101C091
:1036E000EF019A01BD01DF010280F381E02DD7CF08
:1036F00021153105F9F0281B390B2430310580F4F0
:103700008A819B816115710521F0FB01938382837E
:1037100004C09093030780930207FE01329644C0D1
:10372000FE01E20FF31F81939193225031093983F7
:1037300028833AC02091000730910107232B41F4E0
:103740002091020230910302309301072093000779
:1037500020910002309101022115310541F42DB76D
:103760003EB74091040250910502241B350BE091B5
:103770000007F0910107E217F307A0F42E1B3F0B9F
:103780002817390778F0AC014E5F5F4F24173507D3
:1037900048F04E0F5F1F509301074093000781933D
:1037A000919302C0E0E0F0E0CF01DF91CF91089566
:1037B000CF93DF93009709F487C0FC0132971382FF
:1037C0001282C0910207D0910307209781F42081D3
:1037D0003181280F391F80910007909101078217CE
:1037E000930779F5F0930107E09300076DC0DE01C0
:1037F00020E030E0AE17BF0750F412964D915C9177
:1038000013979D014115510509F1DA01F3CFB383F7
:10381000A28340815181840F951F8A179B0771F401
:103820008D919C911197840F951F029691838083AF
:1038300012968D919C911397938382832115310564
:1038400029F4F0930307E09302073EC0D9011396D1
:10385000FC93EE9312974D915D91A40FB51FEA175B
:10386000FB0779F480819181840F951F0296D9011D
:1038700011969C938E938281938113969C938E9341
:103880001297E0E0F0E08A819B81009719F0FE0139
:10389000EC01F9CFCE01029628813981820F931F66
:1038A00020910007309101072817390769F43097F4
:1038B00029F4109203071092020702C013821282A9
:1038C000D0930107C0930007DF91CF9108956F92C5
:1038D0007F928F929F92AF92BF92CF92DF92EF92A0
:1038E000FF920F931F93CF93DF93EC01CB012097AF
:1038F00079F4DF91CF911F910F91FF90EF90DF90BE
:10390000CF90BF90AF909F908F907F906F90B8CEE8
:10391000FE01E60FF71F9E0122503109E217F3075F
:1039200008F4A8C0D9010D911C911197061717072B
:10393000B0F00530110508F49BC0A80144505109AE
:103940004617570708F494C002501109061B170BBD
:10395000019311936D937C93CF012ADF89C05B01A2
:10396000A01AB10A4E01800E911EA0910207B091DB
:103970000307612C712C60E070E0109709F449C0D6
:10398000A815B905C9F5ED90FC901197670142E0C3
:10399000C40ED11CCA14DB0478F147018A189B08B5
:1039A000640142E0C40ED11C1296BC90129713968B
:1039B000AC91B5E0CB16D10440F0B282A3839182E2
:1039C0008082D9018D939C9309C00E5F1F4F0E0D0D
:1039D0001F1DF90111830083EB2DFA2F611571056D
:1039E00031F0DB011396FC93EE93129741C0F093F4
:1039F0000307E09302073CC06D917C911197661616
:103A0000770608F43B01BD0112960D90BC91A02DE4
:103A1000B4CF609100077091010768157905E9F44A
:103A200068167906D0F440910002509101024115C8
:103A3000510541F44DB75EB76091040270910502E3
:103A4000461B570BE417F507A8F4F0930107E09322
:103A50000007F901918380830BC012DE7C0100977F
:103A600049F0A801BE0124D0CE01A2DEC70104C0E6
:103A7000CE0102C080E090E0DF91CF911F910F91C5
:103A8000FF90EF90DF90CF90BF90AF909F908F907E
:103A90007F906F900895FB01DC0104C08D9101902F
:103AA000801921F441505040C8F7881B990B0895A4
:103AB000FB01DC0102C001900D9241505040D8F74B
:103AC0000895FC018191861721F08823D9F7992761
:103AD00008953197CF010895FB01DC0101900D920B
:103AE0000020E1F70895FB01DC014150504048F00F
:103AF00001900D920020C9F701C01D924150504025
:103B0000E0F70895FB0151915523A9F0BF01DC01B5
:103B10004D9145174111E1F759F4CD010190002075
:103B200049F04D9140154111C9F3FB014111EFCF0F
:103B300081E090E00197089512E0C6E2D2E000E053
:103B400005C022970109FE010BBF87DDC832D107EE
:0A3B500080E00807B1F7F894FFCFFA
:103B5A00000004078000FFFFFFFF496E6963696187
:103B6A006E646F206372696163616F2064652061AE
:103B7A0072717569766F20646520636F6E66696716
:103B8A0075726163616F2E2E2E00496E69636961D9
:103B9A006C697A616E646F2063617274616F20531D
:103BAA00442E2E2E20004552524F202D204D6F6458
:103BBA00756C6F2053442066616C686F7521200014
:103BCA004552524F202D2043617274616F20534435
:103BDA002066616C686F75212000496E69636961AE
:103BEA006C697A61646F20636F6D207375636573A6
:103BFA00736F00636F6E6669672E74787400416232
:103C0A0072696E646F206F206172717569766F3A9E
:103C1A002000202E2E2E20004E616F20666F692014
:103C2A00706F73736976656C20656E636F6E7472FC
:103C3A00617220756D6120706172746963616F20B1
:103C4A004641543136206F752046415433322E0A8C
:103C5A0056657269666971756520736520766F634A
:103C6A006520666F726D61746F75206F2063617273
:103C7A0074616F20636F72726574616D656E7465CD
:103C8A0020004F4B004552524F202D204572726F33
:103C9A0020616F206162726972206F206172717592
:103CAA0069766F00454F46000000000005031B03BC
:103CBA00F30354035D0336032F00000000000411D0
:103CCA00741900000000051874195A17731765173C
:103CDA00E4170D0A006E616E00696E66006F766603
:023CEA000000D8
:00000001FF
