:1000000030C1000017C5000040C5000069C50000F0
:1000100092C50000BBC50000E4C500000DC600008D
:1000200036C600004FC100004DC100004BC10000AA
:1000300049C1000047C1000045C1000043C10000A4
:1000400041C100003FC100003DC100003BC10000B4
:1000500039C1000037C1000035C1000043C60000AF
:1000600031C100000C94CC090C94020A2BC1000091
:1000700029C1000027C1000025C1000023C10000E4
:1000800021C100001FC100001DC100001BC10000F4
:100090000C94770A0C94AD0A15C1000013C100003E
:1000A00011C100000FC100000DC100000BC1000014
:1000B00009C1000007C1000005C1000003C1000024
:1000C00001C10000FFC00000FDC000000C94220B25
:1000D0000C94580BF7C00000F5C00000F3C00000FE
:1000E000F1C00000F404BE04C604D204DF0400051D
:1000F0000D05B707BA07A907AD07B307F107BE0794
:10010000C207C807CC07D007D607DA07DE07F10712
:10011000E407E807EC0700000A0B02090C0D0E08C3
:1001200007030401000000000000000000000000C0
:1001300000000000000000000000000000000000BF
:10014000000012111000000000000000000000007C
:10015000000000000000000000000000010210206C
:1001600020080810204010204080020102010804ED
:100170000201010204081020408080402010080481
:1001800002018004020180402010080402010804DA
:10019000020101020408102040800102040810201E
:1001A0004080050505050705080808080202020247
:1001B0000A0A080804040404010101010101010103
:1001C0000303030303030303040707070C0C0C0CCE
:1001D0000C0C0C0C020202020606060606060606B7
:1001E0000B0B0B0B0B0B0B0B000022002500280048
:1001F0002B002E003100340002010000050108012F
:100200000B0100002100240027002A002D003000EF
:10021000330001010000040107010A014E414E496B
:100220004E495459494E46CDCCCC3D0AD7233C17B4
:10023000B7D13877CC2B329595E6241FB14F0A0001
:100240000020410000C84200401C4620BCBE4CCAF1
:100250001B0E5AAEC59D74009003340ADF0A8A0B48
:100260009C0311241FBECFEFD1E2DEBFCDBF00E063
:100270000CBF12E0A0E0B2E0E4E1FBE200E00BBF63
:1002800002C007900D92A63AB107D9F724E0A6EA7A
:10029000B2E001C01D92A63AB207E1F712E0C0E653
:1002A000D2E000E006C022970109FE010BBF0E94C8
:1002B0005E11C835D10780E00807A9F70E94EE0E4D
:1002C0000C9479159DCE8091B8029091B902019657
:1002D0009093B9028093B80208958091B6029091EC
:1002E000B70201969093B7028093B602089526E074
:1002F00040E855E260E070E089EC92E0EDD726E05E
:1003000040E855E260E070E086E693E0E5D726E05D
:1003100040E855E260E070E083E094E0DDD760E023
:1003200082E060D661E082E096D642E050E063E68B
:1003300071E080E00ED360E083E054D661E083E0BA
:100340008AD642E050E06DE671E081E002D36DE1D3
:1003500072E089EC92E00C94190CBF92CF92DF927C
:10036000EF92FF920F931F93CF93DF93CDB7DEB73A
:10037000C85CD1090FB6F894DEBF0FBECDBFB82E52
:10038000CE0101967C0100E010E08B2DB2D5AC01CE
:1003900089819A8148175907BCF001151105A1F010
:1003A000FE01319621E030E0201731077CF4819185
:1003B0009191481759072CF08081918184179507F6
:1003C0002CF42F5F3F4FF0CF20E030E0B801E0E0A9
:1003D000F0E03297261737076CF461507109D701A6
:1003E000AE0FBF1FCD90DC9011971396DC92CE928A
:1003F0001297EFCFF901EE0FFF1F81E090E08C0F15
:100400009D1FE80FF91F518340830F5F1F4F92E03C
:10041000E90EF11C0436110509F0B7CFFE01319643
:10042000AE0147535F4F60E070E0CB010191119145
:10043000222717FD2095322F600F711F821F931FF7
:10044000E417F50799F724E630E040E050E00E9419
:100450003C11CA01B9010E94FF0FC853DF4F0FB60C
:10046000F894DEBF0FBECDBFDF91CF911F910F91EA
:10047000FF90EF90DF90CF90BF9008958F929F9262
:10048000AF92BF92CF92DF92EF92FF921F93CF93E2
:10049000DF93CDB7DEB72A970FB6F894DEBF0FBE55
:1004A000CDBFC090B002D090B102E090B202F09007
:1004B000B30220E030E0A901C701B6010E94600F3D
:1004C00087FF75C046015701B7FAB094B7F8B094EA
:1004D000A7019601609106027091070280910802BF
:1004E000909109020E94FB0E9B01AC017501640111
:1004F00011E080910A0290910B022F83388749877F
:100500005A872BDF0E94CC0F6B5C7109882777FD1F
:100510008095982F0E94FF0F4B015C012F81388539
:1005200049855A8560E070E08DE494E40E94640F90
:100530009B01AC01C501B4010E94640FA7019601A3
:10054000111103C00E94FC0E02C00E94FB0E6B0141
:100550007C0165E272E0CE0101960E942D0EBE0183
:100560006F5F7F4F86EA92E00E94D60E5C01CE015B
:1005700001960E94C60DB7FC0DC0A70196016091BF
:10058000AC027091AD028091AE029091AF020E94D8
:10059000FB0E1DC02091AC023091AD024091AE0225
:1005A0005091AF02C701B6010E94FC0E10C0A70116
:1005B0009601609106027091070280910802909165
:1005C00009020E94FB0E9B01AC0110E092CF2A961B
:1005D0000FB6F894DEBF0FBECDBFDF91CF911F9154
:1005E000FF90EF90DF90CF90BF90AF909F908F9053
:1005F00008956AE272E089EC92E00E94190C609121
:10060000B8027091B9024AE050E089EC92E00E9491
:10061000D80C65E372E089EC92E00E94190C6091BD
:10062000B6027091B7024AE050E089EC92E00E9475
:10063000D80C67E972E089EC92E00E94340C6AE31E
:1006400072E089EC92E00E94190C60910A027091AC
:100650000B024AE050E089EC92E00E94D80C6CE377
:1006600072E089EC92E00E94190C08DFAB01BC013A
:1006700022E030E089EC92E00E94B60D6AE272E07E
:1006800086E693E00E94190C6091B8027091B9025D
:100690004AE050E086E693E00E94D80C65E372E001
:1006A00086E693E00E94190C6091B6027091B70241
:1006B0004AE050E086E693E00E94D80C67E972E0D9
:1006C00086E693E00E94340C6AE372E086E693E0EB
:1006D0000E94190C60910A0270910B024AE050E0EE
:1006E00086E693E00E94D80C6CE372E086E693E025
:1006F0000E94190CC3DEAB01BC0122E030E086E6AB
:1007000093E00E94B60D89EC92E00E94210C86E6EF
:1007100093E00E94210C68E873E180E090E04FC311
:1007200067E972E08AEB92E00E942D0E6EE372E0C0
:1007300086EA92E00C942D0E86EA92E00E94C60DA5
:100740008AEB92E00C94C60D0F931F93CF93DF9327
:1007500000D000D0CDB7DEB789EC92E0B1D4892BC0
:1007600009F4EBC089EC92E0C4D4182F682F8AEB0F
:1007700092E00E94970E1A3079F78091B40290911E
:10078000B502892BE9F464E472E0CE0101960E947F
:100790002D0E6AEB72E0CE0101960E94AA0EBC01FA
:1007A00089EC92E00E94240CCE0101960E94C60DB5
:1007B0008AEB92E00E94D90E70930B0260930A02BA
:1007C0008091B4029091B502019709F56BE472E053
:1007D000CE0101960E942D0E6AEB72E0CE010196C9
:1007E0000E94AA0EBC0189EC92E00E94240CCE016A
:1007F00001960E94C60D8AEB92E00E94E30E609380
:10080000B0027093B1028093B2029093B3028091D0
:10081000B4029091B502029709F56CE572E0CE0141
:1008200001960E942D0E6AEB72E0CE0101960E94A5
:10083000AA0EBC0189EC92E00E94240CCE01019624
:100840000E94C60D8AEB92E00E94E30E60930602BE
:100850007093070280930802909309028091B4027A
:100860009091B502039701F56CE672E0CE01019616
:100870000E942D0E6AEB72E0CE0101960E94AA0E34
:10088000BC0189EC92E0E0D7CE0101960E94C60D32
:100890008AEB92E00E94E30E6093AC027093AD028B
:1008A0008093AE029093AF028091B4029091B50212
:1008B0000497D1F464E772E0CE0101960E942D0EF8
:1008C0006AEB72E0CE0101960E94AA0EBC0189EC8F
:1008D00092E0BAD7CE0101960E94C60D6AEB72E093
:1008E00086EA92E00E94420E6FE772E0CE01019626
:1008F0000E942D0EBE016F5F7F4F8AEB92E00E9437
:10090000D60E8C01CE0101960E94C60D17FD05C0C2
:100910001092B5021092B40209C08091B402909175
:10092000B50201969093B5028093B40267E972E034
:100930008AEB92E00E94570E0FCF26960FB6F894DE
:10094000DEBF0FBECDBFDF91CF911F910F910895F4
:100950000895883008F06DC0E82FF0E0EE0FFF1F1B
:10096000E45FFD4F7183608390E0FC013197E730D5
:10097000F10590F5EE58FF4F0C94581180916900E5
:100980008C7F842B80936900E89A08958091690098
:10099000440F551F440F551F837F842B809369009C
:1009A000E99A08958091690074E0440F551F7A9583
:1009B000E1F78F7C842B80936900EA9A08958091F7
:1009C000690066E0440F551F6A95E1F78F73842B29
:1009D00080936900EB9A089580916A008C7F842B44
:1009E00080936A00EC9A089580916A00440F551F25
:1009F000440F551F837F842B80936A00ED9A0895DE
:100A000080916A0024E0440F551F2A95E1F78F7CFE
:100A1000842B80936A00EE9A089580916A0096E094
:100A2000440F551F9A95E1F78F73842B80936A00CA
:100A3000EF9A08951F920F920FB60F9211240BB6E2
:100A40000F922F933F934F935F936F937F938F9367
:100A50009F93AF93BF93EF93FF93E0911002F091B8
:100A600011021995FF91EF91BF91AF919F918F91D5
:100A70007F916F915F914F913F912F910F900BBE9E
:100A80000F900FBE0F901F9018951F920F920FB6E8
:100A90000F9211240BB60F922F933F934F935F93B6
:100AA0006F937F938F939F93AF93BF93EF93FF9336
:100AB000E0911202F09113021995FF91EF91BF910D
:100AC000AF919F918F917F916F915F914F913F91E6
:100AD0002F910F900BBE0F900FBE0F901F90189587
:100AE0001F920F920FB60F9211240BB60F922F93F5
:100AF0003F934F935F936F937F938F939F93AF93A6
:100B0000BF93EF93FF93E0911402F09115021995B2
:100B1000FF91EF91BF91AF919F918F917F916F91D5
:100B20005F914F913F912F910F900BBE0F900FBE91
:100B30000F901F9018951F920F920FB60F921124CD
:100B40000BB60F922F933F934F935F936F937F93C7
:100B50008F939F93AF93BF93EF93FF93E091160210
:100B6000F09117021995FF91EF91BF91AF919F916D
:100B70008F917F916F915F914F913F912F910F9046
:100B80000BBE0F900FBE0F901F9018951F920F92E3
:100B90000FB60F9211240BB60F922F933F934F93E2
:100BA0005F936F937F938F939F93AF93BF93EF93D5
:100BB000FF93E0910C02F0910D021995FF91EF91D6
:100BC000BF91AF919F918F917F916F915F914F9165
:100BD0003F912F910F900BBE0F900FBE0F901F9063
:100BE00018951F920F920FB60F9211240BB60F9209
:100BF0002F933F934F935F936F937F938F939F9325
:100C0000AF93BF93EF93FF93E0910E02F0910F0229
:100C10001995FF91EF91BF91AF919F918F917F9126
:100C20006F915F914F913F912F910F900BBE0F905D
:100C30000FBE0F901F9018951F920F920FB60F9234
:100C400011240BB60F922F933F934F935F936F93A3
:100C50007F938F939F93AF93BF93EF93FF93E09115
:100C60001802F09119021995FF91EF91BF91AF9180
:100C70009F918F917F916F915F914F913F912F91B4
:100C80000F900BBE0F900FBE0F901F9018951F92E4
:100C90000F920FB60F9211240BB60F922F933F9322
:100CA0004F935F936F937F938F939F93AF93BF9374
:100CB000EF93FF93E0911A02F0911B021995FF91B7
:100CC000EF91BF91AF919F918F917F916F915F91C4
:100CD0004F913F912F910F900BBE0F900FBE0F9031
:100CE0001F9018951F920F920FB60F9211242F93F9
:100CF0003F938F939F93AF93BF938091C102909145
:100D0000C202A091C302B091C4023091C00223E09C
:100D1000230F2D3720F40196A11DB11D05C026E833
:100D2000230F0296A11DB11D2093C0028093C10222
:100D30009093C202A093C302B093C4028091C502F3
:100D40009091C602A091C702B091C8020196A11D60
:100D5000B11D8093C5029093C602A093C702B093C1
:100D6000C802BF91AF919F918F913F912F910F90AA
:100D70000FBE0F901F9018953FB7F8948091C50251
:100D80009091C602A091C702B091C80226B5A89B57
:100D900005C02F3F19F00196A11DB11D3FBF662769
:100DA000782F892F9A2F620F711D811D911D42E0AE
:100DB000660F771F881F991F4A95D1F708958F9264
:100DC0009F92AF92BF92CF92DF92EF92FF926B0110
:100DD0007C01D2DF4B015C01C114D104E104F104B8
:100DE000E9F00E94FA0EC8DF681979098A099B099F
:100DF000683E73408105910578F321E0C21AD1085D
:100E0000E108F10888EE880E83E0981EA11CB11C51
:100E1000C114D104E104F10431F7DECFFF90EF906B
:100E2000DF90CF90BF90AF909F908F90089578946F
:100E300084B5826084BD84B5816084BD85B58260DF
:100E400085BD85B5816085BDEEE6F0E0808181607D
:100E50008083E1E8F0E0108280818260808380817D
:100E600081608083E0E8F0E0808181608083E1EB55
:100E7000F0E0808184608083E0EBF0E0808181603D
:100E80008083E1E9F0E080818260808380818160FD
:100E90008083E0E9F0E0808181608083E1EAF0E036
:100EA000808182608083808181608083E0EAF0E0DD
:100EB000808181608083E1E2F1E0808182608083D3
:100EC000808181608083E0E2F1E0808181608083C5
:100ED000EAE7F0E0808184608083808182608083A3
:100EE0008081816080838081806880831092C100CE
:100EF0000895863308F0865320917B00982F9870D0
:100F0000277F922B90937B00877020911C0290E4A6
:100F1000299F90011124822B80937C0080917A007C
:100F2000806480937A0080917A0086FDFCCF809166
:100F300078002091790090E0922B089590E0FC01D8
:100F40003197E231F10508F04CC0E758FF4F0C949F
:100F50005811809180008F7703C0809180008F7D31
:100F600080938000089580918000877FF9CF84B5B9
:100F70008F7702C084B58F7D84BD08958091B000C5
:100F80008F7703C08091B0008F7D8093B00008956B
:100F9000809190008F7707C0809190008F7D03C073
:100FA00080919000877F8093900008958091A000A9
:100FB0008F7707C08091A0008F7D03C08091A00033
:100FC000877F8093A0000895809120018F7707C0CC
:100FD000809120018F7D03C080912001877F8093C5
:100FE00020010895CF93DF9390E0FC01E45AFE4F77
:100FF0002491FC01EE55FE4F8491882349F190E045
:10100000880F991FFC01EE5FFD4FA591B4918851A7
:101010009E4FFC01C591D4919FB7611108C0F8940F
:101020008C91209582238C93888182230AC0623020
:1010300051F4F8948C91322F309583238C938881CE
:10104000822B888304C0F8948C91822B8C939FBF51
:10105000DF91CF9108950F931F93CF93DF931F924A
:10106000CDB7DEB7282F30E0F901EA5EFE4F84915C
:10107000F901E45AFE4F1491F901EE55FE4F049127
:101080000023C1F0882319F0698358DF6981E02FBC
:10109000F0E0EE0FFF1FE851FE4FA591B4919FB70E
:1010A000F8948C91611103C01095812301C0812BAC
:1010B0008C939FBF0F90DF91CF911F910F91089557
:1010C000FC01818D228D90E0805C9F4F821B9109F5
:1010D0008F7399270895FC01918D828D981731F0B7
:1010E000828DE80FF11D858D90E008958FEF9FEFC1
:1010F0000895FC01918D828D981761F0828DDF013A
:10110000A80FB11D5D968C91928D9F5F9F73928FFA
:1011100090E008958FEF9FEF08958BE29AE0892B7E
:1011200039F084EA93E0892B19F095D1811123C01D
:1011300086ED9AE0892B39F080E090E0892B19F058
:1011400035D281111AC081E89BE0892B39F080E00B
:1011500090E0892B19F0D5D2811112C080E090E087
:10116000892B99F080E090E0892B79F00E940000B3
:10117000811109C00895E8DADBCF0E940000E3CFB7
:101180000E940000EBCF0C9400000895FC01848DB8
:10119000DF01A80FB11DA35ABF4F2C91848D90E0A1
:1011A00001968F739927848FA689B7892C93A0897C
:1011B000B1898C9180648C93938D848D981306C033
:1011C0000288F389E02D80818F7D80830895CF93FD
:1011D000DF93EC01888D8823C1F0EA89FB89808147
:1011E00085FD05C0A889B9898C9186FD0EC00FB612
:1011F00007FCF5CF808185FFF2CFA889B9898C9152
:1012000085FFEDCFCE01C2DFE8CFDF91CF9108950A
:10121000CF92DF92FF920F931F93CF93DF931F9292
:10122000CDB7DEB76C0181E0D60158968C93589704
:101230005B969C915B975C968C915C97981307C02A
:101240005096ED91FC915197808185FD2DC0F6015E
:10125000038D10E00F5F1F4F0F731127F02EF60163
:10126000848DF81210C00FB607FCF9CFD601509646
:10127000ED91FC915197808185FFF1CFC601698383
:1012800085DF6981ECCF838DE80FF11DE35AFF4FB5
:101290006083D6015B960C935B975296ED91FC911F
:1012A0005397808180620CC0D6015696ED91FC91D7
:1012B000579760835096ED91FC915197808180649F
:1012C000808381E090E00F90DF91CF911F910F918B
:1012D000FF90DF90CF900895BF92CF92DF92EF9270
:1012E000FF92CF93DF93EC016A017B01B22EE88974
:1012F000F98982E08083411581EE58076105710507
:1013000099F060E079E08DE390E0A701960192D733
:10131000215031094109510956954795379527952F
:10132000211580E1380790F0E889F989108260E89A
:1013300074E88EE190E0A70196017CD72150310935
:10134000410951095695479537952795EC85FD85B7
:101350003083EE85FF852083188EEC89FD89B0826D
:10136000EA89FB89808180618083EA89FB898081A9
:1013700088608083EA89FB89808180688083EA892C
:10138000FB8980818F7D8083DF91CF91FF90EF90EB
:10139000DF90CF90BF9008951F920F920FB60F92DB
:1013A00011240BB60F922F938F939F93EF93FF937C
:1013B000E091D902F091DA028081E091DF02F091B0
:1013C000E00282FD12C090818091E2028F5F8F73F4
:1013D0002091E302821751F0E091E202F0E0E7533E
:1013E000FD4F958F8093E20201C08081FF91EF91C4
:1013F0009F918F912F910F900BBE0F900FBE0F906A
:101400001F9018951F920F920FB60F9211240BB6D2
:101410000F922F933F934F935F936F937F938F938D
:101420009F93AF93BF93EF93FF9389EC92E0AEDE6F
:10143000FF91EF91BF91AF919F918F917F916F91AC
:101440005F914F913F912F910F900BBE0F900FBE68
:101450000F901F90189589EC92E032DE21E0892BE5
:1014600009F420E0822F08951092CC021092CB0252
:1014700088EE93E0A0E0B0E08093CD029093CE029E
:10148000A093CF02B093D00289E892E09093CA0271
:101490008093C90285EC90E09093D6028093D502A8
:1014A00084EC90E09093D8028093D70280EC90E097
:1014B0009093DA028093D90281EC90E09093DC0261
:1014C0008093DB0282EC90E09093DE028093DD0259
:1014D00086EC90E09093E0028093DF021092E202AB
:1014E0001092E3021092E4021092E50208951F9216
:1014F0000F920FB60F9211240BB60F922F938F936A
:101500009F93EF93FF93E0917603F09177038081AF
:10151000E0917C03F0917D0382FD12C09081809167
:101520007F038F5F8F7320918003821751F0E091CA
:101530007F03F0E0EA59FC4F958F80937F0301C051
:101540008081FF91EF919F918F912F910F900BBE12
:101550000F900FBE0F901F9018951F920F920FB60D
:101560000F9211240BB60F922F933F934F935F93DB
:101570006F937F938F939F93AF93BF93EF93FF935B
:1015800086E693E003DEFF91EF91BF91AF919F91CB
:101590008F917F916F915F914F913F912F910F901C
:1015A0000BBE0F900FBE0F901F90189586E693E02C
:1015B00087DD21E0892B09F420E0822F0895109225
:1015C00069031092680388EE93E0A0E0B0E0809396
:1015D0006A0390936B03A0936C03B0936D0389E847
:1015E00092E090936703809366038DEC90E0909374
:1015F0007303809372038CEC90E090937503809357
:10160000740388EC90E0909377038093760389ECE1
:1016100090E090937903809378038AEC90E0909324
:101620007B0380937A038EEC90E090937D0380930C
:101630007C0310927F03109280031092810310921A
:10164000820308951F920F920FB60F9211240BB6CA
:101650000F922F938F939F93EF93FF93E091130437
:10166000F09114048081E0911904F0911A0482FD34
:1016700012C0908180911C048F5F8F7320911D0494
:10168000821751F0E0911C04F0E0ED5FFB4F958F65
:1016900080931C0401C08081FF91EF919F918F91F5
:1016A0002F910F900BBE0F900FBE0F901F901895AB
:1016B0001F920F920FB60F9211240BB60F922F9319
:1016C0003F934F935F936F937F938F939F93AF93CA
:1016D000BF93EF93FF9383E094E058DDFF91EF9188
:1016E000BF91AF919F918F917F916F915F914F913A
:1016F0003F912F910F900BBE0F900FBE0F901F9038
:10170000189583E094E0DCDC21E0892B09F420E0EB
:10171000822F0895109206041092050488EE93E03B
:10172000A0E0B0E08093070490930804A09309041C
:10173000B0930A0489E892E0909304048093030430
:1017400085ED90E09093100480930F0484ED90E079
:10175000909312048093110480ED90E09093140410
:101760008093130481ED90E0909316048093150408
:1017700082ED90E0909318048093170486ED90E03A
:1017800090931A048093190410921C0410921D0463
:1017900010921E0410921F040895CF92DF92EF92D0
:1017A000FF920F931F93CF93DF937C016A01EB01AC
:1017B00000E010E00C151D0571F06991D701ED9165
:1017C000FC910190F081E02DC7011995892B19F04A
:1017D0000F5F1F4FEFCFC801DF91CF911F910F9186
:1017E000FF90EF90DF90CF9008956115710581F023
:1017F000DB010D900020E9F7AD0141505109461B76
:10180000570BDC01ED91FC910280F381E02D1994DE
:1018100080E090E00895DC01ED91FC91DB011496ED
:101820004D915C9115976D917C910280F381E02D33
:101830001994DBCFDC01ED91FC910190F081E02D5A
:10184000199465E972E0D1CF0F931F93CF93DF9383
:10185000EC01E1DF8C01CE01F4DF800F911FDF91FD
:10186000CF911F910F9108950F931F93CF93DF9303
:10187000EC01BBDF8C01CE01E4DF800F911FDF9113
:10188000CF911F910F9108958F929F92AF92BF9227
:10189000DF92EF92FF920F931F93CF93DF93CDB719
:1018A000DEB7A1970FB6F894DEBF0FBECDBF7C01A7
:1018B000F42FD52ECB0119A2223008F42AE08E0194
:1018C0000F5D1F4F822E912CA12CB12C6F2F7D2DDF
:1018D000A5019401AFD4F22FD32ECA0101501109F2
:1018E0006A3014F4E0E301C0E7E3E60FD801EC93BB
:1018F000232B242B252B51F7B801C70176DFA196A6
:101900000FB6F894DEBF0FBECDBFDF91CF911F9110
:101910000F91FF90EF90DF90BF90AF909F908F90CE
:101920000895CF92DF92EF92FF920F931F93CF9380
:10193000DF93EC016A017B012115310579F4E8811F
:10194000F9810190F081E02D642FDF91CF911F91FB
:101950000F91FF90EF90DF90CF9019942A303105CE
:10196000D9F477FF18C06DE265DF8C014427552755
:10197000BA014C195D096E097F092AE0CE0184DFA6
:10198000800F911FDF91CF911F910F91FF90EF90EA
:10199000DF90CF9008952AE0B701A601CE01DF9134
:1019A000CF911F910F91FF90EF90DF90CF906CCF70
:1019B0009A01AB01662757FD6095762FB2CF4F9203
:1019C0005F926F927F928F929F92AF92BF92CF92CF
:1019D000DF92EF92FF920F931F93CF93DF93EC016F
:1019E0006A017B01B22E9A01AB01C701B6011ED478
:1019F000882319F068E972E024C026013701E894D1
:101A000077F82FEF3FEF4FE75FE7C301B2010ED446
:101A100081110CC02FEF3FEF4FE75FE7C301B20129
:101A20004FD218161CF46CE972E00BC02FEF3FEF99
:101A30004FE75FE4C701B60192D31816A4F460EA39
:101A400072E0CE01DF91CF911F910F91FF90EF9047
:101A5000DF90CF90BF90AF909F908F907F906F90CE
:101A60005F904F90C2CE2FEF3FEF4FE75FECC70183
:101A7000B60126D287FDE3CF20E030E0A901C701FF
:101A8000B6011ED287FF09C06DE2CE01D3DE8C0104
:101A9000F7FAF094F7F8F09402C000E010E0A12CFF
:101AA00060E070E080E09FE3AB1439F020E030E0CC
:101AB00040E251E409D2A394F7CF9B01AC01C701E6
:101AC000B6019AD16B017C016CD22B013C0195D2FD
:101AD0009B01AC01C701B6018ED16B017C012AE0EC
:101AE000B301A201CE01D0DE080F191FBB2031F0D7
:101AF00064EA72E0CE0179DE080F191F7B2C772093
:101B000019F120E030E040E251E4C701B6012BD3E7
:101B10006B017C0141D24B01AA2497FCA094BA2C02
:101B20002AE030E0B501A401CE01FBDE080F191F49
:101B3000C501B40164D29B01AC01C701B6015BD100
:101B40006B017C017A94DBCFC801DF91CF911F91AB
:101B50000F91FF90EF90DF90CF90BF90AF909F904C
:101B60008F907F906F905F904F9008950F931F9389
:101B7000CF93DF93EC0123DF8C01CE0162DE800F77
:101B8000911FDF91CF911F910F910895FC018081EA
:101B9000918130C4CF93DF93EC01888199810097C4
:101BA00009F028D4198218821D821C821B821A8295
:101BB000DF91CF9108950F931F93CF93DF93EC01A3
:101BC0008B016F5F7F4F88819981A3D4009731F09B
:101BD000998388831B830A8381E001C080E0DF91C1
:101BE000CF911F910F910895CF93DF93EC018881DE
:101BF0009981892B29F08A819B818617970758F450
:101C0000CE01D9DF882341F08C819D81892B19F485
:101C1000E881F981108281E0DF91CF910895EF9200
:101C2000FF920F931F93CF93DF93EC017B018A0107
:101C3000BA01DADF811103C0CE01ACDF06C01D831B
:101C40000C83B7018881998182D5CE01DF91CF9134
:101C50001F910F91FF90EF900895FC011182108267
:101C600013821282158214826115710551F0FB01F5
:101C700001900020E9F7AF0141505109461B570B75
:101C8000CECF0895CF93DF93EC01FB018617970722
:101C900051F0608171816115710521F04481558198
:101CA000BEDF01C077DFCE01DF91CF910895CF93E2
:101CB000DF93EC016115710559F0FB0101900020E3
:101CC000E9F7AF0141505109461B570BA8DF01C08E
:101CD00061DFCE01DF91CF910895EF92FF920F93D4
:101CE0001F93CF93DF93EC017B010C811D81611564
:101CF000710511F480E014C04115510581F0040F05
:101D0000151FB80171DF8823A9F3288139818C81DF
:101D10009D81B701820F931F1AD51D830C8381E02B
:101D2000DF91CF911F910F91FF90EF900895CF9386
:101D3000DF931F921F92CDB7DEB769831A8241E00D
:101D400050E0BE016F5F7F4FC8DF0F900F90DF91B3
:101D5000CF910895CF93DF93EC01FB01448155812E
:101D600060817181BADF811102C0CE0113DFCE0123
:101D7000DF91CF910895CF93DF93FC01848195810A
:101D80004817590770F4C081D181FB0160817181CE
:101D9000CE01840F951FE2D4009719F08C1B9D0B88
:101DA00002C08FEF9FEFDF91CF91089540E050E0A8
:101DB000E2CFFC0180819181009709F091C460E03D
:101DC00070E0CB010895FC0180819181009709F0BA
:101DD00084C460E070E0CB010895089528D8FDDF49
:101DE0000E947701CDE8D8E00E94F9022097E1F344
:101DF00094D9FACF08955058BB27AA270ED075C1A1
:101E000066D130F06BD120F031F49F3F11F41EF415
:101E10005BC10EF4E095E7FB51C1E92F77D180F368
:101E2000BA17620773078407950718F071F49EF5D7
:101E30008FC10EF4E0950B2EBA2FA02D0B01B90126
:101E400090010C01CA01A0011124FF27591B99F030
:101E5000593F50F4503E68F11A16F040A22F232F3C
:101E6000342F4427585FF3CF469537952795A7958C
:101E7000F0405395C9F77EF41F16BA0B620B730B33
:101E8000840BBAF09150A1F0FF0FBB1F661F771FA4
:101E9000881FC2F70EC0BA0F621F731F841F48F459
:101EA000879577956795B795F7959E3F08F0B3CFDF
:101EB0009395880F08F09927EE0F979587950895C9
:101EC000D9D008F481E008950CD00FC107D140F0BB
:101ED000FED030F021F45F3F19F0F0C0511139C14C
:101EE000F3C014D198F39923C9F35523B1F3951B8B
:101EF000550BBB27AA2762177307840738F09F5F2B
:101F00005F4F220F331F441FAA1FA9F333D00E2E99
:101F10003AF0E0E830D091505040E695001CCAF706
:101F200029D0FE2F27D0660F771F881FBB1F2617CB
:101F300037074807AB07B0E809F0BB0B802DBF019E
:101F4000FF2793585F4F2AF09E3F510568F0B6C0B7
:101F500000C15F3FECF3983EDCF38695779567957B
:101F6000B795F7959F5FC9F7880F911D969587954F
:101F700097F90895E1E0660F771F881FBB1F62176E
:101F800073078407BA0720F0621B730B840BBA0B2C
:101F9000EE1F88F7E095089504D06894B111D9C078
:101FA0000895BCD088F09F5790F0B92F9927B7516A
:101FB000A0F0D1F0660F771F881F991F1AF0BA950D
:101FC000C9F712C0B13081F0C3D0B1E00895C0C0EC
:101FD000672F782F8827B85F39F0B93FCCF3869503
:101FE00077956795B395D9F73EF490958095709560
:101FF00061957F4F8F4F9F4F0895E89409C097FBDD
:102000003EF490958095709561957F4F8F4F9F4FCF
:102010009923A9F0F92F96E9BB279395F695879513
:1020200077956795B795F111F8CFFAF4BB0F11F4D6
:1020300060FF1BC06F5F7F4F8F4F9F4F16C088237D
:1020400011F096E911C0772321F09EE8872F762FB3
:1020500005C0662371F096E8862F70E060E02AF0F4
:102060009A95660F771F881FDAF7880F96958795E0
:1020700097F90895990F0008550FAA0BE0E8FEEFB5
:1020800016161706E807F907C0F012161306E4073C
:10209000F50798F0621B730B840B950B39F40A2635
:1020A00061F0232B242B252B21F408950A2609F413
:1020B000A140A6958FEF811D811D089597F99F6717
:1020C00080E870E060E008959FEF80EC08950024C0
:1020D0000A941616170618060906089500240A948D
:1020E00012161306140605060895092E0394000C13
:1020F00011F4882352F0BB0F40F4BF2B11F460FFA2
:1021000004C06F5F7F4F8F4F9F4F089557FD9058CA
:10211000440F551F59F05F3F71F04795880F97FBAB
:10212000991F61F09F3F79F0879508951216130665
:102130001406551FF2CF4695F1DF08C01616170694
:102140001806991FF1CF86957105610508940895C9
:10215000E894BB2766277727CB0197F908958ADF94
:1021600008F48FEF08950BD0C0CFB1DF28F0B6DFB1
:1021700018F0952309F0A2CFA7CF1124EACFC6DF2C
:10218000A0F3959FD1F3950F50E0551F629FF0018A
:10219000729FBB27F00DB11D639FAA27F00DB11DE3
:1021A000AA1F649F6627B00DA11D661F829F22276C
:1021B000B00DA11D621F739FB00DA11D621F839FF3
:1021C000A00D611D221F749F3327A00D611D231FC9
:1021D000849F600D211D822F762F6A2F11249F5717
:1021E00050408AF0E1F088234AF0EE0FFF1FBB1F3A
:1021F000661F771F881F91505040A9F79E3F5105D9
:1022000070F05CCFA6CF5F3FECF3983EDCF3869591
:1022100077956795B795F795E7959F5FC1F7FE2B83
:10222000880F911D9695879597F9089523DF880B60
:10223000990B0895A1E21A2EAA1BBB1BFD010DC02C
:10224000AA1FBB1FEE1FFF1FA217B307E407F50766
:1022500020F0A21BB30BE40BF50B661F771F881F42
:10226000991F1A9469F760957095809590959B01D8
:10227000AC01BD01CF010895052E97FB16F4009423
:102280000FD057FD05D0D6DF07FC02D046F408C0BA
:1022900050954095309521953F4F4F4F5F4F089592
:1022A00090958095709561957F4F8F4F9F4F0895C2
:1022B000EE0FFF1F0590F491E02D19940790F69111
:1022C000E02D1994CF93DF938230910510F482E0D2
:1022D00090E0E091A204F091A30420E030E0A0E0BF
:1022E000B0E0309739F14081518148175907B8F073
:1022F0004817590771F482819381109729F013963A
:102300009C938E9312972CC09093A3048093A20465
:1023100027C02115310531F04217530718F0A901E4
:10232000DB0101C0EF019A01BD01DF010280F381F1
:10233000E02DD7CF21153105F9F0281B390B2430BA
:10234000310580F48A819B816115710521F0FB01C3
:102350009383828304C09093A3048093A204FE011C
:10236000329644C0FE01E20FF31F819391932250F5
:102370003109398328833AC02091A0043091A10407
:10238000232B41F420910202309103023093A104E7
:102390002093A00420910002309101022115310503
:1023A00041F42DB73EB74091040250910502241B21
:1023B000350BE091A004F091A104E217F307A0F41B
:1023C0002E1B3F0B2817390778F0AC014E5F5F4F8B
:1023D0002417350748F04E0F5F1F5093A104409318
:1023E000A0048193919302C0E0E0F0E0CF01DF917F
:1023F000CF910895CF93DF93009709F487C0FC0134
:10240000329713821282C091A204D091A304209724
:1024100081F420813181280F391F8091A00490918F
:10242000A1048217930779F5F093A104E093A00427
:102430006DC0DE0120E030E0AE17BF0750F4129609
:102440004D915C9113979D014115510509F1DA01F8
:10245000F3CFB383A28340815181840F951F8A17E4
:102460009B0771F48D919C911197840F951F029693
:102470009183808312968D919C911397938382838D
:102480002115310529F4F093A304E093A2043EC082
:10249000D9011396FC93EE9312974D915D91A40F81
:1024A000B51FEA17FB0779F480819181840F951F8E
:1024B0000296D90111969C938E93828193811396F3
:1024C0009C938E931297E0E0F0E08A819B810097C5
:1024D00019F0FE01EC01F9CFCE0102962881398175
:1024E000820F931F2091A0043091A104281739076F
:1024F00069F4309729F41092A3041092A20402C048
:1025000013821282D093A104C093A004DF91CF91D3
:1025100008956F927F928F929F92AF92BF92CF92C7
:10252000DF92EF92FF920F931F93CF93DF93EC0113
:10253000CB01209779F4DF91CF911F910F91FF90FC
:10254000EF90DF90CF90BF90AF909F908F907F9053
:102550006F90B8CEFE01E60FF71F9E0122503109A1
:10256000E217F30708F4A8C0D9010D911C91119747
:1025700006171707B0F00530110508F49BC0A80135
:10258000445051094617570708F494C002501109E6
:10259000061B170B019311936D937C93CF012ADFD8
:1025A00089C05B01A01AB10A4E01800E911EA09154
:1025B000A204B091A304612C712C60E070E010972C
:1025C00009F449C0A815B905C9F5ED90FC9011971B
:1025D000670142E0C40ED11CCA14DB0478F1470144
:1025E0008A189B08640142E0C40ED11C1296BC906C
:1025F00012971396AC91B5E0CB16D10440F0B2829D
:10260000A38391828082D9018D939C9309C00E5F30
:102610001F4F0E0D1F1DF90111830083EB2DFA2FA3
:102620006115710531F0DB011396FC93EE9312975F
:1026300041C0F093A304E093A2043CC06D917C914F
:1026400011976616770608F43B01BD0112960D90AE
:10265000BC91A02DB4CF6091A0047091A104681525
:102660007905E9F468167906D0F44091000250919A
:1026700001024115510541F44DB75EB76091040266
:1026800070910502461B570BE417F507A8F4F09369
:10269000A104E093A004F901918380830BC012DEB2
:1026A0007C01009749F0A801BE0148D0CE01A2DE0E
:1026B000C70104C0CE0102C080E090E0DF91CF915D
:1026C0001F910F91FF90EF90DF90CF90BF90AF9050
:1026D0009F908F907F906F900895662777276DC0A9
:1026E0001F93FC0199278827BC01E89411911032AF
:1026F000E9F3193010F01E30C8F31B3249F01D32D7
:1027000041F4689405C044D0610F711D811D911D75
:10271000119110531A30B8F33EF49095809570954E
:1027200061957F4F8F4F9F4F1F9108959111ADC1BC
:10273000803219F089508550D0F70895FB01DC01F3
:1027400002C001900D9241505040D8F70895FB010E
:10275000DC0101900D920020E1F70895FB015191F9
:102760005523A9F0BF01DC014D9145174111E1F757
:1027700059F4CD010190002049F04D9140154111CF
:10278000C9F3FB014111EFCF81E090E0019708957B
:10279000592F482F372F262F660F771F881F991F15
:1027A000660F771F881F991F620F731F841F951F65
:1027B000660F771F881F991F08958F929F92AF927F
:1027C000BF92CF92DF92EF92FF920F931F93CF931E
:1027D000DF938B016115710521F0DB018C9311965C
:1027E0009C93EC015E01BFEFAB1ABB0A7501C88078
:1027F0008C2D90E09BDF892B11F0E501F3CFEDE20A
:10280000CE1208C07E01F2E0EF0EF11CC980DD247B
:10281000D39409C02BE2C21205C07E0142E0E40E4F
:10282000F11CC980D12CE701219743E050E064E21C
:1028300072E0CE012DD1892BB9F4239645E050E00A
:102840006FE172E0CE0124D1892B09F425960115A0
:10285000110519F0D801CD93DC93D11000C160E0CF
:1028600070E080E89FE704C143E050E06CE172E073
:10287000CE010ED1892B59F40115110509F4F4C0CC
:10288000B2E0EB0EF11CF801F182E082EDC0F7013D
:1028900060E070E0CB01C0E0D0E07F01A0EDAA2EA7
:1028A000AC0C29E02A1528F14D2D4260B42E2D2DB7
:1028B0002870D2FE04C0211124C0219622C021110B
:1028C0002197A5E0B0E09B01AC01FAD0660F771F1D
:1028D000881F991F6A0D711D811D911D6839A9E915
:1028E0007A078A07A9E19A0760F0BD2DB660BB2E72
:1028F00008C02EEFA2120AC0D3FC50C04D2D486074
:10290000B42E3196D701CC90DB2CC7CF2C2D2F7D48
:10291000253409F043C0A081AD3241F4BD2DB06132
:10292000DB2E7F0122E0E20EF11C0CC07F01AB32F6
:1029300031F04FEFE41AF40A21E030E006C0A2E0E3
:10294000EA0EF11CA18122E030E0A053AA3018F079
:10295000E21AF30A23C0F70120E030E02038BCE09F
:102960003B075CF4A901440F551F440F551F240F6A
:10297000351F220F331F2A0F311DAF014F5F5F4FED
:102980007A01A081A053AA3010F4FA01E7CFD4FE57
:1029900003C0319521953109C20FD31FD1FE09C063
:1029A0000115110531F0E1E0EE1AF108D801ED92C0
:1029B000FC9223DB2D2D2370233019F04B015C0199
:1029C00006C04B015C01B7FAB094B7F8B09420E0B0
:1029D00030E0A901C501B40173DA882309F43CC0D1
:1029E000D7FF06C0D195C195D1090BE312E002C013
:1029F00003E512E06801B8E1CB1AD10890E2E92EB4
:102A0000F12CCE15DF056CF0F8012591359145913B
:102A10005491C501B401A7DB4B015C01CE19DF095C
:102A2000F0CF04501109F594E7940C151D0549F7F2
:102A30008A2D880F8B2D881F8F3F41F020E030E0DA
:102A4000A901C501B4013CDA811106C082E290E01F
:102A50009093A5048093A404C501B40109C060E06B
:102A600070E080E89FEF04C060E070E080EC9FE7DA
:102A7000DF91CF911F910F91FF90EF90DF90CF905A
:102A8000BF90AF909F908F900895992788270895C1
:102A9000FB01DC014150504088F08D9181341CF0E5
:102AA0008B350CF4805E659161341CF06B350CF451
:102AB000605E861B611171F3990B0895881BFCCF32
:102AC00009D0A59F900DB49F900DA49F800D911DDE
:102AD00011240895A29FB001B39FC001A39F700D60
:102AE000811D1124911DB29F700D811D1124911D16
:102AF000089512E0C0E6D2E000E005C02297010987
:102B0000FE010BBFDBDBC236D10780E00807B1F75F
:042B1000F894FFCF67
:102B14000000A6048000000020410100A804A804CD
:102B2400A804A804A804A804A804A80401496E6978
:102B340063696F7500747275650043687576613AF0
:102B44002044323D002044333D0041003A00666198
:102B54006C736500706F7274612000696E746572C5
:102B640076616C6F496E696369616C00696E746546
:102B74007276616C6F46696E616C20006F66667375
:102B840065742000746F704F664361736520005A4A
:102B94006572617200000000000809CD0B600879BD
:102BA400086B08E7080D0A006E616E00696E660026
:062BB4006F7666002E00A2
:00000001FF
