:10000000CDC100000C94324C0C945D4C0C94884C87
:100010000C94B34C0C94DE4C0C94094D0C94344D60
:100020000C945F4DECC10000EAC10000E8C1000083
:10003000E6C10000E4C10000E2C10000E0C1000030
:10004000DEC10000DCC10000DAC10000D8C1000040
:10005000D6C10000D4C10000D2C100000C948B4D69
:10006000CEC100000C948D510C94C351C8C1000046
:10007000C6C10000C4C10000C2C10000C0C1000070
:10008000BEC10000BCC10000BAC10000B8C1000080
:100090000C9438520C946E52B2C100000C94712D25
:1000A000AEC10000ACC10000AAC10000A8C10000A0
:1000B000A6C10000A4C10000A2C10000A0C10000B0
:1000C0009EC100009CC100009AC100000C94E35244
:1000D0000C94195394C100000C948E530C94C45387
:1000E0008EC100000C4CD64BDE4BEA4BF74B184C44
:1000F000254CE64EE94ED84EDC4EE24E204FED4EFA
:10010000F14EF74EFB4EFF4E054F094F0D4F204F5E
:10011000134F174F1B4F7C3C3E5E2B3D3F2F5B5DCB
:100120003B2C2A225C001F1C1F1E1F1E1F1F1E1F90
:100130001E1F00000A0B02090C0D0E080703040124
:1001400000000000000000000000000000000000AF
:10015000000000000000000000000000000012117C
:10016000100000000000000000000000000000007F
:10017000000000000000000001021020200808100C
:100180002040102040800201020108040201010207
:1001900004081020408080402010080402018004E0
:1001A000020180402010080402010804020101023B
:1001B000040810204080010204081020408005053A
:1001C0000505070508080808020202020A0A0808CD
:1001D00004040404010101010101010103030303FB
:1001E00003030303040707070C0C0C0C0C0C0C0C8A
:1001F0000202020206060606060606060B0B0B0B9B
:100200000B0B0B0B000020002300260029002C0004
:100210002F00320000010000030106010901000067
:100220002200250028002B002E003100340002019E
:100230000000050108010B01000021002400270037
:100240002A002D00300033000101000004010701E5
:100250000A014E414E494E495459494E46CDCCCCE7
:100260003D0AD7233C17B7D13877CC2B329595E68A
:10027000241FB14F0A000020410000C84200401C6A
:100280004620BCBE4CCA1B0E5AAEC59D7400407AB7
:1002900010F35A00A0724E18090010A5D4E800000F
:1002A000E87648170000E40B54020000CA9A3B00AD
:1002B0000000E1F505000080969800000040420F24
:1002C000000000A08601000000102700000000E8E8
:1002D00003000000006400000000000A00000000AD
:1002E000000100000000002C76D888DC674F08234E
:1002F000DFC1DFAE59E1B1B796E5E3E453C63AE6B4
:1003000051997696E8E6C28426EB898C9B62ED4093
:100310007C6FFCEFBC9C9F40F2BAA56FA5F49005E2
:100320005A2AF75C936B6CF9676DC11BFCE0E40D16
:1003300047FEF520E6B500D0ED902E03009435770A
:10034000050080841E080000204E0A000000C80C32
:10035000333333330F986E12831141EF8D2114899B
:100360003BE65516CFFEE6DB18D1844B381BF77CF5
:100370001D901DA4BBE424203284725E228100C93A
:10038000F124ECA1E53D27007826272DAE32C035BB
:10039000B546F551A0524B53F653BB2611241FBE50
:1003A000CFEFD1E2DEBFCDBF00E00CBF19E0A0E08F
:1003B000B2E0EEE5F5EC00E00BBF02C007900D9255
:1003C000AC31B107D9F720E1ACE1B9E001C01D9231
:1003D000AA31B207E1F713E0CAE9D3E000E006C0B2
:1003E00022970109FE010BBF0E94C85BC838D107E4
:1003F00080E00807A9F70E94FC580C949E6200CE8A
:10040000CF92DF92EF92FF920F931F93E82FF92F75
:1004100005C0015011092109310961F1908196232C
:100420009417B9F305C0015011092109310911F1DF
:10043000908196239413F7CFC12CD12CE12CF12C71
:100440000AC08FEFC81AD80AE80AF80A0C151D0569
:100450002E053F0579F080818623841791F36C2D5A
:100460007D2D8E2D9F2D1F910F91FF90EF90DF908E
:10047000CF90089560E070E080E090E01F910F91D0
:10048000FF90EF90DF90CF900895089580917309C9
:10049000909174090196909374098093730908955B
:1004A00080917109909172090196909372098093DD
:1004B000710908950F931F93CF93DF93CDB7DEB7E4
:1004C00028970FB6F894DEBF0FBECDBF81E09AE04B
:1004D0000E945B4989019A01AB01BC0181E09AE06D
:1004E0000E94F14628960FB6F894DEBF0FBECDBF2E
:1004F000DF91CF911F910F910895CF93DF93EC017E
:1005000064E372E00E94E55685E090E09F838E836D
:100510006CE372E0CE0108960E94E55662E472E058
:10052000CE010E960E94E55668E472E0CE01449634
:100530000E94E55662E472E0CE014A960E94E556BA
:100540006DE472E0CE0180960E94E55662E672E0AC
:10055000CE0186960E94E55667E772E0CE018C9642
:100560000E94E5566CE872E0CE01C2960E94E55604
:1005700061EA72E0CE01C8960E94E55666EB72E031
:10058000CE01CE960E94E5566BEC72E0CE018C5BFC
:100590009F4F0E94E55660EE72E0CE01865B9F4F52
:1005A0000E94E55665EF72E0CE01805B9F4F0E948E
:1005B000E5566AE073E0CE018A5A9F4F0E94E556E5
:1005C00060E273E0CE01845A9F4F0E94E55666E3D5
:1005D00073E0CE018E599F4F0E94E5566CE473E0A4
:1005E000CE0188599F4F0E94E55662E673E0CE0126
:1005F00082599F4F0E94E55668E773E0CE018C5800
:100600009F4F0E94E5566EE873E0CE0186589F4FDB
:100610000E94E55668E472E0CE0180589F4F0E9428
:10062000E55668E472E0CE018A579F4FDF91CF9183
:100630000C94E5562FE241E062E081E09AE00E94EE
:100640001F4ABC0180EA9DE00E9485546DE278E07B
:1006500080EA9DE00E94855462E081E09AE00E9479
:10066000B349BC0180EA9DE00E94A0546FE079E0AC
:1006700080EA9DE00C94A054EF92FF920F931F9399
:10068000CF93DF93CDB7DEB72C970FB6F894DEBFCC
:100690000FBECDBF8C017B016FE079E00E94E55673
:1006A0006FE079E0CE0107960E94E556F70162817E
:1006B0006A3040F46EE173E0CE0107960E945D5708
:1006C000F7016281CE0107960E947F57BE01695FE4
:1006D0007F4FC8010E9457576FE079E0CE01019625
:1006E0000E94E556F70161816A3040F46EE173E0E3
:1006F000CE0101960E945D57F7016181CE010196FE
:100700000E947F57BE016F5F7F4FC8010E945757FD
:10071000F701608170E06053784FC8010E94D8579C
:10072000CE0101960E947E56CE0107960E947E560B
:10073000C8012C960FB6F894DEBF0FBECDBFDF9177
:10074000CF911F910F91FF90EF900895EF92FF923C
:100750000F931F93CF93DF93CDB7DEB7A7970FB655
:10076000F894DEBF0FBECDBF7C018B01609175098F
:10077000709176098AEE9AE00E94A43264EA73E0EE
:10078000CE0101960E94E55665E779E0CE0101961B
:100790000E94375864EA73E00E944858BC01CE01B9
:1007A00082960E940F57CE0101960E947E56B70195
:1007B000CE014C960E94DA42BE01645E7F4FCE01AC
:1007C00001965ADFBE016F5F7F4FCE0182960E9475
:1007D0005757CE0101960E947E5666EA73E0CE011D
:1007E00082960E945D574AA15BA123E16AEE7AE0FE
:1007F000CE0101960E9415326BEA73E080EA9DE01B
:100800000E948554BE016E5D7F4F80EA9DE00E948C
:1008100077546FEB73E080EA9DE00E948554CE012F
:1008200001960E94CD2F882361F0B801CE01019678
:100830000E949054CE0101960E94BB2F65EC73E09C
:1008400002C069ED73E080EA9DE00E94A054CE01F1
:1008500082960E947E56A7960FB6F894DEBF0FBE12
:10086000CDBFDF91CF911F910F91FF90EF90089531
:10087000EF92FF920F931F93CF93DF93CDB7DEB725
:100880002C970FB6F894DEBF0FBECDBF8C017B0155
:100890006FE079E00E94E5566FE079E0CE010796BF
:1008A0000E94E556F70162816A3040F46EE173E020
:1008B000CE0107960E945D57F7016281CE0107962F
:1008C0000E947F57BE01695F7F4FC8010E94575742
:1008D0006FE2C8010E946C576FE079E0CE0101968B
:1008E0000E94E556F70161816A3040F46EE173E0E1
:1008F000CE0101960E945D57F7016181CE010196FC
:100900000E947F57BE016F5F7F4FC8010E945757FB
:100910006FE2C8010E946C57F701608170E060537C
:10092000784FC8010E94D857CE0101960E947E568A
:10093000CE0107960E947E56C8012C960FB6F894F9
:10094000DEBF0FBECDBFDF91CF911F910F91FF9002
:10095000EF9008950F931F93CF93DF93EC018B01DA
:100960006FE079E00E94E556F8016381CE010E94B4
:100970007F576AE3CE010E946C57F8016481CE0173
:100980000E947F576AE3CE010E946C57F80165818F
:10099000CE010E947F57CE01DF91CF911F910F9121
:1009A0000895BF92CF92DF92EF92FF920F931F9321
:1009B000CF93DF93CDB7DEB7A8970FB6F894DEBF1D
:1009C0000FBECDBFB82ECE0101967C0100E010E035
:1009D0008B2D0E94A84EAC0189819A814817590736
:1009E000BCF001151105A1F0FE01319621E030E0C7
:1009F000201731077CF481919191481759072CF009
:100A000080819181841795072CF42F5F3F4FF0CFA1
:100A100020E030E0B801E0E0F0E032972617370739
:100A20006CF461507109D701AE0FBF1FCD90DC90FF
:100A300011971396DC92CE921297EFCFF901EE0F39
:100A4000FF1F81E090E08C0F9D1FE80FF91F51837D
:100A500040830F5F1F4F92E0E90EF11C0431110536
:100A600009F0B6CFFE013196AE01475D5F4F60E001
:100A700070E0CB0101911191222717FD2095322FB3
:100A8000600F711F821F931FE417F50799F724E188
:100A900030E040E050E00E948D5BCA01B9010E9445
:100AA0000E5AA8960FB6F894DEBF0FBECDBFDF91E9
:100AB000CF911F910F91FF90EF90DF90CF90BF905B
:100AC000089568E472E089E899E00E9460588823FC
:100AD00079F060E082E00E94214F61E082E00E94B4
:100AE0005A4F42E050E066E472E080E00E94C14B61
:100AF00068E472E08FE899E00E946058882379F0FA
:100B000060E083E00E94214F61E083E00E945A4F41
:100B100042E050E060E572E081E00C94C14B089542
:100B2000CF93DF93EC0161EF73E080EA9DE00E94D8
:100B30008554BE0180EA9DE00E947754BE018DE39A
:100B40009EE00E94775465E174E08DE39EE00E9490
:100B500085548DE39EE00E948D546BE174E080EA41
:100B60009DE00E94A0546FE079E080EA9DE0DF9173
:100B7000CF910C94A054EF92FF920F931F93CF93B9
:100B8000DF9300D000D0CDB7DEB78C0162E374E014
:100B900080EA9DE00E948554B80180EA9DE00E94B1
:100BA00077546CE372E0CE0101960E94E556BE01D7
:100BB0006F5F7F4F8DE799E00E94AB587C01CE01BB
:100BC00001960E947E56F7FC09C0B8018AED9EE0AE
:100BD0000E9477548AED9EE00E948D5463E574E094
:100BE000CE0101960E94E556BE016F5F7F4F8DE7F3
:100BF00099E00E94AB587C01CE0101960E947E567E
:100C0000F7FC09C0B80187E79FE00E94775487E7A7
:100C10009FE00E948D546BE174E080EA9DE00E94A9
:100C2000A0546FE079E080EA9DE00E94A0542696EF
:100C30000FB6F894DEBF0FBECDBFDF91CF911F91ED
:100C40000F91FF90EF90089569E574E080EA9DE0D0
:100C50000E94855465E779E080EA9DE00E94905407
:100C600060E674E080EA9DE00E94855460917B0913
:100C700070917C094AE050E080EA9DE00E944B556B
:100C800066E774E080EA9DE00E9485546DE779E0B4
:100C900080EA9DE00E9490546EED75E080EA9DE050
:100CA0000E94855469E879E080EA9DE00E949054B2
:100CB00064EE75E080EA9DE00E9485546FE879E07B
:100CC00080EA9DE00E94905467E874E080EA9DE02D
:100CD0000E94855463E879E080EA9DE00E94905488
:100CE0006AEE75E080EA9DE00E94855465E979E04E
:100CF00080EA9DE00E94905460EF75E080EA9DE0FC
:100D00000E9485546BE979E080EA9DE00E9490544E
:100D100066EF75E080EA9DE00E94855461EA79E023
:100D200080EA9DE00E9490546CEF75E080EA9DE0BF
:100D30000E94855467EA79E080EA9DE00E94905421
:100D400062E076E080EA9DE00E9485546DEA79E0F9
:100D500080EA9DE00E94905468E076E080EA9DE0A1
:100D60000E94855463EB79E080EA9DE00E949054F4
:100D70006EE076E080EA9DE00E94855469EB79E0C0
:100D800080EA9DE00E94905464E176E080EA9DE074
:100D90000E9485546FEB79E080EA9DE00E949054B8
:100DA0006AE176E080EA9DE00E94855465EC79E096
:100DB00080EA9DE00E94905460E276E080EA9DE047
:100DC0000E9485546BEC79E080EA9DE00E9490548B
:100DD00067E276E080EA9DE00E94855461ED79E06B
:100DE00080EA9DE00E9490546EE276E080EA9DE009
:100DF0000E94855467ED79E080EA9DE00E9490545E
:100E000065E376E080EA9DE00E9485546DED79E02F
:100E100080EA9DE00E9490546CE376E080EA9DE0D9
:100E20000E94855463EE79E080EA9DE00E94905430
:100E300063E476E080EA9DE00E94855469EE79E003
:100E400080EA9DE00E9490546AE476E080EA9DE0AA
:100E50000E9485546FEE79E080EA9DE00E949054F4
:100E600061E576E080EA9DE00E94855465EF79E0D7
:100E700080EA9DE00E94905461E676E080EA9DE081
:100E80000E9485546BEF79E080EA9DE00E949054C7
:100E90006FE079E080EA9DE00C94A0542F923F929D
:100EA0004F925F926F927F928F929F92AF92BF927A
:100EB000CF92DF92EF92FF920F931F93CF93DF9326
:100EC00000D0CDB7DEB75C014B012901FB010481E5
:100ED000158101501109612C712CCC24CA94DC2C91
:100EE000212C312CE12CF12C7B826A82061517050E
:100EF0007CF14E145F042CF16A817B81C40149832B
:100F00000E948F582A813B812F5F3F4F4981841770
:100F100041F08A819B818017910719F0DB82CA8298
:100F20000CC09FEFE91AF90A1601EFEF2E1A3E0ADC
:100F30006016710611F43B832A833901CA80DB8075
:100F4000D3CF9601A101B401C5010E94AE5808C0DB
:100F50004E145F04B4F36FE079E0C5010E94E556DA
:100F6000C5010F900F900F90DF91CF911F910F91BE
:100F7000FF90EF90DF90CF90BF90AF909F908F90B9
:100F80007F906F905F904F903F902F900895FF92C9
:100F90000F931F93CF93DF93CDB7DEB72C970FB688
:100FA000F894DEBF0FBECDBF8C016FE874E00E94E5
:100FB000E55668E472E089E899E00E946058882369
:100FC00029F06AE974E0C8010E945D5768E472E0A4
:100FD0008FE899E00E946058882329F064EA74E061
:100FE000C8010E945D5765E979E0CE0107960E942D
:100FF0000F5721E030E04CE2BE01695F7F4FCE0128
:1010000001964CDF68E472E0CE0101960E946058C0
:10101000F82ECE0101960E947E56CE0107960E94C0
:101020007E56FF2029F06EEA74E0C8010E945D57E9
:101030006BE979E0CE0107960E940F5721E030E07E
:101040004CE2BE01695F7F4FCE01019627DF68E465
:1010500072E0CE0101960E946058F82ECE010196F2
:101060000E947E56CE0107960E947E56FF2029F0F0
:101070006AEB74E0C8010E945D5761EA79E0CE0135
:1010800007960E940F5721E030E04CE2BE01695FF5
:101090007F4FCE01019602DF68E472E0CE01019637
:1010A0000E946058F82ECE0101960E947E56CE0115
:1010B00007960E947E56FF2029F066EC74E0C80176
:1010C0000E945D5767EA79E0CE0107960E940F57AC
:1010D00021E030E04CE2BE01695F7F4FCE01019616
:1010E000DDDE68E472E0CE0101960E946058F82EC1
:1010F000CE0101960E947E56CE0107960E947E5632
:10110000FF2029F062ED74E0C8010E945D576DEA8E
:1011100079E0CE0107960E940F5721E030E04CE2C3
:10112000BE01695F7F4FCE010196B8DE68E472E0D0
:10113000CE0101960E946058F82ECE0101960E94C1
:101140007E56CE0107960E947E56FF2029F06EED56
:1011500074E0C8010E945D5763EB79E0CE01079609
:101160000E940F5721E030E04CE2BE01695F7F4FE3
:10117000CE01019693DE68E472E0CE0101960E94F2
:101180006058F82ECE0101960E947E56CE01079639
:101190000E947E56FF2029F06AEE74E0C8010E948A
:1011A0005D5769EB79E0CE0107960E940F5721E069
:1011B00030E04CE2BE01695F7F4FCE0101966EDEEA
:1011C00068E472E0CE0101960E946058F82ECE01CC
:1011D00001960E947E56CE0107960E947E56FF2001
:1011E00029F066EF74E0C8010E945D576FEB79E06B
:1011F000CE0107960E940F5721E030E04CE2BE017D
:10120000695F7F4FCE01019649DE68E472E0CE014E
:1012100001960E946058F82ECE0101960E947E56DB
:10122000CE0107960E947E56FF2029F062E075E00D
:10123000C8010E945D5765EC79E0CE0107960E94D7
:101240000F5721E030E04CE2BE01695F7F4FCE01D5
:10125000019624DE68E472E0CE0101960E94605897
:10126000F82ECE0101960E947E56CE0107960E946E
:101270007E56FF2029F06EE075E0C8010E945D57A0
:101280006BEC79E0CE0107960E940F5721E030E029
:101290004CE2BE01695F7F4FCE010196FFDD68E43D
:1012A00072E0CE0101960E946058F82ECE010196A0
:1012B0000E947E56CE0107960E947E56FF2029F09E
:1012C0006AE175E0C8010E945D5761ED79E0CE01E9
:1012D00007960E940F5721E030E04CE2BE01695FA3
:1012E0007F4FCE010196DADD68E472E0CE0101960F
:1012F0000E946058F82ECE0101960E947E56CE01C3
:1013000007960E947E56FF2029F067E275E0C8012B
:101310000E945D5767ED79E0CE0107960E940F5756
:1013200021E030E04CE2BE01695F7F4FCE010196C3
:10133000B5DD68E472E0CE0101960E946058F82E97
:10134000CE0101960E947E56CE0107960E947E56DF
:10135000FF2029F064E375E0C8010E945D576DED40
:1013600079E0CE0107960E940F5721E030E04CE271
:10137000BE01695F7F4FCE01019690DD68E472E0A7
:10138000CE0101960E946058F82ECE0101960E946F
:101390007E56CE0107960E947E56FF2029F061E41A
:1013A00075E0C8010E945D5763EE79E0CE010796B3
:1013B0000E940F5721E030E04CE2BE01695F7F4F91
:1013C000CE0101966BDD68E472E0CE0101960E94C9
:1013D0006058F82ECE0101960E947E56CE010796E7
:1013E0000E947E56FF2029F06EE475E0C8010E943D
:1013F0005D5769EE79E0CE0107960E940F5721E014
:1014000030E04CE2BE01695F7F4FCE01019646DDC0
:1014100068E472E0CE0101960E946058F82ECE0179
:1014200001960E947E56CE0107960E947E56FF20AE
:1014300029F06BE575E0C8010E945D576FEE79E019
:10144000CE0107960E940F5721E030E04CE2BE012A
:10145000695F7F4FCE01019621DD68E472E0CE0125
:1014600001960E946058F82ECE0101960E947E5689
:10147000CE0107960E947E56FF2029F068E675E0AF
:10148000C8010E945D5768E472E085EF99E00E9410
:101490006058882329F065E775E0C8010E945D5710
:1014A00068E472E08BEF99E00E946058882329F08D
:1014B00063E875E0C8010E945D57C8012C960FB61D
:1014C000F894DEBF0FBECDBFDF91CF911F910F917A
:1014D000FF9008952F923F924F925F926F927F926A
:1014E0008F929F92AF92BF92CF92DF92EF92FF9234
:1014F0000F931F93CF93DF93CDB7DEB76A970FB6E5
:10150000F894DEBF0FBECDBF8C01362E62E472E0D0
:10151000CE010D960E94E5560130110509F07CC000
:1015200065E979E0CE0107960E940F5721E030E08F
:101530004CE2BE01695F7F4FCE010196AFDC68E4EB
:1015400072E0CE0101960E946058182FCE010196DC
:101550000E947E56CE0107960E947E56112311F4FA
:101560000C94321365E979E0CE0107960E940F577B
:1015700022E030E04CE2BE01695F7F4FCE01019670
:101580008DDCCE0101960E94F1586B017C01CE01E9
:1015900001960E947E56CE0107960E947E5665E90E
:1015A00079E0CE0107960E940F5723E030E04CE22D
:1015B000BE01695F7F4FCE01019670DCCE010196BE
:1015C0000E94F1582B013C01CE0101960E947E56EB
:1015D000CE0107960E947E5665E979E0CE01079616
:1015E0000E940F5724E030E04CE2BE01695F7F4F5C
:1015F000CE01019653DCCE0101960E94F1584B01B9
:101600005C01CE0101960E947E56CE0107960E9493
:101610007E5600E010E08BC70230110509F07CC057
:101620006BE979E0CE0107960E940F5721E030E088
:101630004CE2BE01695F7F4FCE0101962FDC68E46A
:1016400072E0CE0101960E946058182FCE010196DB
:101650000E947E56CE0107960E947E56112311F4F9
:101660000C9432136BE979E0CE0107960E940F5774
:1016700022E030E04CE2BE01695F7F4FCE0101966F
:101680000DDCCE0101960E94F1586B017C01CE0168
:1016900001960E947E56CE0107960E947E566BE907
:1016A00079E0CE0107960E940F5723E030E04CE22C
:1016B000BE01695F7F4FCE010196F0DBCE0101963E
:1016C0000E94F1582B013C01CE0101960E947E56EA
:1016D000CE0107960E947E566BE979E0CE0107960F
:1016E0000E940F5724E030E04CE2BE01695F7F4F5B
:1016F000CE010196D3DBCE0101960E94F1584B0139
:101700005C01CE0101960E947E56CE0107960E9492
:101710007E5601E010E00BC70330110509F07BC0D5
:1017200061EA79E0CE0107960E940F5721E030E090
:101730004CE2BE01695F7F4FCE010196AFDB68E4EA
:1017400072E0CE0101960E946058182FCE010196DA
:101750000E947E56CE0107960E947E56112309F400
:1017600081C761EA79E0CE0107960E940F5722E017
:1017700030E04CE2BE01695F7F4FCE0101968EDB07
:10178000CE0101960E94F1586B017C01CE010196B9
:101790000E947E56CE0107960E947E5661EA79E04D
:1017A000CE0107960E940F5723E030E04CE2BE01C5
:1017B000695F7F4FCE01019671DBCE0101960E94D9
:1017C000F1582B013C01CE0101960E947E56CE01BC
:1017D00007960E947E5661EA79E0CE0107960E9444
:1017E0000F5724E030E04CE2BE01695F7F4FCE012D
:1017F000019654DBCE0101960E94F1584B015C0129
:10180000CE0101960E947E56CE0107960E947E561A
:1018100002E010E08CC60430110509F07BC067EAD5
:1018200079E0CE0107960E940F5721E030E04CE2AC
:10183000BE01695F7F4FCE01019630DB68E472E044
:10184000CE0101960E946058182FCE0101960E9489
:101850007E56CE0107960E947E56112309F402C7D8
:1018600067EA79E0CE0107960E940F5722E030E048
:101870004CE2BE01695F7F4FCE0101960FDBCE01C6
:1018800001960E94F1586B017C01CE0101960E94E5
:101890007E56CE0107960E947E5667EA79E0CE0119
:1018A00007960E940F5723E030E04CE2BE01695FCB
:1018B0007F4FCE010196F2DACE0101960E94F158D7
:1018C0002B013C01CE0101960E947E56CE01079667
:1018D0000E947E5667EA79E0CE0107960E940F5774
:1018E00024E030E04CE2BE01695F7F4FCE010196FB
:1018F000D5DACE0101960E94F1584B015C01CE0170
:1019000001960E947E56CE0107960E947E5603E005
:1019100010E00DC60530110509F07BC06DEA79E0D5
:10192000CE0107960E940F5721E030E04CE2BE0145
:10193000695F7F4FCE010196B1DA68E472E0CE01B3
:1019400001960E946058182FCE0101960E947E5683
:10195000CE0107960E947E56112309F483C66DEAD4
:1019600079E0CE0107960E940F5722E030E04CE26A
:10197000BE01695F7F4FCE01019690DACE010196DC
:101980000E94F1586B017C01CE0101960E947E56A7
:10199000CE0107960E947E566DEA79E0CE01079649
:1019A0000E940F5723E030E04CE2BE01695F7F4F99
:1019B000CE01019673DACE0101960E94F1582B01F7
:1019C0003C01CE0101960E947E56CE0107960E94F0
:1019D0007E566DEA79E0CE0107960E940F5724E00B
:1019E00030E04CE2BE01695F7F4FCE01019656DACE
:1019F000CE0101960E94F1584B015C01CE01019687
:101A00000E947E56CE0107960E947E5604E010E0AA
:101A10008EC50630110509F07BC063EB79E0CE017D
:101A200007960E940F5721E030E04CE2BE01695F4B
:101A30007F4FCE01019632DA68E472E0CE01019662
:101A40000E946058182FCE0101960E947E56CE014A
:101A500007960E947E56112309F404C663EB79E0D1
:101A6000CE0107960E940F5722E030E04CE2BE0103
:101A7000695F7F4FCE01019611DACE0101960E9477
:101A8000F1586B017C01CE0101960E947E56CE0179
:101A900007960E947E5663EB79E0CE0107960E947E
:101AA0000F5723E030E04CE2BE01695F7F4FCE016B
:101AB0000196F4D9CE0101960E94F1582B013C0108
:101AC000CE0101960E947E56CE0107960E947E5658
:101AD00063EB79E0CE0107960E940F5724E030E0D7
:101AE0004CE2BE01695F7F4FCE010196D7D9CE018E
:101AF00001960E94F1584B015C01CE0101960E94B3
:101B00007E56CE0107960E947E5605E010E00FC576
:101B10000730110509F07BC069EB79E0CE0107962B
:101B20000E940F5721E030E04CE2BE01695F7F4F19
:101B3000CE010196B3D968E472E0CE0101960E940D
:101B40006058182FCE0101960E947E56CE0107964E
:101B50000E947E56112309F485C569EB79E0CE0118
:101B600007960E940F5722E030E04CE2BE01695F09
:101B70007F4FCE01019692D9CE0101960E94F15875
:101B80006B017C01CE0101960E947E56CE01079624
:101B90000E947E5669EB79E0CE0107960E940F57AE
:101BA00023E030E04CE2BE01695F7F4FCE01019639
:101BB00075D9CE0101960E94F1582B013C01CE014E
:101BC00001960E947E56CE0107960E947E5669EBD2
:101BD00079E0CE0107960E940F5724E030E04CE2F6
:101BE000BE01695F7F4FCE01019658D9CE010196A3
:101BF0000E94F1584B015C01CE0101960E947E5675
:101C0000CE0107960E947E5606E010E090C4083090
:101C1000110509F07BC06FEB79E0CE0107960E94B9
:101C20000F5721E030E04CE2BE01695F7F4FCE01EB
:101C3000019634D968E472E0CE0101960E946058A2
:101C4000182FCE0101960E947E56CE0107960E9463
:101C50007E56112309F406C56FEB79E0CE01079695
:101C60000E940F5722E030E04CE2BE01695F7F4FD7
:101C7000CE01019613D9CE0101960E94F1586B0155
:101C80007C01CE0101960E947E56CE0107960E94ED
:101C90007E566FEB79E0CE0107960E940F5723E046
:101CA00030E04CE2BE01695F7F4FCE010196F6D86D
:101CB000CE0101960E94F1582B013C01CE01019604
:101CC0000E947E56CE0107960E947E566FEB79E009
:101CD000CE0107960E940F5724E030E04CE2BE018F
:101CE000695F7F4FCE010196D9D8CE0101960E943F
:101CF000F1584B015C01CE0101960E947E56CE0147
:101D000007960E947E5607E010E011C409301105C5
:101D100009F07BC065EC79E0CE0107960E940F5771
:101D200021E030E04CE2BE01695F7F4FCE010196B9
:101D3000B5D868E472E0CE0101960E946058182F71
:101D4000CE0101960E947E56CE0107960E947E56D5
:101D5000112309F487C465EC79E0CE0107960E944F
:101D60000F5722E030E04CE2BE01695F7F4FCE01A9
:101D7000019694D8CE0101960E94F1586B017C0126
:101D8000CE0101960E947E56CE0107960E947E5695
:101D900065EC79E0CE0107960E940F5723E030E012
:101DA0004CE2BE01695F7F4FCE01019677D8CE012C
:101DB00001960E94F1582B013C01CE0101960E9430
:101DC0007E56CE0107960E947E5665EC79E0CE01E4
:101DD00007960E940F5724E030E04CE2BE01695F95
:101DE0007F4FCE0101965AD8CE0101960E94F1583C
:101DF0004B015C01CE0101960E947E56CE010796F2
:101E00000E947E5608E010E092C30A30110509F0E6
:101E10007DC06BEC79E0CE0107960E940F5721E060
:101E200030E04CE2BE01695F7F4FCE01019636D8AB
:101E300068E472E0CE0101960E946058182FCE012E
:101E400001960E947E56CE0107960E947E5611236F
:101E500009F408C46BEC79E0CE0107960E940F5795
:101E600022E030E04CE2BE01695F7F4FCE01019677
:101E700015D8CE0101960E94F1586B017C01CE016C
:101E800001960E947E56CE0107960E947E566BEC0C
:101E900079E0CE0107960E940F5723E030E04CE234
:101EA000BE01695F7F4FCE0101960E944E07CE01B1
:101EB00001960E94F1582B013C01CE0101960E942F
:101EC0007E56CE0107960E947E566BEC79E0CE01DD
:101ED00007960E940F5724E030E04CE2BE01695F94
:101EE0007F4FCE0101960E944E07CE0101960E94BF
:101EF000F1584B015C01CE0101960E947E56CE0145
:101F000007960E947E5609E010E011C30B301105C0
:101F100009F07FC061ED79E0CE0107960E940F576E
:101F200021E030E04CE2BE01695F7F4FCE010196B7
:101F30000E944E0768E472E0CE0101960E9460584C
:101F4000182FCE0101960E947E56CE0107960E9460
:101F50007E56112309F486C361ED79E0CE01079620
:101F60000E940F5722E030E04CE2BE01695F7F4FD4
:101F7000CE0101960E944E07CE0101960E94F158B3
:101F80006B017C01CE0101960E947E56CE01079620
:101F90000E947E5661ED79E0CE0107960E940F57B0
:101FA00023E030E04CE2BE01695F7F4FCE01019635
:101FB0000E944E07CE0101960E94F1582B013C0170
:101FC000CE0101960E947E56CE0107960E947E5653
:101FD00061ED79E0CE0107960E940F5724E030E0D2
:101FE0004CE2BE01695F7F4FCE0101960E944E0711
:101FF000CE0101960E94F1584B015C01CE01019681
:102000000E947E56CE0107960E947E560AE010E09E
:102010008EC20C30110509F07FC067ED79E0CE016A
:1020200007960E940F5721E030E04CE2BE01695F45
:102030007F4FCE0101960E944E0768E472E0CE0108
:1020400001960E946058182FCE0101960E947E567C
:10205000CE0107960E947E56112309F403C367ED53
:1020600079E0CE0107960E940F5722E030E04CE263
:10207000BE01695F7F4FCE0101960E944E07CE01DF
:1020800001960E94F1586B017C01CE0101960E94DD
:102090007E56CE0107960E947E5667ED79E0CE010E
:1020A00007960E940F5723E030E04CE2BE01695FC3
:1020B0007F4FCE0101960E944E07CE0101960E94ED
:1020C000F1582B013C01CE0101960E947E56CE01B3
:1020D00007960E947E5667ED79E0CE0107960E9432
:1020E0000F5724E030E04CE2BE01695F7F4FCE0124
:1020F00001960E944E07CE0101960E94F1584B01B5
:102100005C01CE0101960E947E56CE0107960E9488
:102110007E560BE010E00BC20D30110509F07FC0B8
:102120006DED79E0CE0107960E940F5721E030E077
:102130004CE2BE01695F7F4FCE0101960E944E07BF
:1021400068E472E0CE0101960E946058182FCE011B
:1021500001960E947E56CE0107960E947E5611235C
:1021600009F480C26DED79E0CE0107960E940F5709
:1021700022E030E04CE2BE01695F7F4FCE01019664
:102180000E944E07CE0101960E94F1586B017C011E
:10219000CE0101960E947E56CE0107960E947E5681
:1021A0006DED79E0CE0107960E940F5723E030E0F5
:1021B0004CE2BE01695F7F4FCE0101960E944E073F
:1021C000CE0101960E94F1582B013C01CE010196EF
:1021D0000E947E56CE0107960E947E566DED79E0F4
:1021E000CE0107960E940F5724E030E04CE2BE017A
:1021F000695F7F4FCE0101960E944E07CE01019686
:102200000E94F1584B015C01CE0101960E947E565E
:10221000CE0107960E947E560CE010E088C10E3079
:10222000110509F07FC063EE79E0CE0107960E94A8
:102230000F5721E030E04CE2BE01695F7F4FCE01D5
:1022400001960E944E0768E472E0CE0101960E945A
:102250006058182FCE0101960E947E56CE01079637
:102260000E947E56112309F4FDC163EE79E0CE0190
:1022700007960E940F5722E030E04CE2BE01695FF2
:102280007F4FCE0101960E944E07CE0101960E941B
:10229000F1586B017C01CE0101960E947E56CE0161
:1022A00007960E947E5663EE79E0CE0107960E9463
:1022B0000F5723E030E04CE2BE01695F7F4FCE0153
:1022C00001960E944E07CE0101960E94F1582B0103
:1022D0003C01CE0101960E947E56CE0107960E94D7
:1022E0007E5663EE79E0CE0107960E940F5724E0F8
:1022F00030E04CE2BE01695F7F4FCE0101960E9443
:102300004E07CE0101960E94F1584B015C01CE01AF
:1023100001960E947E56CE0107960E947E560DE0E1
:1023200010E005C10F30110509F07FC069EE79E0BA
:10233000CE0107960E940F5721E030E04CE2BE012B
:10234000695F7F4FCE0101960E944E0768E472E0FC
:10235000CE0101960E946058182FCE0101960E946E
:102360007E56CE0107960E947E56112309F47AC14B
:1023700069EE79E0CE0107960E940F5722E030E027
:102380004CE2BE01695F7F4FCE0101960E944E076D
:10239000CE0101960E94F1586B017C01CE0101969D
:1023A0000E947E56CE0107960E947E5669EE79E025
:1023B000CE0107960E940F5723E030E04CE2BE01A9
:1023C000695F7F4FCE0101960E944E07CE010196B4
:1023D0000E94F1582B013C01CE0101960E947E56CD
:1023E000CE0107960E947E5669EE79E0CE010796EF
:1023F0000E940F5724E030E04CE2BE01695F7F4F3E
:10240000CE0101960E944E07CE0101960E94F1581E
:102410004B015C01CE0101960E947E56CE010796CB
:102420000E947E560EE010E082C00031110509F0D6
:1024300019C16FEE79E0CE0107960E940F5721E097
:1024400030E04CE2BE01695F7F4FCE0101960E94F1
:102450004E0768E472E0CE0101960E946058182F82
:10246000CE0101960E947E56CE0107960E947E56AE
:10247000112309F4F7C06FEE79E0CE0107960E94B0
:102480000F5722E030E04CE2BE01695F7F4FCE0182
:1024900001960E944E07CE0101960E94F1586B01F1
:1024A0007C01CE0101960E947E56CE0107960E94C5
:1024B0007E566FEE79E0CE0107960E940F5723E01B
:1024C00030E04CE2BE01695F7F4FCE0101960E9471
:1024D0004E07CE0101960E94F1582B013C01CE011E
:1024E00001960E947E56CE0107960E947E566FEEA0
:1024F00079E0CE0107960E940F5724E030E04CE2CD
:10250000BE01695F7F4FCE0101960E944E07CE014A
:1025100001960E94F1584B015C01CE0101960E9488
:102520007E56CE0107960E947E560FE010E020E016
:1025300030E0A901C701B6010E946F5987FF9BC017
:10254000D701C601B0588B8B9C8BAD8BBE8BA7017E
:102550009601C301B2010E940A599B01AC01CB88CC
:10256000DC88ED88FE8822242394C8012F8B388FC5
:10257000498F5A8F0E94D1040E94DB59882777FD2A
:102580008095982F2F89388D498D5A8D332019F0D9
:102590000E940E5A43C02F8B388F498F5A8F0E944A
:1025A0000E5A2B013C012F89388D498D5A8D60E0E0
:1025B00070EC8FE794E40E9473599B01AC01C30156
:1025C000B2010E947359A7019601211003C00E9415
:1025D0000B5902C00E940A599B01AC0168E472E0E9
:1025E000CE0101962F8B388F498F5A8F0E94E55666
:1025F000BE016F5F7F4FCE010D960E94AB588C01DC
:10260000CE0101960E947E562F89388D498D5A8DB4
:10261000C501B40117FD23C00E940A596B017C015A
:10262000CE010D960E947E56C701B6016A960FB67E
:10263000F894DEBF0FBECDBFDF91CF911F910F91F8
:10264000FF90EF90DF90CF90BF90AF909F908F90D2
:102650007F906F905F904F903F902F9008950E94D1
:102660000B59DCCF812C912C5401240135017501CB
:10267000640100E010E0A7019601C301B2010E94CD
:102680000A599B01AC01212C70CF8130910559F47E
:102690008BE19AE00E94864BAB01BC0121E030E067
:1026A0008BE19AE00CC0029761F48BE09AE00E9403
:1026B000864BAB01BC0121E030E08BE09AE00C944A
:1026C000A14B0895CF92DF92EF92FF92CF93DF93C9
:1026D000CDB7DEB7CA55D1090FB6F894DEBF0FBE2D
:1026E000CDBF7C016FE079E0CE018B5A9F4F0E94F5
:1026F000E5566FE079E0CE01815B9F4F0E94E55681
:102700006FE079E0CE01875B9F4F0E94E5566091B4
:102710007509709176098AEE9AE00E94A43264EA03
:1027200073E0CE0101960E94E55665E779E0CE019F
:1027300001960E94375864EA73E00E944858BC0131
:10274000CE018D5B9F4F0E940F57CE0101960E94D4
:102750007E56B701CE014C960E94DA42BE01645EFD
:102760007F4FCE0101960E943C03BE016F5F7F4FF9
:10277000CE018D5B9F4F0E945757CE0101960E945C
:102780007E5669EF76E0CE018D5B9F4F0E945D57CC
:1027900064EA73E0CE0101960E94E55665E779E0B0
:1027A000CE0101960E94375864EA73E00E944858AF
:1027B000BC01CE01CD960E940F57CE0101960E941A
:1027C0007E56B701CE014C960E94DA42BE01645E8D
:1027D0007F4FCE0101960E943C03BE016F5F7F4F89
:1027E000CE01CD960E945757CE0101960E947E568B
:1027F00061E975E0CE01CD960E945D5766E975E00E
:10280000CE01815B9F4F0E945D57B701CE014C9670
:102810000E94DA42BE01645E7F4FCE0101960E94A3
:102820003804BE016F5F7F4FCE01815B9F4F0E94D6
:102830005757CE0101960E947E566DE278E0CE0198
:10284000815B9F4F0E945D57B701CE014C960E945D
:10285000DA42BE01645E7F4FCE0101960E94AA0457
:10286000BE016F5F7F4FCE01815B9F4F0E94575724
:10287000CE0101960E947E5665E275E0CE01815B35
:102880009F4F0E945D57B701CE014C960E94DA42DD
:10289000BE01645E7F4FCE0101960E943804BE01E6
:1028A0006F5F7F4FCE018B5A9F4F0E945757CE01CB
:1028B00001960E947E5665E275E0CE018B5A9F4FCD
:1028C0000E945D57B701CE014C960E94DA42BE01CC
:1028D000645E7F4FCE0101960E94AA04BE016F5F25
:1028E0007F4FCE018B5A9F4F0E945757CE010196C2
:1028F0000E947E5665E275E0CE018B5A9F4F0E9482
:102900005D5768E472E089E899E00E946058882386
:10291000B1F16AE975E0CE01815B9F4F0E945D577E
:102920006091730970917409CE01815B9F4F0E9481
:10293000A95765E275E0CE01815B9F4F0E945D570C
:102940006AE975E0CE018B5A9F4F0E945D576091F6
:10295000730970917409CE018B5A9F4F0E94A95739
:1029600065E275E0CE018B5A9F4F0E945D578091C2
:102970006A09811104C0109274091092730968E405
:1029800072E08FE899E00E9460588823B1F16EE907
:1029900075E0CE01815B9F4F0E945D576091710988
:1029A00070917209CE01815B9F4F0E94A95765E229
:1029B00075E0CE01815B9F4F0E945D576EE975E027
:1029C000CE018B5A9F4F0E945D57609171097091A3
:1029D0007209CE018B5A9F4F0E94A95765E275E09C
:1029E000CE018B5A9F4F0E945D5780916A098111D9
:1029F00004C01092720910927109BE01615B7F4F91
:102A0000CE01875B9F4F0E94FA5665E979E0CE01BF
:102A10004C960E940F5721E030E04CE2BE01645E0C
:102A20007F4FCE0101960E944E0768E472E0CE010E
:102A300001960E946058F82ECE0101960E947E56A3
:102A4000CE014C960E947E56FF2009F499C061E0A9
:102A500081E090E00E946A0A6B017C0165E979E0FF
:102A6000CE01C7960E940F5720E030E04CE2BE0135
:102A7000695C7F4FCE014C960E944E07BE01645E9A
:102A80007F4FCE0101960E940F576EEA75E0CE018E
:102A900001960E944858BC01CE01815B9F4F0E9465
:102AA0005757CE0101960E947E56CE014C960E9449
:102AB0007E56CE01C7960E947E56B701A601CE0172
:102AC000815B9F4F0E94075865E275E0CE01815BF4
:102AD0009F4F0E945D5765E979E0CE01C7960E943D
:102AE0000F5720E030E04CE2BE01695C7F4FCE0121
:102AF0004C960E944E07BE01645E7F4FCE01019648
:102B00000E940F576EEA75E0CE0101960E94485868
:102B1000BC01CE01875B9F4F0E945757CE010196A3
:102B20000E947E56CE014C960E947E56CE01C796DC
:102B30000E947E5660E081E090E00E946A0AAB014C
:102B4000BC01CE01875B9F4F0E94075865E275E08C
:102B5000CE01875B9F4F0E945D5760E081E090E06F
:102B60000E946A0AAB01BC01CE018B5A9F4F0E94A2
:102B7000075865E275E0CE018B5A9F4F0E945D5762
:102B80006BE979E0CE014C960E940F5721E030E0CE
:102B90004CE2BE01645E7F4FCE0101960E944E075B
:102BA00068E472E0CE0101960E946058F82ECE01D2
:102BB00001960E947E56CE014C960E947E56FF20C2
:102BC00009F499C061E082E090E00E946A0A6B011A
:102BD0007C016BE979E0CE01C7960E940F5720E097
:102BE00030E04CE2BE01695C7F4FCE014C960E9402
:102BF0004E07BE01645E7F4FCE0101960E940F57C3
:102C00006EEA75E0CE0101960E944858BC01CE01E3
:102C1000815B9F4F0E945757CE0101960E947E56BE
:102C2000CE014C960E947E56CE01C7960E947E56DB
:102C3000B701A601CE01815B9F4F0E94075865E254
:102C400075E0CE01815B9F4F0E945D576BE979E093
:102C5000CE01C7960E940F5720E030E04CE2BE0143
:102C6000695C7F4FCE014C960E944E07BE01645EA8
:102C70007F4FCE0101960E940F576EEA75E0CE019C
:102C800001960E944858BC01CE01875B9F4F0E946D
:102C90005757CE0101960E947E56CE014C960E9457
:102CA0007E56CE01C7960E947E5660E082E090E09C
:102CB0000E946A0AAB01BC01CE01875B9F4F0E9454
:102CC000075865E275E0CE01875B9F4F0E945D5714
:102CD00060E082E090E00E946A0AAB01BC01CE0194
:102CE0008B5A9F4F0E94075865E275E0CE018B5AC0
:102CF0009F4F0E945D5761EA79E0CE014C960E9499
:102D00000F5721E030E04CE2BE01645E7F4FCE0100
:102D100001960E944E0768E472E0CE0101960E947F
:102D20006058F82ECE0101960E947E56CE014C9638
:102D30000E947E56FF2009F499C061E083E090E094
:102D40000E946A0A6B017C0161EA79E0CE01C796B4
:102D50000E940F5720E030E04CE2BE01695C7F4FDB
:102D6000CE014C960E944E07BE01645E7F4FCE019D
:102D700001960E940F576EEA75E0CE0101960E94FF
:102D80004858BC01CE01815B9F4F0E945757CE012E
:102D900001960E947E56CE014C960E947E56CE0130
:102DA000C7960E947E56B701A601CE01815B9F4F58
:102DB0000E94075865E275E0CE01815B9F4F0E943B
:102DC0005D5761EA79E0CE01C7960E940F5720E077
:102DD00030E04CE2BE01695C7F4FCE014C960E9410
:102DE0004E07BE01645E7F4FCE0101960E940F57D1
:102DF0006EEA75E0CE0101960E944858BC01CE01F2
:102E0000875B9F4F0E945757CE0101960E947E56C6
:102E1000CE014C960E947E56CE01C7960E947E56E9
:102E200060E083E090E00E946A0AAB01BC01CE0141
:102E3000875B9F4F0E94075865E275E0CE01875B74
:102E40009F4F0E945D5760E083E090E00E946A0A15
:102E5000AB01BC01CE018B5A9F4F0E94075865E21F
:102E600075E0CE018B5A9F4F0E945D5767EA79E06B
:102E7000CE014C960E940F5721E030E04CE2BE019B
:102E8000645E7F4FCE0101960E944E0768E472E0B7
:102E9000CE0101960E946058F82ECE0101960E9444
:102EA0007E56CE014C960E947E56FF2009F499C0B2
:102EB00061E084E090E00E946A0A6B017C0167EAAD
:102EC00079E0CE01C7960E940F5720E030E04CE237
:102ED000BE01695C7F4FCE014C960E944E07BE0139
:102EE000645E7F4FCE0101960E940F576EEA75E037
:102EF000CE0101960E944858BC01CE01815B9F4FD4
:102F00000E945757CE0101960E947E56CE014C96E4
:102F10000E947E56CE01C7960E947E56B701A6013A
:102F2000CE01815B9F4F0E94075865E275E0CE019C
:102F3000815B9F4F0E945D5767EA79E0CE01C7969B
:102F40000E940F5720E030E04CE2BE01695C7F4FE9
:102F5000CE014C960E944E07BE01645E7F4FCE01AB
:102F600001960E940F576EEA75E0CE0101960E940D
:102F70004858BC01CE01875B9F4F0E945757CE0136
:102F800001960E947E56CE014C960E947E56CE013E
:102F9000C7960E947E5660E084E090E00E946A0A34
:102FA000AB01BC01CE01875B9F4F0E94075865E2D1
:102FB00075E0CE01875B9F4F0E945D5760E084E023
:102FC00090E00E946A0AAB01BC01CE018B5A9F4F70
:102FD0000E94075865E275E0CE018B5A9F4F0E9410
:102FE0005D576DEA79E0CE014C960E940F5721E0C3
:102FF00030E04CE2BE01645E7F4FCE0101960E943C
:103000004E0768E472E0CE0101960E946058F82EE7
:10301000CE0101960E947E56CE014C960E947E56AD
:10302000FF2009F499C061E085E090E00E946A0AFF
:103030006B017C016DEA79E0CE01C7960E940F57C3
:1030400020E030E04CE2BE01695C7F4FCE014C963F
:103050000E944E07BE01645E7F4FCE0101960E9422
:103060000F576EEA75E0CE0101960E944858BC01E8
:10307000CE01815B9F4F0E945757CE0101960E945F
:103080007E56CE014C960E947E56CE01C7960E9477
:103090007E56B701A601CE01815B9F4F0E94075863
:1030A00065E275E0CE01815B9F4F0E945D576DEA3E
:1030B00079E0CE01C7960E940F5720E030E04CE245
:1030C000BE01695C7F4FCE014C960E944E07BE0147
:1030D000645E7F4FCE0101960E940F576EEA75E045
:1030E000CE0101960E944858BC01CE01875B9F4FDC
:1030F0000E945757CE0101960E947E56CE014C96F3
:103100000E947E56CE01C7960E947E5660E085E002
:1031100090E00E946A0AAB01BC01CE01875B9F4F21
:103120000E94075865E275E0CE01875B9F4F0E94C1
:103130005D5760E085E090E00E946A0AAB01BC0147
:10314000CE018B5A9F4F0E94075865E275E0CE0171
:103150008B5A9F4F0E945D5763EB79E0CE014C96EE
:103160000E940F5721E030E04CE2BE01645E7F4FC9
:10317000CE0101960E944E0768E472E0CE010196EE
:103180000E946058F82ECE0101960E947E56CE0114
:103190004C960E947E56FF2009F499C061E086E0BB
:1031A00090E00E946A0A6B017C0163EB79E0CE013A
:1031B000C7960E940F5720E030E04CE2BE01695CE8
:1031C0007F4FCE014C960E944E07BE01645E7F4F3A
:1031D000CE0101960E940F576EEA75E0CE0101966E
:1031E0000E944858BC01CE01815B9F4F0E945757F7
:1031F000CE0101960E947E56CE014C960E947E56CC
:10320000CE01C7960E947E56B701A601CE01815B12
:103210009F4F0E94075865E275E0CE01815B9F4F8A
:103220000E945D5763EB79E0CE01C7960E940F576D
:1032300020E030E04CE2BE01695C7F4FCE014C964D
:103240000E944E07BE01645E7F4FCE0101960E9430
:103250000F576EEA75E0CE0101960E944858BC01F6
:10326000CE01875B9F4F0E945757CE0101960E9467
:103270007E56CE014C960E947E56CE01C7960E9485
:103280007E5660E086E090E00E946A0AAB01BC01D5
:10329000CE01875B9F4F0E94075865E275E0CE0123
:1032A000875B9F4F0E945D5760E086E090E00E9440
:1032B0006A0AAB01BC01CE018B5A9F4F0E9407588E
:1032C00065E275E0CE018B5A9F4F0E945D5769EB16
:1032D00079E0CE014C960E940F5721E030E04CE29D
:1032E000BE01645E7F4FCE0101960E944E0768E4E6
:1032F00072E0CE0101960E946058F82ECE01019630
:103300000E947E56CE014C960E947E56FF2009F404
:1033100099C061E087E090E00E946A0A6B017C013D
:1033200069EB79E0CE01C7960E940F5720E030E0AC
:103330004CE2BE01695C7F4FCE014C960E944E0765
:10334000BE01645E7F4FCE0101960E940F576EEA68
:1033500075E0CE0101960E944858BC01CE01815B08
:103360009F4F0E945757CE0101960E947E56CE0174
:103370004C960E947E56CE01C7960E947E56B7019B
:10338000A601CE01815B9F4F0E94075865E275E060
:10339000CE01815B9F4F0E945D5769EB79E0CE01C2
:1033A000C7960E940F5720E030E04CE2BE01695CF6
:1033B0007F4FCE014C960E944E07BE01645E7F4F48
:1033C000CE0101960E940F576EEA75E0CE0101967C
:1033D0000E944858BC01CE01875B9F4F0E945757FF
:1033E000CE0101960E947E56CE014C960E947E56DA
:1033F000CE01C7960E947E5660E087E090E00E9472
:103400006A0AAB01BC01CE01875B9F4F0E9407583F
:1034100065E275E0CE01875B9F4F0E945D5760E0DB
:1034200087E090E00E946A0AAB01BC01CE018B5A92
:103430009F4F0E94075865E275E0CE018B5A9F4F5F
:103440000E945D576FEB79E0CE014C960E940F57BA
:1034500021E030E04CE2BE01645E7F4FCE01019678
:103460000E944E0768E472E0CE0101960E94605807
:10347000F82ECE0101960E947E56CE014C960E94F7
:103480007E56FF2009F499C061E088E090E00E9438
:103490006A0A6B017C016FEB79E0CE01C7960E944E
:1034A0000F5720E030E04CE2BE01695C7F4FCE0157
:1034B0004C960E944E07BE01645E7F4FCE0101967E
:1034C0000E940F576EEA75E0CE0101960E9448589F
:1034D000BC01CE01815B9F4F0E945757CE010196E0
:1034E0000E947E56CE014C960E947E56CE01C79613
:1034F0000E947E56B701A601CE01815B9F4F0E94BC
:10350000075865E275E0CE01815B9F4F0E945D57D1
:103510006FEB79E0CE01C7960E940F5720E030E0B4
:103520004CE2BE01695C7F4FCE014C960E944E0773
:10353000BE01645E7F4FCE0101960E940F576EEA76
:1035400075E0CE0101960E944858BC01CE01875B10
:103550009F4F0E945757CE0101960E947E56CE0182
:103560004C960E947E56CE01C7960E947E5660E021
:1035700088E090E00E946A0AAB01BC01CE01875B43
:103580009F4F0E94075865E275E0CE01875B9F4F11
:103590000E945D5760E088E090E00E946A0AAB01FB
:1035A000BC01CE018B5A9F4F0E94075865E275E01F
:1035B000CE018B5A9F4F0E945D5765EC79E0CE019A
:1035C0004C960E940F5721E030E04CE2BE01645E51
:1035D0007F4FCE0101960E944E0768E472E0CE0153
:1035E00001960E946058F82ECE0101960E947E56E8
:1035F000CE014C960E947E56FF2009F499C061E0EE
:1036000089E090E00E946A0A6B017C0165EC79E038
:10361000CE01C7960E940F5720E030E04CE2BE0179
:10362000695C7F4FCE014C960E944E07BE01645EDE
:103630007F4FCE0101960E940F576EEA75E0CE01D2
:1036400001960E944858BC01CE01815B9F4F0E94A9
:103650005757CE0101960E947E56CE014C960E948D
:103660007E56CE01C7960E947E56B701A601CE01B6
:10367000815B9F4F0E94075865E275E0CE01815B38
:103680009F4F0E945D5765EC79E0CE01C7960E947E
:103690000F5720E030E04CE2BE01695C7F4FCE0165
:1036A0004C960E944E07BE01645E7F4FCE0101968C
:1036B0000E940F576EEA75E0CE0101960E944858AD
:1036C000BC01CE01875B9F4F0E945757CE010196E8
:1036D0000E947E56CE014C960E947E56CE01C79621
:1036E0000E947E5660E089E090E00E946A0AAB0189
:1036F000BC01CE01875B9F4F0E94075865E275E0D1
:10370000CE01875B9F4F0E945D5760E089E090E0AB
:103710000E946A0AAB01BC01CE018B5A9F4F0E94E6
:10372000075865E275E0CE018B5A9F4F0E945D57A6
:103730006BEC79E0CE014C960E940F5721E030E00F
:103740004CE2BE01645E7F4FCE0101960E944E079F
:1037500068E472E0CE0101960E946058F82ECE0116
:1037600001960E947E56CE014C960E947E56FF2006
:1037700009F499C061E08AE090E00E946A0A6B0156
:103780007C016BEC79E0CE01C7960E940F5720E0D8
:1037900030E04CE2BE01695C7F4FCE014C960E9446
:1037A0004E07BE01645E7F4FCE0101960E940F5707
:1037B0006EEA75E0CE0101960E944858BC01CE0128
:1037C000815B9F4F0E945757CE0101960E947E5603
:1037D000CE014C960E947E56CE01C7960E947E5620
:1037E000B701A601CE01815B9F4F0E94075865E299
:1037F00075E0CE01815B9F4F0E945D576BEC79E0D5
:10380000CE01C7960E940F5720E030E04CE2BE0187
:10381000695C7F4FCE014C960E944E07BE01645EEC
:103820007F4FCE0101960E940F576EEA75E0CE01E0
:1038300001960E944858BC01CE01875B9F4F0E94B1
:103840005757CE0101960E947E56CE014C960E949B
:103850007E56CE01C7960E947E5660E08AE090E0D8
:103860000E946A0AAB01BC01CE01875B9F4F0E9498
:10387000075865E275E0CE01875B9F4F0E945D5758
:1038800060E08AE090E00E946A0AAB01BC01CE01D0
:103890008B5A9F4F0E94075865E275E0CE018B5A04
:1038A0009F4F0E945D5761ED79E0CE014C960E94DA
:1038B0000F5721E030E04CE2BE01645E7F4FCE0145
:1038C00001960E944E0768E472E0CE0101960E94C4
:1038D0006058F82ECE0101960E947E56CE014C967D
:1038E0000E947E56FF2009F499C061E08BE090E0D1
:1038F0000E946A0A6B017C0161ED79E0CE01C796F6
:103900000E940F5720E030E04CE2BE01695C7F4F1F
:10391000CE014C960E944E07BE01645E7F4FCE01E1
:1039200001960E940F576EEA75E0CE0101960E9443
:103930004858BC01CE01815B9F4F0E945757CE0172
:1039400001960E947E56CE014C960E947E56CE0174
:10395000C7960E947E56B701A601CE01815B9F4F9C
:103960000E94075865E275E0CE01815B9F4F0E947F
:103970005D5761ED79E0CE01C7960E940F5720E0B8
:1039800030E04CE2BE01695C7F4FCE014C960E9454
:103990004E07BE01645E7F4FCE0101960E940F5715
:1039A0006EEA75E0CE0101960E944858BC01CE0136
:1039B000875B9F4F0E945757CE0101960E947E560B
:1039C000CE014C960E947E56CE01C7960E947E562E
:1039D00060E08BE090E00E946A0AAB01BC01CE017E
:1039E000875B9F4F0E94075865E275E0CE01875BB9
:1039F0009F4F0E945D5760E08BE090E00E946A0A52
:103A0000AB01BC01CE018B5A9F4F0E94075865E263
:103A100075E0CE018B5A9F4F0E945D5767ED79E0AC
:103A2000CE014C960E940F5721E030E04CE2BE01DF
:103A3000645E7F4FCE0101960E944E0768E472E0FB
:103A4000CE0101960E946058F82ECE0101960E9488
:103A50007E56CE014C960E947E56FF2009F499C0F6
:103A600061E08CE090E00E946A0A6B017C0167EDE6
:103A700079E0CE01C7960E940F5720E030E04CE27B
:103A8000BE01695C7F4FCE014C960E944E07BE017D
:103A9000645E7F4FCE0101960E940F576EEA75E07B
:103AA000CE0101960E944858BC01CE01815B9F4F18
:103AB0000E945757CE0101960E947E56CE014C9629
:103AC0000E947E56CE01C7960E947E56B701A6017F
:103AD000CE01815B9F4F0E94075865E275E0CE01E1
:103AE000815B9F4F0E945D5767ED79E0CE01C796DD
:103AF0000E940F5720E030E04CE2BE01695C7F4F2E
:103B0000CE014C960E944E07BE01645E7F4FCE01EF
:103B100001960E940F576EEA75E0CE0101960E9451
:103B20004858BC01CE01875B9F4F0E945757CE017A
:103B300001960E947E56CE014C960E947E56CE0182
:103B4000C7960E947E5660E08CE090E00E946A0A70
:103B5000AB01BC01CE01875B9F4F0E94075865E215
:103B600075E0CE01875B9F4F0E945D5760E08CE05F
:103B700090E00E946A0AAB01BC01CE018B5A9F4FB4
:103B80000E94075865E275E0CE018B5A9F4F0E9454
:103B90005D576DED79E0CE014C960E940F5721E004
:103BA00030E04CE2BE01645E7F4FCE0101960E9480
:103BB0004E0768E472E0CE0101960E946058F82E2C
:103BC000CE0101960E947E56CE014C960E947E56F2
:103BD000FF2009F499C061E08DE090E00E946A0A3C
:103BE0006B017C016DED79E0CE01C7960E940F5705
:103BF00020E030E04CE2BE01695C7F4FCE014C9684
:103C00000E944E07BE01645E7F4FCE0101960E9466
:103C10000F576EEA75E0CE0101960E944858BC012C
:103C2000CE01815B9F4F0E945757CE0101960E94A3
:103C30007E56CE014C960E947E56CE01C7960E94BB
:103C40007E56B701A601CE01815B9F4F0E940758A7
:103C500065E275E0CE01815B9F4F0E945D576DED7F
:103C600079E0CE01C7960E940F5720E030E04CE289
:103C7000BE01695C7F4FCE014C960E944E07BE018B
:103C8000645E7F4FCE0101960E940F576EEA75E089
:103C9000CE0101960E944858BC01CE01875B9F4F20
:103CA0000E945757CE0101960E947E56CE014C9637
:103CB0000E947E56CE01C7960E947E5660E08DE03F
:103CC00090E00E946A0AAB01BC01CE01875B9F4F66
:103CD0000E94075865E275E0CE01875B9F4F0E9406
:103CE0005D5760E08DE090E00E946A0AAB01BC0184
:103CF000CE018B5A9F4F0E94075865E275E0CE01B6
:103D00008B5A9F4F0E945D5763EE79E0CE014C962F
:103D10000E940F5721E030E04CE2BE01645E7F4F0D
:103D2000CE0101960E944E0768E472E0CE01019632
:103D30000E946058F82ECE0101960E947E56CE0158
:103D40004C960E947E56FF2009F499C061E08EE0F7
:103D500090E00E946A0A6B017C0163EE79E0CE017B
:103D6000C7960E940F5720E030E04CE2BE01695C2C
:103D70007F4FCE014C960E944E07BE01645E7F4F7E
:103D8000CE0101960E940F576EEA75E0CE010196B2
:103D90000E944858BC01CE01815B9F4F0E9457573B
:103DA000CE0101960E947E56CE014C960E947E5610
:103DB000CE01C7960E947E56B701A601CE01815B57
:103DC0009F4F0E94075865E275E0CE01815B9F4FCF
:103DD0000E945D5763EE79E0CE01C7960E940F57AF
:103DE00020E030E04CE2BE01695C7F4FCE014C9692
:103DF0000E944E07BE01645E7F4FCE0101960E9475
:103E00000F576EEA75E0CE0101960E944858BC013A
:103E1000CE01875B9F4F0E945757CE0101960E94AB
:103E20007E56CE014C960E947E56CE01C7960E94C9
:103E30007E5660E08EE090E00E946A0AAB01BC0111
:103E4000CE01875B9F4F0E94075865E275E0CE0167
:103E5000875B9F4F0E945D5760E08EE090E00E947C
:103E60006A0AAB01BC01CE018B5A9F4F0E940758D2
:103E700065E275E0CE018B5A9F4F0E945D5769EE57
:103E800079E0CE014C960E940F5721E030E04CE2E1
:103E9000BE01645E7F4FCE0101960E944E0768E42A
:103EA00072E0CE0101960E946058F82ECE01019674
:103EB0000E947E56CE014C960E947E56FF2009F449
:103EC00099C061E08FE090E00E946A0A6B017C017A
:103ED00069EE79E0CE01C7960E940F5720E030E0EE
:103EE0004CE2BE01695C7F4FCE014C960E944E07AA
:103EF000BE01645E7F4FCE0101960E940F576EEAAD
:103F000075E0CE0101960E944858BC01CE01815B4C
:103F10009F4F0E945757CE0101960E947E56CE01B8
:103F20004C960E947E56CE01C7960E947E56B701DF
:103F3000A601CE01815B9F4F0E94075865E275E0A4
:103F4000CE01815B9F4F0E945D5769EE79E0CE0103
:103F5000C7960E940F5720E030E04CE2BE01695C3A
:103F60007F4FCE014C960E944E07BE01645E7F4F8C
:103F7000CE0101960E940F576EEA75E0CE010196C0
:103F80000E944858BC01CE01875B9F4F0E94575743
:103F9000CE0101960E947E56CE014C960E947E561E
:103FA000CE01C7960E947E5660E08FE090E00E94AE
:103FB0006A0AAB01BC01CE01875B9F4F0E94075884
:103FC00065E275E0CE01875B9F4F0E945D5760E020
:103FD0008FE090E00E946A0AAB01BC01CE018B5ACF
:103FE0009F4F0E94075865E275E0CE018B5A9F4FA4
:103FF0000E945D576FEE79E0CE014C960E940F57FC
:1040000021E030E04CE2BE01645E7F4FCE010196BC
:104010000E944E0768E472E0CE0101960E9460584B
:10402000F82ECE0101960E947E56CE014C960E943B
:104030007E56FF2009F499C061E080E190E00E9483
:104040006A0A6B017C016FEE79E0CE01C7960E948F
:104050000F5720E030E04CE2BE01695C7F4FCE019B
:104060004C960E944E07BE01645E7F4FCE010196C2
:104070000E940F576EEA75E0CE0101960E944858E3
:10408000BC01CE01815B9F4F0E945757CE01019624
:104090000E947E56CE014C960E947E56CE01C79657
:1040A0000E947E56B701A601CE01815B9F4F0E9400
:1040B000075865E275E0CE01815B9F4F0E945D5716
:1040C0006FEE79E0CE01C7960E940F5720E030E0F6
:1040D0004CE2BE01695C7F4FCE014C960E944E07B8
:1040E000BE01645E7F4FCE0101960E940F576EEABB
:1040F00075E0CE0101960E944858BC01CE01875B55
:104100009F4F0E945757CE0101960E947E56CE01C6
:104110004C960E947E56CE01C7960E947E5660E065
:1041200080E190E00E946A0AAB01BC01CE01875B8E
:104130009F4F0E94075865E275E0CE01875B9F4F55
:104140000E945D5760E080E190E00E946A0AAB0146
:10415000BC01CE018B5A9F4F0E94075865E275E063
:10416000CE018B5A9F4F0E945D5768E472E085EF45
:1041700099E00E9460588823F1F181E090E00E946C
:1041800045136B017C0162EA75E0CE01815B9F4FB4
:104190000E945D57B701A601CE01815B9F4F0E942F
:1041A000075865E275E0CE01815B9F4F0E945D5725
:1041B00062EA75E0CE01875B9F4F0E945D57B701B1
:1041C000A601CE01875B9F4F0E94075865E275E00C
:1041D000CE01875B9F4F0E945D57B701A601CE01BC
:1041E0008B5A9F4F0E94075865E275E0CE018B5AAB
:1041F0009F4F0E945D5768E472E08BEF99E00E9448
:1042000060588823F1F182E090E00E9445136B0131
:104210007C0160EB75E0CE01815B9F4F0E945D5792
:10422000B701A601CE01815B9F4F0E94075865E24E
:1042300075E0CE01815B9F4F0E945D5760EB75E09A
:10424000CE01875B9F4F0E945D57B701A601CE014B
:10425000875B9F4F0E94075865E275E0CE01875B40
:104260009F4F0E945D57B701A601CE018B5A9F4F09
:104270000E94075865E275E0CE018B5A9F4F0E945D
:104280005D5725966EAD7FAD25978AEE9AE00E9428
:104290009A32F82E25964EAD5FAD259723E16AEE52
:1042A0007AE0CE014C960E9415326BEA73E080EA08
:1042B0009DE00E948554BE016D5B7F4F80EA9DE0CA
:1042C0000E9477546FEB73E080EA9DE00E94855472
:1042D000CE014C960E94CD2F8823F9F0F1100FC02B
:1042E000CE0101960E94C707BE016F5F7F4FCE01CE
:1042F0004C960E949054CE0101960E947E56BE01BB
:104300006B5A7F4FCE014C960E949054CE014C9632
:104310000E94BB2F65EC73E002C069ED73E080EA98
:104320009DE00E94A0544DAD5EAD23E16AEE7AE0BF
:10433000CE0101960E9415328B819C819F8F8E8FBA
:104340008D819E81AF81B88588A399A3AAA3BBA3C1
:1043500089859A85AB85BC858CA39DA3AEA3BFA39D
:104360008DE0FE013D96DE01989601900D928A95B2
:10437000E1F78A8D9B8D9EAB8DAB6BEA73E080EA93
:104380009DE00E948554BE01635C7F4F80EA9DE002
:104390000E9477546FEB73E080EA9DE00E948554A1
:1043A000CE014C960E94CD2F882371F0BE01615B37
:1043B0007F4FCE014C960E949054CE014C960E94A5
:1043C000BB2F6EEB75E002C069ED73E080EA9DE003
:1043D0000E94A054BE01615B7F4FCE0101960E94F6
:1043E0000F57CE0101960E949005CE0101960E94C2
:1043F0007E56BE01675B7F4FCE0101960E940F572C
:10440000CE0101960E94BB05CE0101960E947E5608
:10441000CE01CD960E947E56CE018D5B9F4F0E94AD
:104420007E56CE01875B9F4F0E947E56CE01815BF8
:104430009F4F0E947E56CE018B5A9F4F0E947E5600
:10444000C65ADF4F0FB6F894DEBF0FBECDBFDF9167
:10445000CF91FF90EF90DF90CF9008950F931F932F
:10446000CF93DF93CDB7DEB72C970FB6F894DEBFAE
:104470000FBECDBF8C0166ED75E080EA9DE00E9425
:104480008554B801CE0107960E94DA42BE01695FE9
:104490007F4FCE0101960E943804BE016F5F7F4FAF
:1044A00080EA9DE00E947754CE0101960E947E56DC
:1044B00068E472E089E899E00E946058882381F0FE
:1044C0006DED75E080EA9DE00E948554609173096E
:1044D000709174094AE050E080EA9DE00E944455E2
:1044E00068E472E08FE899E00E946058882381F0C8
:1044F00063EE75E080EA9DE00E9485546091710949
:10450000709172094AE050E080EA9DE00E944455B3
:1045100065E979E0CE0107960E940F5721E030E06F
:104520004CE2BE01695F7F4FCE0101960E944E07AB
:1045300068E472E0CE0101960E946058182FCE0107
:1045400001960E947E56CE0107960E947E56112348
:1045500099F069EE75E080EA9DE00E94855460E084
:1045600081E090E00E946A0AAB01BC0122E030E0E9
:1045700080EA9DE00E9438566BE979E0CE0107960B
:104580000E940F5721E030E04CE2BE01695F7F4F8F
:10459000CE0101960E944E0768E472E0CE010196BA
:1045A0000E946058182FCE0101960E947E56CE01BF
:1045B00007960E947E56112399F06FEE75E080EA0F
:1045C0009DE00E94855460E082E090E00E946A0ACB
:1045D000AB01BC0122E030E080EA9DE00E94385649
:1045E00061EA79E0CE0107960E940F5721E030E0A2
:1045F0004CE2BE01695F7F4FCE0101960E944E07DB
:1046000068E472E0CE0101960E946058182FCE0136
:1046100001960E947E56CE0107960E947E56112377
:1046200099F065EF75E080EA9DE00E94855460E0B6
:1046300083E090E00E946A0AAB01BC0122E030E016
:1046400080EA9DE00E94385667EA79E0CE0107963D
:104650000E940F5721E030E04CE2BE01695F7F4FBE
:10466000CE0101960E944E0768E472E0CE010196E9
:104670000E946058182FCE0101960E947E56CE01EE
:1046800007960E947E56112399F06BEF75E080EA41
:104690009DE00E94855460E084E090E00E946A0AF8
:1046A000AB01BC0122E030E080EA9DE00E94385678
:1046B0006DEA79E0CE0107960E940F5721E030E0C5
:1046C0004CE2BE01695F7F4FCE0101960E944E070A
:1046D00068E472E0CE0101960E946058182FCE0166
:1046E00001960E947E56CE0107960E947E561123A7
:1046F00099F061E076E080EA9DE00E94855460E0F8
:1047000085E090E00E946A0AAB01BC0122E030E043
:1047100080EA9DE00E94385663EB79E0CE0107966F
:104720000E940F5721E030E04CE2BE01695F7F4FED
:10473000CE0101960E944E0768E472E0CE01019618
:104740000E946058182FCE0101960E947E56CE011D
:1047500007960E947E56112399F067E076E080EA82
:104760009DE00E94855460E086E090E00E946A0A25
:10477000AB01BC0122E030E080EA9DE00E943856A7
:1047800069EB79E0CE0107960E940F5721E030E0F7
:104790004CE2BE01695F7F4FCE0101960E944E0739
:1047A00068E472E0CE0101960E946058182FCE0195
:1047B00001960E947E56CE0107960E947E561123D6
:1047C00099F06DE076E080EA9DE00E94855460E01B
:1047D00087E090E00E946A0AAB01BC0122E030E071
:1047E00080EA9DE00E9438566FEB79E0CE01079693
:1047F0000E940F5721E030E04CE2BE01695F7F4F1D
:10480000CE0101960E944E0768E472E0CE01019647
:104810000E946058182FCE0101960E947E56CE014C
:1048200007960E947E56112399F063E176E080EAB4
:104830009DE00E94855460E088E090E00E946A0A52
:10484000AB01BC0122E030E080EA9DE00E943856D6
:1048500065EC79E0CE0107960E940F5721E030E029
:104860004CE2BE01695F7F4FCE0101960E944E0768
:1048700068E472E0CE0101960E946058182FCE01C4
:1048800001960E947E56CE0107960E947E56112305
:1048900099F069E176E080EA9DE00E94855460E04D
:1048A00089E090E00E946A0AAB01BC0122E030E09E
:1048B00080EA9DE00E9438566BEC79E0CE010796C5
:1048C0000E940F5721E030E04CE2BE01695F7F4F4C
:1048D000CE0101960E944E0768E472E0CE01019677
:1048E0000E946058182FCE0101960E947E56CE017C
:1048F00007960E947E56112399F06FE176E080EAD8
:104900009DE00E94855460E08AE090E00E946A0A7F
:10491000AB01BC0122E030E080EA9DE00E94385605
:1049200061ED79E0CE0107960E940F5721E030E05B
:104930004CE2BE01695F7F4FCE0101960E944E0797
:1049400068E472E0CE0101960E946058182FCE01F3
:1049500001960E947E56CE0107960E947E56112334
:1049600099F066E276E080EA9DE00E94855460E07E
:104970008BE090E00E946A0AAB01BC0122E030E0CB
:1049800080EA9DE00E94385667ED79E0CE010796F7
:104990000E940F5721E030E04CE2BE01695F7F4F7B
:1049A000CE0101960E944E0768E472E0CE010196A6
:1049B0000E946058182FCE0101960E947E56CE01AB
:1049C00007960E947E56112399F06DE276E080EA08
:1049D0009DE00E94855460E08CE090E00E946A0AAD
:1049E000AB01BC0122E030E080EA9DE00E94385635
:1049F0006DED79E0CE0107960E940F5721E030E07F
:104A00004CE2BE01695F7F4FCE0101960E944E07C6
:104A100068E472E0CE0101960E946058182FCE0122
:104A200001960E947E56CE0107960E947E56112363
:104A300099F064E376E080EA9DE00E94855460E0AE
:104A40008DE090E00E946A0AAB01BC0122E030E0F8
:104A500080EA9DE00E94385663EE79E0CE01079629
:104A60000E940F5721E030E04CE2BE01695F7F4FAA
:104A7000CE0101960E944E0768E472E0CE010196D5
:104A80000E946058182FCE0101960E947E56CE01DA
:104A900007960E947E56112399F06BE376E080EA38
:104AA0009DE00E94855460E08EE090E00E946A0ADA
:104AB000AB01BC0122E030E080EA9DE00E94385664
:104AC00069EE79E0CE0107960E940F5721E030E0B1
:104AD0004CE2BE01695F7F4FCE0101960E944E07F6
:104AE00068E472E0CE0101960E946058182FCE0152
:104AF00001960E947E56CE0107960E947E56112393
:104B000099F062E476E080EA9DE00E94855460E0DE
:104B10008FE090E00E946A0AAB01BC0122E030E025
:104B200080EA9DE00E9438566FEE79E0CE0107964C
:104B30000E940F5721E030E04CE2BE01695F7F4FD9
:104B4000CE0101960E944E0768E472E0CE01019604
:104B50000E946058182FCE0101960E947E56CE0109
:104B600007960E947E56112399F069E476E080EA68
:104B70009DE00E94855460E080E190E00E946A0A16
:104B8000AB01BC0122E030E080EA9DE00E94385693
:104B900068E472E085EF99E00E946058882391F004
:104BA00060E576E080EA9DE00E94855481E090E037
:104BB0000E944513AB01BC0122E030E080EA9DE099
:104BC0000E94385668E472E08BEF99E00E946058CA
:104BD000882391F060E676E080EA9DE00E948554AB
:104BE00082E090E00E944513AB01BC0122E030E07E
:104BF00080EA9DE00E9438566FE079E080EA9DE00F
:104C00000E94A0542C960FB6F894DEBF0FBECDBF05
:104C1000DF91CF911F910F910895CF93DF93EC0116
:104C20008A579F4F0E947E56CE0180589F4F0E9408
:104C30007E56CE0186589F4F0E947E56CE018C58DC
:104C40009F4F0E947E56CE0182599F4F0E947E56F2
:104C5000CE0188599F4F0E947E56CE018E599F4F9C
:104C60000E947E56CE01845A9F4F0E947E56CE01EE
:104C70008A5A9F4F0E947E56CE01805B9F4F0E94B2
:104C80007E56CE01865B9F4F0E947E56CE018C5B86
:104C90009F4F0E947E56CE01CE960E947E56CE0138
:104CA000C8960E947E56CE01C2960E947E56CE01C4
:104CB0008C960E947E56CE0186960E947E56CE012C
:104CC00080960E947E56CE014A960E947E56CE0164
:104CD00044960E947E56CE010E960E947E56CE01CC
:104CE00008960E947E56CE01DF91CF910C947E569D
:104CF00048E150E066E170E08BE19AE00E94514BA0
:104D00004CE150E06AE170E08BE09AE00E94514B88
:104D100045E164E181E09AE00E94ED4685E799E093
:104D20000E947D0210926309109264091092670933
:104D30001092690982E090E0A0E0B0E08093400921
:104D400090934109A0934209B093430910925709E7
:104D500010922609109225098DEE98E0909324096F
:104D6000809323091092280940E050E0BA018CE1B9
:104D700099E00C947C4285E799E04FCFCF93DF9385
:104D8000CDB7DEB72C970FB6F894DEBF0FBECDBF00
:104D900080916F09909170090196909370098093AA
:104DA0006F090E942343AB01BC01CE0107960E940C
:104DB0007C42BE01695F7F4FCE0101960E94DA42BC
:104DC000CE0101964BDB80916F099091700901979C
:104DD000B1F46CE179E0CE0101960E94DA42CE0195
:104DE00001960E9462131092700910926F098DE370
:104DF0009EE00E94A6508AED9EE00E94A65060E7C9
:104E000076E080EA9DE00E9485545BD54AE050E060
:104E1000BC0180EA9DE00E9444556DE278E080EAA2
:104E20009DE00E94855481E09AE00E940349AB0115
:104E3000BC0122E030E080EA9DE00E9438566EE836
:104E400076E080EA9DE00E94A0546FE079E080EA7D
:104E50009DE00E94A0542C960FB6F894DEBF0FBEC2
:104E6000CDBFDF91CF910895EF92FF920F9381E034
:104E700080936E0980917B0990917C092CE3289F97
:104E8000A001299F500D1124662757FD6095762FAC
:104E9000411551056105710551F0EE24E394F12CA3
:104EA00000E02EEB36E283E59DE00E94574660E984
:104EB00076E080EA9DE00E94A0546FE079E080EA0D
:104EC0009DE00E94A0540F91FF90EF9057CF0F9359
:104ED0001F93CF93DF93CDB7DEB76A970FB6F894E1
:104EE000DEBF0FBECDBF80916D09882361F06DEAF2
:104EF00076E080EA9DE00E94A05460E177E280E0E5
:104F000090E00E94044E80910602882309F499C023
:104F100081E09AE00E945B4929833A834B835C835A
:104F20006D837E838F83988789019A01AB01BC01D1
:104F300081E09AE00E94F146AB01BC01CE010996E6
:104F40000E947C4286E0FE013996ACE1B9E0019016
:104F50000D928A95E1F780916E09882309F44BC080
:104F60008091830990918409892BE1F185E492E095
:104F7000892BC1F187E79FE00E941F501816190680
:104F80008CF567E77FE0CE0145960E946756BE012B
:104F90006B5E7F4FCE0109960E940F576CE179E05E
:104FA000CE010F960E94DA42BE01675F7F4FCE01AD
:104FB0000F960E94A603CE0109960E947E56BE015E
:104FC0006B5E7F4FCE0109960E940F57CE01099666
:104FD0000E949005CE0109960E947E56CE0145960C
:104FE0000E947E5648EE53E060E070E083E59DE06D
:104FF0000E942F460CC065E277E080EA9DE00E94A7
:10500000855468EE73E080E090E00E94044EA8951D
:1050100080916E0981113AC04091200920917B094D
:1050200030917C09842F90E0B9010E94585B892B54
:1050300011F41ADF2BC0411129C02C33310531F591
:10504000F8CF67ED76E080EA9DE00E94A054809161
:105050006B0990916C09892B99F46DED76E08AEDDE
:105060009EE00E9485548AED9EE00E948D548091BE
:105070006B0990916C09019690936C0980936B0970
:1050800060E177E280E090E00E94044E6A960FB6FD
:10509000F894DEBF0FBECDBFDF91CF911F910F916E
:1050A0000895DF92EF92FF920F931F93CF93DF93B8
:1050B000CDB7DEB7A8970FB6F894DEBF0FBECDBF51
:1050C00021E043EF56E06AEE7AE08E010F5F1F4F5A
:1050D000C8010E941532C80160D781110EC06EEF61
:1050E00076E080EA9DE00E94A05467E277E080EAE3
:1050F0009DE00E94A05480E00FC36CE377E080EA5B
:105100009DE00E9485546FE079E0CE0182960E9476
:10511000E5566FE079E0CE014C960E94E556E02E10
:10512000D12EC801FBD6892B09F4DFC2C80157D69E
:10513000682F8F3229F4C80152D68A30E1F7F1CFB7
:10514000992787FD909568A70E94175E68A5892B0F
:1051500029F0CE0182960E946C57E3CF6D3309F798
:10516000C8013DD6F82E80E2F816D1F36EE577E05F
:10517000CE0182960E9460588823B9F06FE079E0F2
:10518000CE014C960E9417576F2DCE014C960E946F
:105190006C57C80124D6F82E8AE0F812F5CFBE016C
:1051A000645E7F4F85E799E040C063E677E0CE011B
:1051B00082960E9460588823D1F06FE079E0CE019A
:1051C0004C960E9417576F2DCE014C960E946C573B
:1051D000C80105D6F82E8AE0F812F5CF8C8D9D8D8A
:1051E0000E94FA5D90937C0980937B0977C263E704
:1051F00077E0CE0182960E9460588823C9F06FE064
:1052000079E0CE014C960E9417576F2DCE014C9637
:105210000E946C57C801E3D5F82E8AE0F812F5CF4A
:10522000BE01645E7F4F8DE799E00E94FA5656C238
:105230006EE777E0CE0182960E9460588823B9F02D
:105240006FE079E0CE014C960E9417576F2DCE018A
:105250004C960E946C57C801C2D5F82E8AE0F8120D
:10526000F5CFBE01645E7F4F89E899E0DECF61E84B
:1052700077E0CE0182960E9460588823B9F06FE0F3
:1052800079E0CE014C960E9417576F2DCE014C96B7
:105290000E946C57C801A3D5F82E8AE0F812F5CF0A
:1052A000BE01645E7F4F8FE899E0BFCF63E574E095
:1052B000CE0182960E9460588823B9F06FE079E0B1
:1052C000CE014C960E9417576F2DCE014C960E942E
:1052D0006C57C80184D5F82E8AE0F812F5CFBE01CC
:1052E000645E7F4F83E899E0A0CF64E877E0CE0169
:1052F00082960E9460588823B9F06FE079E0CE0171
:105300004C960E9417576F2DCE014C960E946C57F9
:10531000C80165D5F82E8AE0F812F5CFBE01645EAB
:105320007F4F85E999E081CF67E877E0CE018296EB
:105330000E9460588823B9F06FE079E0CE014C9666
:105340000E9417576F2DCE014C960E946C57C801D2
:1053500046D5F82E8AE0F812F5CFBE01645E7F4F85
:105360008BE999E062CF6AE877E0CE0182960E94ED
:1053700060588823B9F06FE079E0CE014C960E9426
:1053800017576F2DCE014C960E946C57C80127D538
:10539000F82E8AE0F812F5CFBE01645E7F4F81EAF5
:1053A00099E043CF6DE877E0CE0182960E94605885
:1053B0008823B9F06FE079E0CE014C960E94175730
:1053C0006F2DCE014C960E946C57C80108D5F82E5F
:1053D0008AE0F812F5CFBE01645E7F4F87EA99E05C
:1053E00024CF60E977E0CE0182960E94605888233E
:1053F000B9F06FE079E0CE014C960E9417576F2DFF
:10540000CE014C960E946C57C801E9D4F82E8AE070
:10541000F812F5CFBE01645E7F4F8DEA99E005CFAB
:1054200063E977E0CE0182960E9460588823B9F044
:105430006FE079E0CE014C960E9417576F2DCE0198
:105440004C960E946C57C801CAD4F82E8AE0F81214
:10545000F5CFBE01645E7F4F83EB99E0E6CE66E94F
:1054600077E0CE0182960E9460588823B9F06FE001
:1054700079E0CE014C960E9417576F2DCE014C96C5
:105480000E946C57C801ABD4F82E8AE0F812F5CF11
:10549000BE01645E7F4F89EB99E0C7CE69E977E092
:1054A000CE0182960E9460588823B9F06FE079E0BF
:1054B000CE014C960E9417576F2DCE014C960E943C
:1054C0006C57C8018CD4F82E8AE0F812F5CFBE01D3
:1054D000645E7F4F8FEB99E0A8CE6CE977E0CE0158
:1054E00082960E9460588823B9F06FE079E0CE017F
:1054F0004C960E9417576F2DCE014C960E946C5708
:10550000C8016DD4F82E8AE0F812F5CFBE01645EB2
:105510007F4F85EC99E089CE6FE977E0CE018296E6
:105520000E9460588823B9F06FE079E0CE014C9674
:105530000E9417576F2DCE014C960E946C57C801E0
:105540004ED4F82E8AE0F812F5CFBE01645E7F4F8C
:105550008BEC99E06ACE63EA77E0CE0182960E94F6
:1055600060588823B9F06FE079E0CE014C960E9434
:1055700017576F2DCE014C960E946C57C8012FD43F
:10558000F82E8AE0F812F5CFBE01645E7F4F81ED00
:1055900099E04BCE67EA77E0CE0182960E94605890
:1055A0008823B9F06FE079E0CE014C960E9417573E
:1055B0006F2DCE014C960E946C57C80110D4F82E66
:1055C0008AE0F812F5CFBE01645E7F4F87ED99E067
:1055D0002CCE6BEA77E0CE0182960E946058882339
:1055E000B9F06FE079E0CE014C960E9417576F2D0D
:1055F000CE014C960E946C57C801F1D3F82E8AE078
:10560000F812F5CFBE01645E7F4F8DED99E00DCEAF
:105610006FEA77E0CE0182960E9460588823B9F045
:105620006FE079E0CE014C960E9417576F2DCE01A6
:105630004C960E946C57C801D2D3F82E8AE0F8121B
:10564000F5CFBE01645E7F4F83EE99E0EECD63EB54
:1056500077E0CE0182960E9460588823B9F06FE00F
:1056600079E0CE014C960E9417576F2DCE014C96D3
:105670000E946C57C801B3D3F82E8AE0F812F5CF18
:10568000BE01645E7F4F89EE99E0CFCD67EB77E096
:10569000CE0182960E9460588823C1F06FE079E0C5
:1056A000CE014C960E9417576F2DCE014C960E944A
:1056B0006C578E2D9D2D93D3F82E8AE0F812F4CFDF
:1056C000BE01645E7F4F8FEE99E0AFCD8AE0F816A1
:1056D00029F08E2D9D2D83D3F82EF8CF6FE079E041
:1056E000CE0182960E9417571CCD6BEB77E080EAC3
:1056F0009DE00E94A0546FE079E080EA9DE00E9466
:10570000A054C80138D4CE014C960E947E56CE01DA
:1057100082960E947E5681E0A8960FB6F894DEBF6E
:105720000FBECDBFDF91CF911F910F91FF90EF90F2
:10573000DF90089526E040E855E260E070E080EAFE
:105740009DE00E942B5126E040E855E260E070E0C9
:105750008DE39EE00E942B5126E040E855E260E098
:1057600070E08AED9EE00E942B5126E040E855E271
:1057700060E070E087E79FE00E942B518BE29AE0A7
:105780005DD181E09AE00E94B84661EE77E080EA60
:105790009DE00E9485548AE592E00E94B34361E057
:1057A00070E080E090E00E94C8430E941A036DEE12
:1057B00077E080EA9DE00E94855460E38AEE9AE0FB
:1057C00021D581110BC069E078E080EA9DE00E945C
:1057D000855481E08093220980936D0940E361E064
:1057E0008EE599E0EBD781110BC06CE178E080EA9F
:1057F0009DE00E94855481E08093220980936D0989
:1058000041E06EE579E080E499E00E943441811145
:105810000DC040E06EE579E080E499E00E943441FB
:10582000811104C080912209882379F180916D094A
:10583000882339F06FE278E080EA9DE00E94855489
:1058400006C066E478E080EA9DE00E94A05480EA09
:105850009DE00E948D5480912209811108C021DCB5
:10586000809306020E9424060E94610502C01092E5
:10587000060229E288E190E00FB6F894A89580939B
:1058800060000FBE2093600008956FE578E080EA25
:105890009DE00E94A05481E080932209C7CFE0914F
:1058A0001610F091171080E090E0309749F00296C2
:1058B00020813181820F931F0280F381E02DF5CF8B
:1058C00008950F931F93CF93DF931F921F92CDB72D
:1058D000DEB780911410909115108E010F5F1F4F4D
:1058E000009729F40A5110411A83098309C0081B43
:1058F000190B1A830983D3DF800F911F9A83898341
:1059000089819A810F900F90DF91CF911F910F9114
:10591000089580915A0A90E020915B0A821B9109B8
:10592000089520915B0A80915A0A281750F4E22FBB
:10593000F0E0E45AF54F808190E02F5F20935B0AFE
:1059400008958FEF9FEF0895E0915B0A80915A0AC6
:10595000E81730F4F0E0E45AF54F808190E00895C4
:105960008FEF9FEF08950895CF92DF92EF92FF920D
:105970000F931F93CF93DF937C01CB018A0120917A
:10598000370A222389F0EB016B01C40ED51ECC151A
:10599000DD0561F06991D701ED91FC910190F081F5
:1059A000E02DC7011995F3CF642F72D0C801DF91A4
:1059B000CF911F910F91FF90EF90DF90CF900895BE
:1059C000CF93DF931F92CDB7DEB769832091370A5B
:1059D0002223D1F02091380A203240F021E030E03B
:1059E000FC013383228380E090E014C08091390A67
:1059F000E82FF0E0E65CF54F998190838F5F80930C
:105A0000390A8093380A04C061E0CE01019640D083
:105A100081E090E00F90DF91CF910895FC01138217
:105A2000128248EE53E060E070E044835583668361
:105A300077838DEC98E091838083089510925B0AC0
:105A400010925A0A1092390A1092380A03C08BE257
:105A50009AE0E4CF1092E90A81E08093E70A10927D
:105A6000E60A61E084E10E945A4F61E085E10E940C
:105A70005A4FE9EBF0E080818E7F808380818D7FBB
:105A8000808388E48093B80085E48093BC00089507
:105A9000613298F42091E90A243089F460939E0AD7
:105AA000FC0180EA9AE0DC012A2F281B261718F453
:105AB00021912D93F9CF80E0089581E0089582E04F
:105AC000089585ED8093BC008091BC0084FDFCCFDF
:105AD0001092E90A089585EC8093BC001092E90ABF
