:1000000035C1000064C1000062C1000060C1000091
:100010005EC100005CC100005AC1000058C1000070
:1000200056C1000054C1000052C1000050C1000080
:100030004EC100004CC100004AC1000048C1000090
:1000400046C1000044C1000042C1000040C10000A0
:100050003EC100003CC100003AC100000C94E00821
:1000600036C100000C942B0C0C94610C30C10000C4
:100070002EC100002CC100002AC1000028C10000D0
:1000800026C1000024C1000022C1000020C10000E0
:100090001EC100001CC100001AC1000012C30000F4
:1000A00016C1000014C1000012C1000010C1000000
:1000B0000EC100000CC100000AC1000008C1000010
:1000C00006C1000004C1000002C1000000C1000020
:1000D000FEC00000FCC00000FAC00000F8C0000034
:1000E000F6C00000AF09B209A109A509AB09E909E9
:1000F000B609BA09C009C409C809CE09D209D60986
:10010000E909DC09E009E40900000A0B02090C0D09
:100110000E080703040100000000000000000000BA
:1001200000000000000000000000000000000000CF
:10013000000000001211100000000000000000008C
:1001400000000000000000000000000000000102AC
:1001500010202008081020401020408002010201D9
:100160000804020101020408102040808040201091
:1001700008040201800402018040201008040201EA
:100180000804020101020408102040800102040852
:10019000102040800505050507050808080802022B
:1001A00002020A0A08080404040401010101010111
:1001B00001010303030303030303040707070C0CF4
:1001C0000C0C0C0C0C0C02020202060606060606BB
:1001D00006060B0B0B0B0B0B0B0B00002000230078
:1001E000260029002C002F0032000001000003012E
:1001F0000601090100002200250028002B002E0026
:100200003100340002010000050108010B0100006B
:100210002100240027002A002D00300033000101B6
:100220000000040107010A014E414E494E4954594C
:10023000494E46CDCCCC3D0AD7233C17B7D13877B1
:10024000CC2B329595E6241FB14F0A0000204100C7
:1002500000C84200401C4620BCBE4CCA1B0E5AAE11
:10026000C59D7400C0011903930CCB0111241FBE5E
:10027000CFEFD1E2DEBFCDBF00E00CBF12E0A0E0C7
:10028000B2E0EEE0F8E200E00BBF02C007900D9292
:10029000AC38B107D9F724E0ACE8B2E001C01D9258
:1002A000A531B207E1F712E0CAE6D2E000E006C0ED
:1002B00022970109FE010BBF0E94F40FC436D1073B
:1002C00080E00807A9F70E942A0E0C94F61398CE36
:1002D00008952FE241E062E080EA92E057D6BC0147
:1002E00082E793E00E94140D63E572E082E793E0F9
:1002F0000E94140D62E080EA92E0E1D5BC0182E741
:1003000093E00E94180D6DE772E082E793E00C9491
:10031000180D26E040E855E260E070E082E793E0E7
:100320000E94CB0B8AEA92E07BD180EA92E0F7D27E
:100330006AE172E082E793E00E94140DCACF209137
:100340009C0230919D0240919A026091980280EA4D
:1003500092E0F3D42091920240919402609196022F
:1003600080EA92E0A3D46CE272E082E793E00E941C
:10037000180D69E472E082E793E00E94140DA9CFA2
:1003800045E164E180EA92E0FCD26DE772E08CE83E
:1003900092E00C948F0D8CE892E00C94280D0F9352
:1003A0001F93CF93DF9300D000D0CDB7DEB782E7A5
:1003B00093E00E94BC0A892B09F492C082E793E083
:1003C0000E94D50A182F682F8CE892E00E94E40D55
:1003D0001A3069F780919E0290919F02892B41F417
:1003E0008CE892E00E94150E70939D0260939C022F
:1003F00080919E0290919F02019741F48CE892E0D7
:100400000E94150E70939B0260939A0280919E0247
:1004100090919F02029751F48CE892E00E941F0E87
:100420000E943A0E709399026093980280919E0206
:1004300090919F02039751F48CE892E00E941F0E66
:100440000E943A0E709397026093960280919E02EA
:1004500090919F02049751F48CE892E00E941F0E45
:100460000E943A0E709395026093940280919E02CE
:1004700090919F02059751F48CE892E00E941F0E24
:100480000E943A0E709393026093920265E572E0C7
:10049000CE0101960E948F0DBE016F5F7F4F8CE8E9
:1004A00092E00E94120E8C01CE0101960E94280D4E
:1004B00017FD06C010929F0210929E0240DF09C0F5
:1004C00080919E0290919F02019690939F0280934B
:1004D0009E026DE772E08CE892E00E94A40D67CF67
:1004E00026960FB6F894DEBF0FBECDBFDF91CF9139
:1004F0001F910F9108958091D90290E02091DA0226
:10050000821B910908952091DA028091D90228175F
:1005100050F4E22FF0E0E552FD4F808190E02F5F34
:100520002093DA0208958FEF9FEF0895E091DA02A9
:100530008091D902E81730F4F0E0E552FD4F808158
:1005400090E008958FEF9FEF08950895CF92DF9286
:10055000EF92FF920F931F93CF93DF937C01CB0118
:100560008A012091B602222389F0EB016B01C40EAF
:10057000D51ECC15DD0561F06991D701ED91FC9197
:100580000190F081E02DC7011995F3CF642F70D051
:10059000C801DF91CF911F910F91FF90EF90DF90F5
:1005A000CF900895CF93DF931F92CDB7DEB76983C5
:1005B0002091B6022223D1F02091B702203240F0E0
:1005C00021E030E0FC013383228380E090E014C01E
:1005D0008091B802E82FF0E0E754FD4F99819083B5
:1005E0008F5F8093B8028093B70204C061E0CE01B0
:1005F00001963ED081E090E00F90DF91CF91089579
:10060000FC011382128248EE53E060E070E0448304
:100610005583668377838FE592E091838083089585
:100620001092DA021092D9021092B8021092B70218
:1006300003C08AEA92E0E4CF1092680381E08093DD
:1006400066031092650361E084E1FDD661E085E117
:10065000FAD6E9EBF0E080818E7F808380818D7F08
:10066000808388E48093B80085E48093BC0008957B
:10067000613298F420916803243089F460931D035B
:10068000FC018FE193E0DC012A2F281B261718F4C8
:1006900021912D93F9CF80E0089581E0089582E0C3
:1006A000089585ED8093BC008091BC0084FDFCCF53
:1006B00010926803089585EC8093BC001092680343
:1006C00008951F920F920FB60F9211240BB60F923E
:1006D0002F933F934F935F936F937F938F939F934A
:1006E000AF93BF93EF93FF938091B900887F8036DB
:1006F00009F49DC070F5883209F45CC090F4803133
:1007000009F455C038F4882309F4F3C0883009F49B
:100710004EC0F2C0883109F44DC0803209F45EC089
:10072000EBC0803409F469C050F4803309F456C03A
:10073000883309F0E1C08093FB02BDDFDDC0803566
:1007400009F44FC0883509F45DC0883409F0D4C07D
:10075000D2C0883909F4C3C0A8F4883709F467C047
:1007600038F4883609F463C0803709F460C0C4C027
:10077000883809F4B4C0803909F45FC0803809F0C2
:10078000BBC05BC0803B09F482C038F4803A09F4F6
:1007900066C0883A09F47BC0AFC0803C09F4A3C0AE
:1007A000883C09F4A0C0883B09F486C0A5C08091AC
:1007B000670310C09091400380913F03981770F534
:1007C000E091400381E08E0F80934003F0E0EF5B07
:1007D000FC4F80818093BB0085EC82C08093FB023C
:1007E0008AC0E091400381E08E0F809340038091A6
:1007F000BB00F0E0EF5BFC4F808390914003809161
:100800003F036AC0E091400381E08E0F8093400374
:100810008091BB00F0E0EF5BFC4F8083809166032A
:10082000811169C081E08093650384EA5DC083E043
:10083000809368031092FC02CFCF8091FC0280323B
:1008400008F04DC0E091FC0281E08E0F8093FC0225
:100850008091BB00F0E0E350FD4F8083BDCF2BDFE4
:100860008091FC02803230F4E091FC02F0E0E35031
:10087000FD4F10826091FC0270E0E0916103F09105
:1008800062038DEF92E019951092FC0235C084E06E
:100890008093680310921E0310921D03E09163037E
:1008A000F0916403199580911D03811105C081E0C9
:1008B00080931D0310921F03E0911E0381E08E0FB1
:1008C00080931E03F0E0E15EFC4F80818093BB00CB
:1008D00090911E0380911D03981708F47DCF85E841
:1008E0008093BC0009C085EC8093BC001092680323
:1008F00003C01092FB02D5DEFF91EF91BF91AF9143
:100900009F918F917F916F915F914F913F912F9127
:100910000F900BBE0F900FBE0F901F901895FC010B
:1009200081818431E1F480818531C9F481E081875E
:1009300061E084E188D561E085E185D58091B900E9
:100940008E7F8093B9008091B9008D7F8093B9002C
:100950008CE08093B80085E08093BC0008951186F8
:1009600061E0808137C5FC018EED97E09683858339
:1009700081E08483838310821182128283E08783E3
:100980000895FC016183408308950F931F93CF93D3
:10099000DF931F92CDB7DEB78C01262F61E0FC01FB
:1009A0008181298317D561E0F80181814CD561E00F
:1009B000F801808148D560E0F801818144D560E08C
:1009C000F801808140D5298141E0F8016081818171
:1009D0000F90DF91CF911F910F9192C5CF93DF932D
:1009E000EC0161E08981F6D460E089812CD561E079
:1009F000888129D561E0898126D560E08981DF91F0
:100A0000CF91E8C4CF93DF93EC0161E08981E2D418
:100A100060E0888118D561E0898115D561E0888121
:100A200012D560E088810FD560E08981DF91CF9198
:100A3000D1C4CF93DF93EC0161E08981CBD460E036
:100A4000888101D560E08981FED461E08881FBD492
:100A500060E08881F8D460E08981DF91CF91BAC4E9
:100A6000CF93DF93EC0160E08981B4D461E08881A9
:100A7000EAD489811DD50197E1F360E08881DF9197
:100A8000CF91E1C4FF920F931F93CF93DF93EC01BB
:100A900060E089819FD407E010E0F12C61E088815B
:100AA000D2D4898105D59927002E01C0880F0A94D8
:100AB000EAF7F82A81E090E0CDD360E08881C3D4E2
:100AC0000150110958F78F2DDF91CF911F910F9190
:100AD000FF9008950F931F93CF93DF931F92CDB78D
:100AE000DEB78C01262F61E0FC018181298372D45D
:100AF000298141E0F801608181810F90DF91CF91E0
:100B00001F910F91FDC40F931F93CF93DF93EC01BF
:100B10008985882309F44DC084EE8093BC008091C0
:100B2000BC0087FFFCCF80ED8093BB0084EC8093FA
:100B3000BC008091BC0087FFFCCF1092BB0084EC0E
:100B40008093BC008091BC0087FFFCCF84EE809333
:100B5000BC008091BC0087FFFCCF81ED8093BB007F
:100B600084EC8093BC008091BC0087FFFCCF80E0C8
:100B700090E034EC3093BC002091BC0027FFFCCF08
:100B80002091BB00FE01E80FF91F228301968730F8
:100B9000910581F784E88093BC008091BC0087FFB9
:100BA000FCCF84E98093BC00DF91CF911F910F911E
:100BB000089560EDCE01E9DECE0152DF60E0CE01A6
:100BC00089DFCE014DDF61EDCE01DFDECE0148DFF2
:100BD00000E010E0CE0156DFFE01E00FF11F82833E
:100BE000CE010630110511F024DF01C00BDF0F5FCD
:100BF0001F4F0730110571F7CE01DF91CF911F9183
:100C00000F91ECCEEF92FF921F93CF93DF931F9241
:100C1000CDB7DEB77C01162FFC018185882369F1F1
:100C200084EE8093BC008091BC0087FFFCCF80EDF8
:100C30008093BB0084EC8093BC008091BC0087FF54
:100C4000FCCF1093BB0084EC8093BC008091BC006F
:100C500087FFFCCF4093BB0084EC8093BC00809165
:100C6000BC0087FFFCCF84E98093BC000F90DF912C
:100C7000CF911F91FF90EF90089560EDC7014983D8
:100C800084DEC701EDDE612FC70124DFC701E8DE86
:100C90004981642FC7011EDFC701E2DEC7010F9043
:100CA000DF91CF911F91FF90EF9098CEEF92FF923E
:100CB0000F931F93CF93DF931F92CDB7DEB77C01C5
:100CC000862F042F683188F54C3378F52C3368F57E
:100CD0001AE0612F0E94800F492F30E1839F400D61
:100CE000112462E0C70129838DDF802F612F0E94CC
:100CF000800F492FE0E18E9F400D112461E0C70174
:100D000081DF2981822F612F0E94800F492FF0E11E
:100D10008F9F400D112460E0C7010F90DF91CF91AC
:100D20001F910F91FF90EF906DCF0F90DF91CF91BA
:100D30001F910F91FF90EF900895FF920F931F93D3
:100D4000CF93DF93EC01062FF42E8FEF860F8F31B8
:100D5000A0F58FEF840F8C3080F5C901805D97403E
:100D6000883E23E0920748F51AE0612F0E94800F29
:100D7000492F20E1829F400D112466E0CE0142DF21
:100D80008F2D612F0E94800F492F20E1829F400DFF
:100D9000112465E0CE0136DF802F612F0E94800F85
:100DA000492F20E1829F400D112464E0CE01DF91A4
:100DB000CF911F910F91FF9025CFDF91CF911F9180
:100DC0000F91FF900895962F9695969596959E7003
:100DD000292F220F220F290F862F8F70820F08953F
:100DE000962F9F7067FF09C065FB662760F9892F02
:100DF0002CE0629F800D11240895607366956695BE
:100E00006695862F880F880F860F890F08950F9398
:100E10001F93CF93DF93CDB7DEB760970FB6F894EB
:100E2000DEBF0FBECDBF8C01CE0109969CDDC8018F
:100E30006ADEF8016281C801C6DF8B87F801638131
:100E4000C801C1DF8A87F8016481C801C9DF8987C9
:100E5000F8018581888B6681C801B5DF8C87F80130
:100E60006781C801B0DF8D87F8018085982F929542
:100E70009F708F70FAE09F9F800D112490E0805347
:100E8000984F9F878E8788E0FE013996DE01119684
:100E900001900D928A95E1F729813A814B815C811D
:100EA0006D817E818F81988560960FB6F894DEBF44
:100EB0000FBECDBFDF91CF911F910F910895FF928B
:100EC0000F931F93CF93DF93CDB7DEB728970FB65D
:100ED000F894DEBF0FBECDBF8C01F62ECE01019679
:100EE00042DDC80194DF3A834B832A3010F480E35B
:100EF00005C0822F6AE00E94800F805D80931102FE
:100F00003AE0822F632FFCD7905D909312028AE320
:100F1000809313022A812A3010F480E304C0822FC8
:100F2000632FEED7805D809314023AE0822F632F07
:100F3000E7D7905D909315028AE38093160281E0D3
:100F4000F81203C01092160213C02B812A3010F43D
:100F500080E304C0822F632FD3D7805D8093170274
:100F6000822F6AE0CDD7905D9093180210921902FB
:100F700081E192E028960FB6F894DEBF0FBECDBF98
:100F8000DF91CF911F910F91FF900895DF92EF9223
:100F9000FF920F931F93CF93DF93CDB7DEB72897C0
:100FA0000FB6F894DEBF0FBECDBF8C01E62ED42E57
:100FB000F22ECE010196D7DCC80129DF262F5C83F3
:100FC0006D837E838F8382E0D816E1F083E0D816AC
:100FD00009F464C081E0D812E3C05A3010F480E311
:100FE00004C0852F6AE08CD7805D809306023AE0CA
:100FF000852F632F85D7905D90930702F0920802AA
:101000002D8160C0EE81FF8181E0E81609F4ACC05B
:10101000CF0168EE73E094D7605D6093060204E64A
:1010200010E0B8018DD7605D60930702CF01B80171
:1010300087D70AE010E0B80183D7605D60930802AB
:10104000CF01B8017DD7805D80930902F0920A023A
:10105000E2E0F0E02D81EA5FFD4F2A3010F480E3FA
:1010600004C0822F6AE04CD7805D83833AE0822FF0
:10107000632F46D7905D9483F5822C812A3010F43B
:1010800080E304C0822F632F3BD7805D8683822F4D
:101090006AE036D7905D9783108682C06A3010F47C
:1010A00080E304C0862F6AE02BD7805D8093060220
:1010B0003AE0822F632F24D7905D90930702F0923D
:1010C00008022C812A3010F480E304C0822F632FA1
:1010D00017D7805D80930902822F6AE011D7905D57
:1010E00090930A02F0920B022E813F8181E0E81278
:1010F0001AC0205D37402A30310524F480E3809304
:101100000C0207C0C9016AE070E01AD7605D609305
:101110000C02C9016AE070E013D7805D80930D0274
:1011200010920E023DC0C90168EE73E009D7605D00
:1011300060930C02E4E6F0E0BF0102D7605D6093CB
:101140000D02C901BF01FCD6EAE0F0E0BF01F8D60C
:10115000605D60930E02C901BF01F2D6805D80938D
:101160000F02109210021CC0E05DF740EA30F1055A
:1011700024F480E38093060207C0CF016AE070E0A8
:10118000DFD6605D60930602CF016AE070E0D8D6DA
:10119000805D80930702F0920802E0E0F0E05ACF11
:1011A00086E092E028960FB6F894DEBF0FBECDBF62
:1011B000DF91CF911F910F91FF90EF90DF900895F5
:1011C0001F920F920FB60F9211242F933F938F937C
:1011D0009F93AF93BF9380916A0390916B03A0910B
:1011E0006C03B0916D033091690323E0230F2D3719
:1011F00020F40196A11DB11D05C026E8230F02961B
:10120000A11DB11D2093690380936A0390936B0322
:10121000A0936C03B0936D0380916E0390916F0364
:10122000A0917003B09171030196A11DB11D80932F
:101230006E0390936F03A0937003B0937103BF91FB
:10124000AF919F918F913F912F910F900FBE0F9073
:101250001F9018958230910538F0880F991F880FDC
:10126000991F05970197F1F70895789484B58260E6
:1012700084BD84B5816084BD85B5826085BD85B53A
:10128000816085BDEEE6F0E0808181608083E1E8E9
:10129000F0E0108280818260808380818160808321
:1012A000E0E8F0E0808181608083E1EBF0E0808124
:1012B00084608083E0EBF0E0808181608083E1E9FD
:1012C000F0E0808182608083808181608083E0E9BA
:1012D000F0E0808181608083E1EAF0E080818260DB
:1012E0008083808181608083E0EAF0E0808181609A
:1012F0008083E1E2F1E0808182608083808181608F
:101300008083E0E2F1E0808181608083EAE7F0E0C1
:10131000808184608083808182608083808181601D
:1013200080838081806880831092C100089590E05E
:10133000FC013197E231F10508F04BC0EE58FF4F48
:1013400034C6809180008F7703C0809180008F7DAC
:1013500080938000089580918000877FF9CF84B5C5
:101360008F7702C084B58F7D84BD08958091B000D1
:101370008F7703C08091B0008F7D8093B000089577
:10138000809190008F7707C0809190008F7D03C07F
:1013900080919000877F8093900008958091A000B5
:1013A0008F7707C08091A0008F7D03C08091A0003F
:1013B000877F8093A0000895809120018F7707C0D8
:1013C000809120018F7D03C080912001877F8093D1
:1013D00020010895CF93DF9390E0FC01E25BFE4F84
:1013E0002491FC01EC56FE4F8491882349F190E052
:1013F000880F991FFC01E25FFD4FA591B4918C50BD
:101400009E4FFC01C591D4919FB7611108C0F8941B
:101410008C91209582238C93888182230AC062302C
:1014200051F4F8948C91322F309583238C938881DA
:10143000822B888304C0F8948C91822B8C939FBF5D
:10144000DF91CF9108950F931F93CF93DF931F9256
:10145000CDB7DEB7282F30E0F901E85FFE4F849169
:10146000F901E25BFE4F1491F901EC56FE4F049135
:101470000023C1F0882319F0698359DF6981E02FC7
:10148000F0E0EE0FFF1FEC50FE4FA591B4919FB717
:10149000F8948C91611103C01095812301C0812BB8
:1014A0008C939FBF0F90DF91CF911F910F91089563
:1014B000CF93DF93282F30E0F901E85FFE4F84914E
:1014C000F901E25BFE4FD491F901EC56FE4FC49155
:1014D000CC2389F081112BDFEC2FF0E0EE0FFF1F02
:1014E000E652FE4FA591B4912C912D2381E090E01E
:1014F00021F480E002C080E090E0DF91CF91089578
:10150000BF92CF92DF92EF92FF920F931F93CF93F0
:10151000DF93C82ED62EB42EC7E0D0E0022F10E005
:1015200087E0E82EF12CB1100AC0F701EC1BFD0B8F
:10153000B80102C075956795EA95E2F707C0B80152
:101540000C2E02C0759567950A94E2F761707727B3
:101550008C2D79DF61E08D2D76DF60E08D2D73DFDE
:10156000219708F7DF91CF911F910F91FF90EF9096
:10157000DF90CF90BF900895FC01818D228D90E087
:10158000805C9F4F821B91098F7399270895FC01FE
:10159000918D828D981731F0828DE80FF11D858D28
:1015A00090E008958FEF9FEF0895FC01918D828D5B
:1015B000981761F0828DDF01A80FB11D5D968C91A7
:1015C000928D9F5F9F73928F90E008958FEF9FEFB2
:1015D00008958AE89CE0892B39F08FEC91E0892B03
:1015E00019F098D1811125C080E090E0892B41F05D
:1015F00080E090E0892B21F00E94000081111CC046
:1016000080E090E0892B41F080E090E0892B21F090
:101610000E940000811113C080E090E0892BA1F0AE
:1016200080E090E0892B81F00E94000081110AC0C7
:1016300008950E94CF01D8CF0E940000E1CF0E9400
:101640000000EACF0C9400000895FC01848DDF01B6
:10165000A80FB11DA35ABF4F2C91848D90E0019625
:101660008F739927848FA689B7892C93A089B18914
:101670008C9180648C93938D848D981306C002881E
:10168000F389E02D80818F7D80830895CF93DF9350
:10169000EC01888D8823C1F0EA89FB89808185FD72
:1016A00005C0A889B9898C9186FD0EC00FB607FCCC
:1016B000F5CF808185FFF2CFA889B9898C9185FF0C
:1016C000EDCFCE01C2DFE8CFDF91CF910895CF9269
:1016D000DF92FF920F931F93CF93DF931F92CDB7AB
:1016E000DEB76C0181E0D60158968C9358975B96D3
:1016F0009C915B975C968C915C97981307C0509671
:10170000ED91FC915197808185FD2DC0F601038DEF
:1017100010E00F5F1F4F0F731127F02EF601848D1D
:10172000F81210C00FB607FCF9CFD6015096ED9114
:10173000FC915197808185FFF1CFC601698385DFD8
:101740006981ECCF838DE80FF11DE35AFF4F608371
:10175000D6015B960C935B975296ED91FC91539753
:10176000808180620CC0D6015696ED91FC9157970E
:1017700060835096ED91FC915197808180648083C5
:1017800081E090E00F90DF91CF911F910F91FF903A
:10179000DF90CF900895BF92CF92DF92EF92FF92A9
:1017A000CF93DF93EC016A017B01B22EE889F989BE
:1017B00082E08083411581EE58076105710599F03B
:1017C00060E079E08DE390E0A7019601CCD3215051
:1017D00031094109510956954795379527952115A6
:1017E00080E1380790F0E889F989108260E874E8B0
:1017F0008EE190E0A7019601B6D32150310941094D
:1018000051095695479537952795EC85FD85308389
:10181000EE85FF852083188EEC89FD89B082EA89E8
:10182000FB89808180618083EA89FB89808188606F
:101830008083EA89FB89808180688083EA89FB89CB
:1018400080818F7D8083DF91CF91FF90EF90DF903B
:10185000CF90BF9008951F920F920FB60F92112450
:101860000BB60F922F938F939F93EF93FF93E0917B
:101870008203F09183038081E0918803F0918903D2
:1018800082FD12C0908180918B038F5F8F732091B6
:101890008C03821751F0E0918B03F0E0EE58FC4F7F
:1018A000958F80938B0301C08081FF91EF919F9171
:1018B0008F912F910F900BBE0F900FBE0F901F9026
:1018C00018951F920F920FB60F9211240BB60F921C
:1018D0002F933F934F935F936F937F938F939F9338
:1018E000AF93BF93EF93FF9382E793E0AEDEFF9158
:1018F000EF91BF91AF919F918F917F916F915F9188
:101900004F913F912F910F900BBE0F900FBE0F90F4
:101910001F90189582E793E02FDE21E0892B09F4D0
:1019200020E0822F0895109275031092740388EEC0
:1019300093E0A0E0B0E08093760390937703A093C8
:101940007803B09379038FE692E0909373038093CA
:10195000720385EC90E090937F0380937E0384EC88
:1019600090E0909381038093800380EC90E09093CB
:1019700083038093820381EC90E0909385038093AE
:10198000840382EC90E0909387038093860386EC37
:1019900090E0909389038093880310928B031092B8
:1019A0008C0310928D0310928E030895CF92DF92D4
:1019B000EF92FF920F931F93CF93DF937C016A0105
:1019C000EB0100E010E00C151D0571F06991D701E5
:1019D000ED91FC910190F081E02DC7011995892BC3
:1019E00019F00F5F1F4FEFCFC801DF91CF911F910B
:1019F0000F91FF90EF90DF90CF90089561157105E2
:101A000081F0DB010D900020E9F7AD014150510953
:101A1000461B570BDC01ED91FC910280F381E02D18
:101A2000199480E090E00895E9CF6BE772E0E6CF8B
:101A30000F931F93CF93DF93EC01E0DF8C01CE0176
:101A4000F4DF800F911FDF91CF911F910F910895C7
:101A5000FC018081918164C3CF93DF93EC01888185
:101A60009981009709F05CD3198218821D821C822B
:101A70001B821A82DF91CF9108950F931F93CF930A
:101A8000DF93EC018B016F5F7F4F88819981D7D302
:101A9000009731F0998388831B830A8381E001C01A
:101AA00080E0DF91CF911F910F910895CF93DF9345
:101AB000EC0188819981892B29F08A819B81861785
:101AC000970758F4CE01D9DF882341F08C819D819E
:101AD000892B19F4E881F981108281E0DF91CF919F
:101AE0000895EF92FF920F931F93CF93DF93EC0132
:101AF0007B018A01BA01DADF811103C0CE01ACDFBC
:101B000006C01D830C83B70188819981B6D4CE01AC
:101B1000DF91CF911F910F91FF90EF900895FC01FD
:101B2000118210821382128215821482611571054E
:101B300051F0FB0101900020E9F7AF01415051093C
:101B4000461B570BCECF0895CF93DF93EC01611561
:101B5000710559F0FB0101900020E9F7AF014150F8
:101B60005109461B570BBDDF01C076DFCE01DF9167
:101B7000CF910895EF92FF920F931F93CF93DF932E
:101B8000EC017B010C811D816115710511F480E070
:101B900014C04115510581F0040F151FB80186DFEF
:101BA0008823A9F3288139818C819D81B701820F17
:101BB000931F63D41D830C8381E0DF91CF911F912C
:101BC0000F91FF90EF900895CF93DF931F921F9294
:101BD000CDB7DEB769831A8241E050E0BE016F5F86
:101BE0007F4FC8DF0F900F90DF91CF910895CF9373
:101BF000DF93FC01848195814817590770F4C081F7
:101C0000D181FB0160817181CE01840F951F3CD48D
:101C1000009719F08C1B9D0B02C08FEF9FEFDF9197
:101C2000CF91089540E050E0E2CFFC0180819181A6
:101C3000009709F0EBC360E070E0CB010895FC0170
:101C400080819181009709F0DEC360E070E0CB01F4
:101C5000089508950ADBFDDF0E948901C9EEDAE0EC
:101C60000E9468012097E1F3B4DCFACF71D008F448
:101C700081E0089504D06894B111D9C00895BCD012
:101C800088F09F5790F0B92F9927B751A0F0D1F065
:101C9000660F771F881F991F1AF0BA95C9F712C0EF
:101CA000B13081F0C3D0B1E00895C0C0672F782F64
:101CB0008827B85F39F0B93FCCF38695779567955B
:101CC000B395D9F73EF490958095709561957F4FC7
:101CD0008F4F9F4F0895E89409C097FB3EF490956D
:101CE0008095709561957F4F8F4F9F4F9923A9F0F5
:101CF000F92F96E9BB279395F69587957795679584
:101D0000B795F111F8CFFAF4BB0F11F460FF1BC0C7
:101D10006F5F7F4F8F4F9F4F16C0882311F096E95A
:101D200011C0772321F09EE8872F762F05C0662308
:101D300071F096E8862F70E060E02AF09A95660FC1
:101D4000771F881FDAF7880F9695879597F908957A
:101D5000990F0008550FAA0BE0E8FEEF16161706BC
:101D6000E807F907C0F012161306E407F50798F024
:101D7000621B730B840B950B39F40A2661F0232B3D
:101D8000242B252B21F408950A2609F4A140A695B9
:101D90008FEF811D811D089597F99F6780E870E09E
:101DA00060E008959FEF80EC089500240A941616D1
:101DB000170618060906089500240A941216130639
:101DC000140605060895092E0394000C11F48823C7
:101DD00052F0BB0F40F4BF2B11F460FF04C06F5FE3
:101DE0007F4F8F4F9F4F089557FD9058440F551FB9
:101DF00059F05F3F71F04795880F97FB991F61F08D
:101E00009F3F79F087950895121613061406551F03
:101E1000F2CF4695F1DF08C0161617061806991F6F
:101E2000F1CF86957105610508940895E894BB2764
:101E300066277727CB0197F908950BD0C4CFB5DF7C
:101E400028F0BADF18F0952309F0A6CFABCF112404
:101E5000EECFCADFA0F3959FD1F3950F50E0551F49
:101E6000629FF001729FBB27F00DB11D639FAA27EF
:101E7000F00DB11DAA1F649F6627B00DA11D661F3E
:101E8000829F2227B00DA11D621F739FB00DA11D5F
:101E9000621F839FA00D611D221F749F3327A00D19
:101EA000611D231F849F600D211D822F762F6A2FB5
:101EB00011249F5750408AF0E1F088234AF0EE0F3A
:101EC000FF1FBB1F661F771F881F91505040A9F747
:101ED0009E3F510570F060CFAACF5F3FECF3983E74
:101EE000DCF3869577956795B795F795E7959F5FAE
:101EF000C1F7FE2B880F911D9695879597F9089548
:101F0000991B79E004C0991F961708F0961B881F4B
:101F10007A95C9F780950895AA1BBB1B51E107C0AC
:101F2000AA1FBB1FA617B70710F0A61BB70B881F69
:101F3000991F5A95A9F780959095BC01CD010895F8
:101F400097FB072E16F4009406D077FD08D0E4DF47
:101F500007FC05D03EF4909581959F4F08957095AC
:101F600061957F4F0895A1E21A2EAA1BBB1BFD01AC
:101F70000DC0AA1FBB1FEE1FFF1FA217B307E40768
:101F8000F50720F0A21BB30BE40BF50B661F771FC0
:101F9000881F991F1A9469F76095709580959095A0
:101FA0009B01AC01BD01CF010895EE0FFF1F05900D
:101FB000F491E02D1994A29FB001B39FC001A39F9B
:101FC000700D811D1124911DB29F700D811D112472
:101FD000911D0895F0DFA59F900DB49F900DA49FD3
:101FE000800D911D112408950790F691E02D19940C
:101FF000CF93DF938230910510F482E090E0E0917E
:102000001104F091120420E030E0A0E0B0E030973D
:1020100039F14081518148175907B8F048175907DD
:1020200071F482819381109729F013969C938E937B
:1020300012972CC0909312048093110427C021158D
:10204000310531F04217530718F0A901DB0101C037
:10205000EF019A01BD01DF010280F381E02DD7CFAE
:1020600021153105F9F0281B390B2430310580F496
:102070008A819B816115710521F0FB019383828325
:1020800004C09093120480931104FE01329644C060
:10209000FE01E20FF31F819391932250310939839E
:1020A00028833AC020910F0430911004232B41F46F
:1020B00020910202309103023093100420930F0408
:1020C00020910002309101022115310541F42DB714
:1020D0003EB74091040250910502241B350BE0915C
:1020E0000F04F0911004E217F307A0F42E1B3F0B2E
:1020F0002817390778F0AC014E5F5F4F241735077A
:1021000048F04E0F5F1F5093100440930F048193CB
:10211000919302C0E0E0F0E0CF01DF91CF9108950C
:10212000CF93DF93009709F487C0FC0132971382A5
:102130001282C0911104D0911204209781F4208161
:102140003181280F391F80910F049091100482175C
:10215000930779F5F0931004E0930F046DC0DE014E
:1021600020E030E0AE17BF0750F412964D915C911D
:1021700013979D014115510509F1DA01F3CFB3839E
:10218000A28340815181840F951F8A179B0771F4A8
:102190008D919C911197840F951F02969183808356
:1021A00012968D919C91139793838283211531050B
:1021B00029F4F0931204E09311043EC0D901139660
:1021C000FC93EE9312974D915D91A40FB51FEA1702
:1021D000FB0779F480819181840F951F0296D901C4
:1021E00011969C938E938281938113969C938E93E8
:1021F0001297E0E0F0E08A819B81009719F0FE01E0
:10220000EC01F9CFCE01029628813981820F931F0C
:1022100020910F04309110042817390769F4309782
:1022200029F4109212041092110402C01382128237
:10223000D0931004C0930F04DF91CF9108956F9253
:102240007F928F929F92AF92BF92CF92DF92EF9246
:10225000FF920F931F93CF93DF93EC01CB01209755
:1022600079F4DF91CF911F910F91FF90EF90DF9064
:10227000CF90BF90AF909F908F907F906F90B8CE8F
:10228000FE01E60FF71F9E0122503109E217F30706
:1022900008F4A8C0D9010D911C91119706171707D2
:1022A000B0F00530110508F49BC0A8014450510955
:1022B0004617570708F494C002501109061B170B64
:1022C000019311936D937C93CF012ADF89C05B0149
:1022D000A01AB10A4E01800E911EA0911104B09176
:1022E0001204612C712C60E070E0109709F449C071
:1022F000A815B905C9F5ED90FC901197670142E06A
:10230000C40ED11CCA14DB0478F147018A189B085B
:10231000640142E0C40ED11C1296BC901297139631
:10232000AC91B5E0CB16D10440F0B282A383918288
:102330008082D9018D939C9309C00E5F1F4F0E0DB3
:102340001F1DF90111830083EB2DFA2F6115710513
:1023500031F0DB011396FC93EE93129741C0F0939A
:102360001204E09311043CC06D917C9111976616A4
:10237000770608F43B01BD0112960D90BC91A02D8B
:10238000B4CF60910F047091100468157905E9F4D9
:1023900068167906D0F4409100025091010241156F
:1023A000510541F44DB75EB760910402709105028A
:1023B000461B570BE417F507A8F4F0931004E093BD
:1023C0000F04F901918380830BC012DE7C0100971A
:1023D00049F0A801BE0148D0CE01A2DEC70104C069
:1023E000CE0102C080E090E0DF91CF911F910F916C
:1023F000FF90EF90DF90CF90BF90AF909F908F9025
:102400007F906F900895662777276DC01F93FC011A
:1024100099278827BC01E89411911032E9F319300B
:1024200010F01E30C8F31B3249F01D3241F468949D
:1024300005C044D0610F711D811D911D1191105374
:102440001A30B8F33EF490958095709561957F4F62
:102450008F4F9F4F1F9108959111ADC1803219F098
:1024600089508550D0F70895FB01DC0102C001902E
:102470000D9241505040D8F70895FB01DC010190C6
:102480000D920020E1F70895FB0151915523A9F029
:10249000BF01DC014D9145174111E1F759F4CD0120
:1024A0000190002049F04D9140154111C9F3FB0105
:1024B0004111EFCF81E090E001970895592F482F07
:1024C000372F262F660F771F881F991F660F771FDC
:1024D000881F991F620F731F841F951F660F771F38
:1024E000881F991F08958F929F92AF92BF92CF92AB
:1024F000DF92EF92FF920F931F93CF93DF938B01A5
:102500006115710521F0DB018C9311969C93EC0110
:102510005E01BFEFAB1ABB0A7501C8808C2D90E03D
:102520009BDF892B11F0E501F3CFEDE2CE1208C05D
:102530007E01F2E0EF0EF11CC980DD24D39409C0C6
:102540002BE2C21205C07E0142E0E40EF11CC980FC
:10255000D12CE701219743E050E060E372E0CE0127
:102560002DD1892BB9F4239645E050E06BE272E05F
:10257000CE0124D1892B09F425960115110519F0F6
:10258000D801CD93DC93D11000C160E070E080E809
:102590009FE704C143E050E068E272E0CE010ED153
:1025A000892B59F40115110509F4F4C0B2E0EB0EC2
:1025B000F11CF801F182E082EDC0F70160E070E00B
:1025C000CB01C0E0D0E07F01A0EDAA2EAC0C29E049
:1025D0002A1528F14D2D4260B42E2D2D2870D2FEE3
:1025E00004C0211124C0219622C021112197A5E009
:1025F000B0E09B01AC01EEDC660F771F881F991FCE
:102600006A0D711D811D911D6839A9E97A078A0734
:10261000A9E19A0760F0BD2DB660BB2E08C02EEF71
:10262000A2120AC0D3FC50C04D2D4860B42E319682
:10263000D701CC90DB2CC7CF2C2D2F7D253409F072
:1026400043C0A081AD3241F4BD2DB061DB2E7F01CE
:1026500022E0E20EF11C0CC07F01AB3231F04FEFF3
:10266000E41AF40A21E030E006C0A2E0EA0EF11C10
:10267000A18122E030E0A053AA3018F0E21AF30A58
:1026800023C0F70120E030E02038BCE03B075CF4D9
:10269000A901440F551F440F551F240F351F220F4A
:1026A000331F2A0F311DAF014F5F5F4F7A01A081A9
:1026B000A053AA3010F4FA01E7CFD4FE03C031953D
:1026C00021953109C20FD31FD1FE09C00115110593
:1026D00031F0E1E0EE1AF108D801ED92FC92FBDA5C
:1026E0002D2D2370233019F04B015C0106C04B01E6
:1026F0005C01B7FAB094B7F8B09420E030E0A901DB
:10270000C501B401B3DA882309F43CC0D7FF06C081
:10271000D195C195D10907E412E002C00FE512E09E
:102720006801B8E1CB1AD10890E2E92EF12CCE1560
:10273000DF056CF0F8012591359145915491C50163
:10274000B4017BDB4B015C01CE19DF09F0CF0450F3
:102750001109F594E7940C151D0549F78A2D880F8A
:102760008B2D881F8F3F41F020E030E0A901C5018B
:10277000B4017CDA811106C082E290E090931404E7
:1027800080931304C501B40109C060E070E080E8E3
:102790009FEF04C060E070E080EC9FE7DF91CF9195
:1027A0001F910F91FF90EF90DF90CF90BF90AF906F
:1027B0009F908F900895992788270895FB01DC0149
:1027C0004150504088F08D9181341CF08B350CF4D1
:1027D000805E659161341CF06B350CF4605E861B85
:1027E000611171F3990B0895881BFCCF12E0CAE6C2
:1027F000D2E000E005C022970109FE010BBFF4DB27
:0E280000CC36D10780E00807B1F7F894FFCF7F
:10280E000000150480007878787878787878787871
:10281E0000787878787878787800446174612F48F9
:10282E006F726120417475616C3A2000446174616D
:10283E0020617475616C697A61646120636F6D20CB
:10284E007375636573736F21004E6F7661206461DB
:10285E0074613A20005A657261720000000000D265
:10286E0002A6027B0283029602A502000000006708
:10287E000BD60CBC0AD50AC70A460B0D0A006E61B0
:0C288E006E00696E66006F7666002E001A
:00000001FF
